:100000000C9472040C94B9040C94B9040C94B904C3
:100010000C94B9040C94B9040C94B9040C94B9046C
:100020000C94B9040C94B9040C94BA240C948D2546
:100030000C94CD1B0C94B9040C94B9040C94B90421
:100040000C94B9040C94B9040C94B9040C94B9043C
:100050000C94B9040C942E1C0C94B9040C94B9049F
:100060000C94B9040C94B9040C94B9040C94B9041C
:100070000C94B9040C94B9040C94B9040C94B9040C
:100080000C94B9040C94B9040C94B9040C94B904FC
:100090000C94B9040C94B9040C94B9040C94B904EC
:1000A0000C94B9040C94B9040C94B9042900E00030
:1000B000E1001C000B002C00146404001D0018005B
:1000C0000D0011411A0016001B680C000E001000F4
:1000D00008000700060012000F0036001500090096
:1000E000194313002D00370017000A0005422A00AB
:1000F00028002C002B00E000E10023002E0201006C
:100100001E001E02010024002D0001001F001F021E
:100110000100250025020100200020020100260028
:100120003800010021002102010027002E000100FB
:100130002200220201002A0028002C002B00E000EF
:10014000E1003F00500001003A002F002D02400066
:10015000510001003B00300031024100520001001B
:100160003C003100230242004F0001003D003300FB
:1001700035024300380201003E00330201000070E6
:1001800028002C000100010001000100397001006D
:1001900001003470010001003A7001000100357067
:1001A000010001003B7001000100367001002602D1
:1001B0000100010001003770010027020100010069
:1001C0000100387001000100010001000100010080
:1001D0000100010001000100010001000100010017
:1001E0000100010001000100010001000100010007
:1001F00001000100010001000100010001000100F7
:1002000001000100010001000100010001000100E6
:1005200001000100010001000100010064321464B7
:100530003214783C1E1E140A05000000000101015F
:100540000202030405050607090A0B0C0E0F11121F
:10055000141517191B1D1F212325282A2C2F313470
:1005600036393B3E414346494C4F5255585A5D61DE
:1005700064676A6D707376797C7F8386898C8F92CD
:1005800095989B9EA2A5A7AAADB0B3B6B9BCBEC1B3
:10059000C4C6C9CBCED0D3D5D7DADCDEE0E2E4E600
:1005A000E8EAEBEDEEF0F1F3F4F5F6F8F9FAFAFB20
:1005B000FCFDFDFEFEFEFFFFFFFFFFFFFFFEFEFE58
:1005C000FDFDFCFBFAFAF9F8F6F5F4F3F1F0EEEDC7
:1005D000EBEAE8E6E4E2E0DEDCDAD7D5D3D0CECB56
:1005E000C9C6C4C1BEBCB9B6B3B0ADAAA7A5A29EC8
:1005F0009B9895928F8C898683807C797673706DB9
:100600006A6764615D5A5855524F4C494643413EB2
:100610003B393634312F2C2A282523211F1D1B1945
:1006200017151412110F0E0C0B0A09070605050405
:1006300003020201010100000000000000000101AE
:100640000101010101010102020202020202020291
:100650000303030303030303040404040404050560
:100660000505050606060606070707070808080821
:100670000909090A0A0A0A0B0B0B0C0C0C0D0D0DCB
:100680000E0E0F0F0F10101111111212131314145C
:10069000151516161717181819191A1A1B1C1C1DD0
:1006A0001D1E1F1F20202122222324252526272727
:1006B00028292A2B2B2C2D2E2F2F30313233343555
:1006C00036363738393A3B3C3D3E3F404142434461
:1006D000464748494A4B4C4D4F5051525355565737
:1006E000585A5B5C5E5F606263646667696A6C6DE2
:1006F0006E707173747678797B7C7E80818384865A
:10070000888A8B8D8F91929496989A9B9D9FA1A396
:10071000A5A7A9ABADAFB1B3B5B7B9BBBDBFC1C498
:10072000C6C8CACCCFD1D3D6D8DADCDFE1E4E6E85C
:10073000EBEDF0F2F5F7FAFCFF12036B00650079C0
:100740000062006F00610072006400000016037117
:10075000006D006B006200750069006C006400654C
:1007600000720000000403090409026D0004010086
:10077000A0FA090400000103010100092111010090
:10078000012240000705810308000A090401000155
:1007900003010200092111010001224D0007058219
:1007A0000308000A090402000103000000092111E6
:1007B0000100012236000705830308000A0904032B
:1007C0000001030000000921110100012239000786
:1007D0000584032000011201100100000008EDFE55
:1007E000606001000102000105010906A101050781
:1007F00019E029E715002501950875018102050812
:10080000190129059505750191029501750391015D
:100810000507190029F71500250195F875018102D2
:10082000C005010980A10185021601002603001AF6
:1008300081002A8300751095018100C0050C090113
:10084000A1018503160100269C021A01002A9C02C0
:10085000751095018100C005010902A1010901A1DE
:100860000005091901290515002501950575018166
:1008700002950175038101050109300931158125B2
:100880007F95027508810609381581257F950175C8
:10089000088106050C0A38021581257F9501750827
:1008A0008106C0C005010906A101050719E029E775
:1008B00015002501950875018102950175088101D2
:1008C0000508190129059505750191029501750322
:1008D00091010507190029FF150026FF00950675EF
:1008E000088100C011241FBECFEFDAE0DEBFCDBF0C
:1008F00004B603FE27C08091520290915302A0914A
:100900005402B09155028730904BA740B04BD1F4C0
:1009100010925202109253021092540210925502F9
:1009200014BE84B7877F84BF0FB6F894A8958091D2
:100930006000886180936000109260000FBEE0E06C
:10094000F8E3099511E0A0E0B1E0EAE2F2E502C0C7
:1009500005900D92A433B107D9F722E0A4E3B1E0EA
:1009600001C01D92A235B207E1F70E940E220C943D
:10097000DE280C94000090E080E00895089508952A
:1009800081E00895089581E008950C94C0040E94C8
:1009900016142FEF84E39CE0215080409040E1F753
:1009A00000C000000C94511CEF92FF920F931F9314
:1009B000CF93DF937C01DC010D911C911197809105
:1009C0007901811143C012968C918823D1F1C8011D
:1009D0000E949D19C82F682FC8010E944419B801B0
:1009E0008C2F0E943F06EC01B7010E94C5048823AA
:1009F00009F468C0B701CE010E944808882309F4B1
:100A000061C0CE33B0E7DB0770F4C433E0E7DE0744
:100A100010F5C130F0E7DF0709F45CC050F5C115EF
:100A2000D04709F44AC081E08093360180933701B2
:100A3000C701DF91CF911F910F91FF90EF900C9420
:100A4000C304C8010E947319C82FC9CFC8010E94EE
:100A50009D19B801C6CFFE01E553F047D7011296A4
:100A60008C91E930F10508F040C0E052F74D0C944C
:100A70009028CE01825090474397A8F6F7018281D3
:100A80008823B1F20E945F1B811102C00E943E1BAD
:100A90000E947C1B90E09093440280934302FE01ED
:100AA000E350F047809143028160E231F10508F0A4
:100AB00047C0E751F74D0C949028F70182818111CE
:100AC0000E94C70480E0DF91CF911F910F91FF90AA
:100AD000EF900895D70112968C91882399F3809115
:100AE000F80181608093F801EDCF882359F30E94CB
:100AF000820CE8CF882331F30E94780CE3CF88235F
:100B000009F30E94550BDECF8823E1F20E946D0BA2
:100B1000D9CF8823B9F20E948C0BD4CF882391F2CD
:100B20000E94A40BCFCF882369F20E94BC0BCACFCE
:100B3000882341F20E94D40BC5CF8091430282608A
:100B400080934302809143020E94801B0E941614EE
:100B5000B9CF809143028460F3CF809143028860D3
:100B6000EFCF809143028061EBCF8091430280629E
:100B7000E7CF809143028064E3CF80914302806895
:100B8000DFCF809143028C60DBCF809143028E7F68
:100B9000D7CF809143028D7FD3CF809143028B7F4B
:100BA000CFCF80914302877FCBCF809143028F7E4E
:100BB000C7CF809143028F7DC3CF809143028F7B4B
:100BC000BFCF809143028F77BBCF80914302837F59
:100BD000B7CF90914302892F97FB87F98058B0CF08
:100BE000882361F0109236010E94FD1B909335011D
:100BF0008093340182E00E947B1164CF80913601A2
:100C000081110FC080913401909135010E94091C1F
:100C1000883C910530F486E20E94501086E20E94E2
:100C20002C1182E00E9482114DCF882351F0109246
:100C300037010E94FD1B909335018093340180E2BF
:100C4000DACF8091370181110FC0809134019091EA
:100C500035010E94091C883C910530F487E20E940E
:100C6000501087E20E942C1180E2DCCF0C94970890
:100C70000C9499080C94C2040C943A060895972F8A
:100C800070E026E0929F600D711D1124FB0194E23B
:100C9000899FE00DF11D1124EE0FFF1FE455FF4F5A
:100CA000859194910895FC01EE0FFF1FE45DFA4FCA
:100CB0008591949108950E943F060E94CC079C0163
:100CC000811540E4940708F097C0211580E33807A8
:100CD00008F0FAC0203E310508F074C0203C310510
:100CE00008F0E5C0283A310588F4253A310508F0C6
:100CF000E2C02130310509F477C0C9010497813A77
:100D0000910508F471C030E020E06EC0C901885A36
:100D100091094597C0F7283A310509F4FEC0293AF0
:100D2000310509F4FDC02A3A310509F4FCC02B3A1B
:100D3000310509F4FBC02C3A310509F4FAC02B3B0C
:100D4000310509F4F9C02C3B310509F4F8C02D3AFE
:100D5000310509F4F7C0203B310509F4F6C02E3AFD
:100D6000310509F4F5C02F3A310509F4F4C0213BEF
:100D7000310509F4F3C0223B310509F4F2C0233BED
:100D8000310509F4F1C0243B310509F4F0C0253BDD
:100D9000310509F4EFC0263B310509F4EEC0273BCD
:100DA000310509F4EDC0283B310509F4ECC0293BBD
:100DB000310509F4EBC02A3B310509F4EAC020E013
:100DC00034E412C0211590E2390780F42F3F310539
:100DD00009F050F4283E310538F0C901805F9109CF
:100DE0003065409708F08FCFC9010895C9019F7001
:100DF0000E9453069C01F8CF8115944508F041C02C
:100E0000211583E5380708F06AC0211592E53907F6
:100E100038F5211541E5340708F05CC0211580E55F
:100E2000380708F454C0C90134E0969587953A957F
:100E3000E1F78370422F46954695437090E2499FB3
:100E4000A0011124582B822F837021E030E002C0D2
:100E5000220F331F8A95E2F7242B352B3C68C4CF31
:100E6000C9018370992741E050E002C0440F551F2B
:100E70008A95E2F72695269580E2289F9001112415
:100E8000EBCF211596E5390748F4922F88272115D5
:100E90003545C8F59C01246F306AA6CFC90190562C
:100EA0003F708115904108F02ECF30629DCFC9016F
:100EB000805C91099DCF253A310549F1263A3105EB
:100EC00049F522E830E490CF3327306C8DCF3F7066
:100ED000306A8ACF322F2227216F306A85CFC9012D
:100EE0008370992741E050E002C0440F551F8A9556
:100EF000E2F72695269580E2289F90011124242B65
:100F0000352B3A6871CF88279F719C01CECF21E89D
:100F100030E46ACF23E830E467CF22EE34E464CFD4
:100F200029EE34E461CF2AEE34E45ECF25EB34E4DD
:100F30005BCF26EB34E458CF23EB34E455CF24EBDE
:100F400034E452CF27EB34E44FCF2CEC34E44CCFD5
:100F50002DEC34E449CF23E835E446CF2AE835E4E4
:100F600043CF22E935E440CF24E935E43DCF21E207
:100F700036E43ACF23E236E437CF24E236E434CF06
:100F800025E236E431CF26E236E42ECF27E236E4FE
:100F90002BCF2AE236E428CF803E910581F1C8F4B8
:100FA0008133910509F462C048F48932910509F44E
:100FB00056C08A32910509F460C0089589339105BD
:100FC000B9F082389105A1F08533910509F440C04C
:100FD0000895863E910561F138F4823E9105B1F0A5
:100FE000833E9105E1F00895873E910551F1089502
:100FF000209143022370D9F080EE90E00895209173
:10100000430220FF14C089E390E008952091430239
:1010100022FF0DC024FD09C083EE90E008952091C9
:10102000430222FD31C024FF02C090E080E0089519
:101030002091430223FFFBCF24FDF7CF87EE90E002
:1010400008952091430223FFEECF86EE90E00895AD
:101050002091430225FFEBCF89E290E00895209193
:10106000430225FFE4CF85E390E0089520914302F9
:1010700026FFDDCF8AE290E008952091430226FF0B
:10108000D6CF81E390E0089582EE90E00895089530
:101090000F931F93CF938C01FB018281811106C0B6
:1010A000C1E08C2FCF911F910F910895C091450100
:1010B000C11125C00531104799F70E94470881E00A
:1010C000809345010E94FD1B90934401809343014E
:1010D0001092380110923A011092390110923C019D
:1010E00010923B0110923E0110923D01109240017E
:1010F00010923F011092420110924101D2CF809193
:101100004301909144010E94091C883C910540F6DE
:1011100080913801E82FF0E0EE0FFF1FE75CFE4FF3
:10112000118300838F5F80933801C0E0BACF0C94A5
:10113000BE040C94BF0485B7806885BF85B78068FE
:1011400085BFAAE1B1E061E070E08D91E82FE29502
:10115000EF70F0E041A18F709B0101C0220F8A95D2
:10116000EAF7922F9095942391A382A1822B82A3D8
:1011700081E0A032B80749F7A4E1B1E061E070E096
:101180008D91E82FE295EF70F0E041A18F709B0107
:1011900001C0220F8A95EAF7922F9095942391A38C
:1011A00082A1822B82A381E0AA31B80749F7ECE43F
:1011B000F1E0A6E4B1E082E591E011921D928E1774
:1011C0009F07D9F70C9436064F925F926F927F92E9
:1011D0008F929F92AF92BF92CF92DF92EF92FF9247
:1011E0000F931F93CF93DF9306E411E08AE1C82E9B
:1011F00081E0D82E2801EE24E394F12CBB24B39493
:10120000D2019D902D011E92E60189916E01E82F79
:10121000E295EF70F0E091A18F70970101C0220F6D
:101220008A95EAF7892F822B81A382A1822E80944E
:10123000882182A3D0EADA95F1F764E171E090E0C9
:1012400080E0EB01A990BE014A2D42954F7050E01D
:10125000EA0168A07C905A2D5F70E70102C0CC0FB4
:10126000DD1F5A95E2F7AE01462109F04FC04E2D21
:10127000082E01C0440F0A94EAF747294C930196BF
:1012800086309105F1F681A1882181A382A1282BC6
:1012900022A38C91981641F0B09252010E94FD1B3E
:1012A0009093540180935301DCE44D16D1E05D0628
:1012B00009F0A6CF809152018823A1F080915301BB
:1012C000909154010E94091C069760F0ECE4F1E053
:1012D000D8018D918D018193B1E00C341B07C1F7CA
:1012E000109252010E94380681E0DF91CF911F9148
:1012F0000F91FF90EF90DF90CF90BF90AF909F90B5
:101300008F907F906F905F904F90089540E0B5CFA1
:10131000E82FF0E0E45BFE4F8081089508959C0182
:10132000CB016BB1542F509556236BB1462B6FB741
:10133000F894820F931F2817390711F46FBF08958F
:10134000F90171919F01E8E04BB9000000C077FFFF
:101350005BB9770F000000C000C000C05BB900C0DF
:10136000EA9591F7E8CFFC019AB1942B9AB99B01C9
:10137000220F331F620F731FCF010E948F0987EC6A
:1013800090E00197F1F700C00000089548E00C9448
:10139000B309AF92BF92CF92DF92EF92FF920F9379
:1013A0001F93CF93DF937C01E901842F242F6623C1
:1013B00009F43FC0C42ED12C8FEF90E0861B910919
:1013C000489F8001499F100D1124212F812F9927BB
:1013D000C81AD90A9CE3A92EB12CC701B5010E94F5
:1013E0006828FB01BC01C69EC001C79E900DD69E19
:1013F000900D1124B5010E946828E330F10509F42D
:1014000043C080EFE816F10468F4E130F10591F192
:101410003297A1F18CE3E816F10440F180E020E07E
:1014200040E007C0E430F10599F1842F861B359721
:10143000A9F7E42FF0E0E75CF94F4491E22FF0E0E8
:10144000E75CF94F9491E82FF0E0E75CF94FE49105
:1014500049839883EA83DF91CF911F910F91FF9089
:10146000EF90DF90CF90BF90AF900895812F262FFF
:10147000210FDFCF812F242F461BDBCF862F810F3B
:10148000E42F412F2E2FD5CFE42FE61B842FF9CF49
:10149000842F462F410FCDCF88E090E00C949E28FA
:1014A000AB01BC0188E090E00C94BC28CF93DF93A3
:1014B00000D000D0CDB7DEB7E5E2F2E083E0808374
:1014C00011828FEF8283838380912502909126027F
:1014D000A0912702B091280289839A83AB83BC83B1
:1014E000BC01CD010F900F900F900F90DF91CF9125
:1014F0000C94500A80912502EDE2F2E080FF06C0D4
:1015000066E070E08DE292E00C94C60911821082D0
:101510001282339682E0EF33F807C1F7F1CFEDE2A4
:10152000F2E0818360834283339692E0EF33F907E0
:10153000C1F70C947A0AEF92FF920F931F93CF9307
:10154000DF9300D00F92CDB7DEB7182FE92EF62E1D
:10155000042F8091250290912602A0912702B0913C
:1015600028028093290290932A02A0932B02B09321
:101570002C028091250280FF1FC09E012F5F3F4FEC
:10158000812F9E2D0E94C9098091290210FB87F9A5
:1015900080932902169580912A028078182BE0FA10
:1015A00017F910932A02F0922B0200932C024B8120
:1015B00069818A810E948F0A0F900F900F90DF91AE
:1015C000CF911F910F91FF90EF9008950F931F936C
:1015D000CF93DF9300D000D00F92CDB7DEB78983D1
:1015E0009D83062F142F8091250280FF54C0982FD1
:1015F0009E77923091F589819D810E949B0A80910E
:101600002502B981B0FB87F980932502B6958091B8
:1016100026028078B82B8D8180FBB7F9B093260223
:1016200000932702109328028091250290912602B0
:10163000A0912702B091280289839A83AB83BC834F
:10164000BC01CD010F900F900F900F900F90DF9184
:10165000CF911F910F910C94500A982F96959F73DC
:101660002EE3290F2F73243018F410912802C7CFCE
:10167000965C9F73993018F6881F8827881F909171
:1016800026029D83990F982B9983AD81A7FBAA27EA
:10169000A0F9AD83B4CF0F900F900F900F900F90E3
:1016A000DF91CF911F910F910895E5E2F2E0208143
:1016B000221F2227221F30912602432F440F842FFE
:1016C000822B37FB992790F9089668E671E00E9413
:1016D0007C28438162810C94E60A20912502221F16
:1016E0002227221F30912602432F440F842F822B62
:1016F00037FB992790F98830910540F4805A9E4F26
:1017000040912802609127020C94E60A089768E647
:1017100071E00E947C28F4CF60912702683F90F42A
:10172000685F80912502881F8827881F9091260274
:10173000292F220F97FB992790F940912802822B9D
:101740000C94E60A6FEFEDCF60912702683090F0BD
:10175000685080912502881F8827881F9091260253
:10176000292F220F97FB992790F940912802822B6D
:101770000C94E60A60E0EDCF40912802483F90F4D7
:10178000485F80912502881F8827881F9091260234
:10179000292F220F97FB992790F960912702822B1E
:1017A0000C94E60A4FEFEDCF40912802483090F0BC
:1017B000485080912502881F8827881F9091260213
:1017C000292F220F97FB992790F960912702822BEE
:1017D0000C94E60A40E0EDCFCF93DF9300D000D029
:1017E000CDB7DEB79091250290FF47C09178811167
:1017F00032C092609093250280912502909126023A
:10180000A0912702B091280289839A83AB83BC837D
:10181000BC01CD010E94500A80912502982F9E772D
:10182000923009F510926A01881F8827881F9091CD
:101830002602292F220F97FB992790F94091280221
:1018400060912702822B0F900F900F900F90DF91E5
:10185000CF910C94E60A893110F09063CBCF8F734F
:10186000880F982BC7CF982F9695925C9F739631CF
:10187000D8F691E090936A01D7CF0F900F900F9018
:101880000F90DF91CF9108958091F801816080934E
:10189000F80181E080936B010E945F1B811104C0FD
:1018A0000E943E1B0E94560A0E944C0A6093250229
:1018B0007093260280932702909328026E7761F43A
:1018C0000E94560A0E944C0A6093250270932602D9
:1018D000809327029093280281E080936A0180918F
:1018E000250280FF04C086958F730C94EC0B08953D
:1018F0008091250286958F738F5F893108F081E092
:101900000C94EC0BCF93DF9300D000D0CDB7DEB7B3
:1019100090912502892F8E7F90FF81608093250210
:101920008091250290912602A0912702B091280271
:1019300089839A83AB83BC83BC01CD010E94500A8A
:101940008091250280FF0AC086958F730F900F90BB
:101950000F900F90DF91CF910C94EC0B10926A01D5
:101960009FEFA0E7B2E09150A040B040E1F700C087
:1019700000000F900F900F900F90DF91CF910C947B
:101980007A0ACF93C82F80916801909169010E94D3
:10199000091CEC2FF0E0EB5CFA4FE491E817190614
:1019A00009F010F50E94FD1B909369018093680176
:1019B000E0916701F0E0E75CFA4F449180912502E5
:1019C000881F8827881F90912602292F220F97FBB6
:1019D000992790F960912702822B0E949B0A80919F
:1019E00067018F5F80936701CF910895CF93C82FD0
:1019F00080916501909166010E94091CEC2FF0E036
:101A0000EE5CFA4FE491E817190609F0E8F40E9439
:101A1000FD1B9093660180936501409128026091BF
:101A2000270280916301909164010E949B0A80913A
:101A3000630190916401019668E671E00E94682854
:101A40009093640180936301CF910895CF92DF92C8
:101A5000EF92FF921F93CF93DF93182F8091610134
:101A6000909162010E94091CE12FE695F0E0EE5C86
:101A7000FA4FE491E817190609F0C0F50E94FD1B22
:101A800090936201809361018DE2E82E82E0F82E4E
:101A9000D0E0C0E098E6C92EDD24D39480915F01A8
:101AA000909160018C0F9D1FB6010E9468289701DC
:101AB00040912802609127020E94C909EC9683E0B8
:101AC000E80EF11CC83681E0D80741F70E947A0A77
:101AD00080915F019091600110FF10C00196BE01DE
:101AE0000E9468289093600180935F01DF91CF91FD
:101AF0001F91FF90EF90DF90CF9008950197F2CF64
:101B0000AF92BF92CF92DF92EF92FF920F931F930B
:101B1000CF93DF93C82FDD24DA9480FD02C0DD244B
:101B2000D39480915D0190915E010E94091CC6953D
:101B3000EC2FF0E0E15DFA4FE491E817190611F09F
:101B400008F053C00E94FD1B90935E0180935D01DD
:101B5000CDE2D2E010E000E097E0A92EB12C19828E
:101B600018821A8287E0E82EF12CC12C80915C014A
:101B70008C0D87FD8A5F082E000C990B801791074A
:101B8000E9F4209128022E9DC0012F9D900D112473
:101B9000B5010E947C28462F80912502881F882746
:101BA000881F90912602592F550F97FB992790F97E
:101BB0009E0160912702852B0E94C909CD0C81E00E
:101BC000E81AF10899F60F5F1F4F239606301105AA
:101BD00031F60E947A0A80915C0191E0D91212C01C
:101BE00081110EC085E080935C01DF91CF911F9140
:101BF0000F91FF90EF90DF90CF90BF90AF9008953E
:101C00008150F1CF90E00196B8010E947C28EBCF83
:101C1000BF92CF92DF92EF92FF920F931F93CF93D9
:101C2000DF93CDB7DEB762970FB6F894DEBF0FBE75
:101C3000CDBF182F80915A0190915B010E94091C21
:101C4000E12FF0E0E45DFA4FE491E817190611F096
:101C500008F07AC00E94FD1B90935B0180935A01AB
:101C60008E010F5F1F4FF12CE12C6801D8011196F6
:101C70001C9211971C9212961C92B12C909100010B
:101C800080915901B99E800D112486300CF085E0B9
:101C900087FD80E0082E000C990B8E159F05A1F49E
:101CA00080912502881F8827881F90912602592F2E
:101CB000550F97FB992790F9980140912802609160
:101CC0002702852B0E94C909B394B7E0BB12D6CF77
:101CD000EFEFEE1AFE0A0D5F1F4FF6E0EF16F1046C
:101CE00029F62DE232E009E010E056E0E52EF12C75
:101CF000C801B7010E947C28FC01EE0FFF1FE80F0E
:101D0000F91FEC0DFD1D8181D90111968C9311975E
:101D100080818C93828112968C930F5F1F4F2D5F71
:101D20003F4F0F30110521F70E947A0A9091000170
:101D3000809159019130E1F48A3FB4F489EF8093A6
:101D400059018FEF8093000162960FB6F894DEBFC1
:101D50000FBECDBFDF91CF911F910F91FF90EF90FC
:101D6000DF90CF90BF900895815080935901ECCFC0
:101D70008D302CF08CE08093590181E0E3CF8F5FB0
:101D8000F4CFCF93DF9380915701909158010E9437
:101D9000091C883E934028F10E94FD1B9093580136
:101DA0008093570180915501909156010196817061
:101DB00099279093560180935501CDE2D2E09E0180
:101DC000409128026091270290E080E00E94C909BA
:101DD000239682E0CF33D80791F7DF91CF910C940F
:101DE0007A0ADF91CF91089580916A01882371F179
:101DF0008091250286958F739EE3980F9F73943090
:101E000018F482500C94C10C9AE3980F9F7393308E
:101E100018F486500C94F60C97E3980F9F73963045
:101E200018F489500C94260D91E3980F9F73963007
:101E300018F48F500C94800D9BE2980F9F73933091
:101E400018F485510C94080E0C94C10E08959093CB
:101E50007101809370010895E0917001F09171011A
:101E6000309721F00190F081E02D099480E00895F1
:101E7000E0917001F0917101309721F00280F381BF
:101E8000E02D09940895E0917001F091710130976F
:101E900021F00480F581E02D0994089520916E01D0
:101EA00030916F012817390771F090936F0180937B
:101EB0006E01E0917001F0917101309721F0068080
:101EC000F781E02D0994089520916C0130916D0106
:101ED0002817390771F090936D0180936C01E091A0
:101EE0007001F0917101309721F00084F185E02DAF
:101EF0000994089508950C947A0F0E94F41B0E948F
:101F00009B080E94B61C0C94440CBF92CF92DF92A7
:101F1000EF92FF920F931F93CF93DF9300D000D0E7
:101F20000F92CDB7DEB70E94E40883E7C82E81E0A8
:101F3000D82E10E000E0E02E802F0E948809B82EF5
:101F4000F601F1906F01F81609F45BC08091F80179
:101F500081FD0E948E0930E020E0FB244F2D50E0EF
:101F6000922FBA01022E02C0759567950A94E2F786
:101F700060FF41C02983EA8221E030E0790102C09C
:101F8000EE0CFF1C9A95E2F72B2D30E02E213F211D
:101F900081E0232B09F480E08B830E94FD1B81608C
:101FA000782F9D838C8349815A816B818D810E941A
:101FB0002710F801ED58FE4F80818E2580830E9406
:101FC000631F0E942C0F90917201891789F10E9462
:101FD0002C0F809372010F900F900F900F900F9025
:101FE000DF91CF911F910F91FF90EF90DF90CF90F5
:101FF000BF900C943C062F5F3F4F2630310509F00F
:10200000AFCF0F5F1F4F0630110509F094CF8FEF50
:1020100089838A831B820E94FD1B8160782F9D83A8
:102020008C8349815A816B818D810E942710C7CF93
:102030000F900F900F900F900F90DF91CF911F9105
:102040000F91FF90EF90DF90CF90BF900895CF93C6
:10205000DF93CDB7DEB72B970FB6F894DEBF0FBE78
:10206000CDBF4F83588769877A878B871E8285E02B
:10207000FE013796DE01119601900D928A95E1F7E7
:1020800049815A816B817C818D819E812B960FB60F
:10209000F894DEBF0FBECDBFDF91CF910C949E169A
:1020A000882309F4D8C0823871F40E942C0F81FD76
:1020B000D2C089E30E94451A0E940F1B89E30E9447
:1020C000821A0C940F1B833859F40E942C0F80FD48
:1020D000C2C083E50E94451A0E940F1B83E5EFCF23
:1020E000843859F40E942C0F82FDB5C087E40E9409
:1020F000451A0E940F1B87E4E2CF9CEF980F913A9C
:1021000018F40E94451ADDCF90E2980F983050F4F1
:10211000877091E001C0990F8A95EAF7892F0E9494
:10212000C61ACFCF9BE5980F933070F4853A31F003
:10213000863A39F083E890E00C944E0F81E890E005
:10214000FBCF82E890E0F8CF98E5980F953108F042
:1021500082C0883A09F440C0893A09F440C08A3AFA
:1021600009F440C08B3A09F440C08C3A09F440C0ED
:102170008B3B09F440C08C3B09F440C08D3A09F414
:1021800040C0803B09F440C08E3A09F440C08F3A09
:1021900009F440C0813B09F440C0823B09F440C0CF
:1021A000833B09F440C0843B09F440C0853B09F4FB
:1021B00040C0863B09F440C0873B09F440C0883BDF
:1021C00009F440C0893B09F440C08A3B09F440C08F
:1021D00090E080E00C94640F82EE90E0FBCF89EEFB
:1021E00090E0F8CF8AEE90E0F5CF85EB90E0F2CF6B
:1021F00086EB90E0EFCF83EB90E0ECCF84EB90E0C8
:10220000E9CF87EB90E0E6CF8CEC90E0E3CF8DEC6C
:1022100090E0E0CF83E891E0DDCF8AE891E0DACF8B
:1022200082E991E0D7CF84E991E0D4CF81E292E0D6
:10223000D1CF83E292E0CECF84E292E0CBCF85E2B1
:1022400092E0C8CF86E292E0C5CF87E292E0C2CFAB
:102250008AE292E0BFCF0895882309F44BC0823808
:1022600071F40E942C0F81FF45C089E30E94451A3A
:102270000E940F1B89E30E94821A0C940F1B833863
:1022800059F40E942C0F80FF35C083E50E94451A47
:102290000E940F1B83E5EFCF843859F40E942C0F66
:1022A00082FF28C087E40E94451A0E940F1B87E422
:1022B000E2CF9CEF980F913AF0F290E2980F9830AD
:1022C00050F4877091E001C0990F8A95EAF7892F41
:1022D0000E94CC1AD2CF9BE5980F933020F490E067
:1022E00080E00C944E0F885A853120F490E080E015
:1022F0000C94640F0895882321F00E94C61A0C9450
:102300000F1B0895882321F00E94CC1A0C940F1BF8
:1023100008958F929F92AF92BF92DF92EF92FF92B9
:102320000F931F93CF93DF9300D000D00F92CDB7C0
:10233000DEB77C016D837983FC01058102950F7006
:10234000128111110E94E51A0E943E1AD82E88238C
:1023500071F01123A1F08D81805E883080F082E0E1
:102360000E94281A0E943E1A91E0D82ED926E981AF
:10237000E295EF70F0E0E550F74D0C949028D12CE9
:10238000F6CF09810F70F981F07F11F00295007F7F
:102390001123B1F0002361F08D81805E883018F048
:1023A0002D81211109C0802F0E94C61A0E940F1B87
:1023B0008D810E94501015C0802F0E94D71AF6CF31
:1023C0008D810E942C11002361F08D81805E883008
:1023D00018F03D81311129C0802F0E94CC1A0E9433
:1023E0000F1BDD2009F4D3C10E941B1A80FDCFC151
:1023F000F70112820E94151A0E945C18C7010E9400
:10240000D8130E94151A0F900F900F900F900F90F5
:10241000DF91CF911F910F91FF90EF90DF90BF90D0
:10242000AF909F908F900C947E18802F0E94DD1AA1
:10243000D6CF49814F70B42E5981507F503219F058
:10244000B29480EFB8228D81882369F0813029F120
:10245000112369F1002359F0F701858180FFA8CF8E
:102460008F70858304C0112361F0011104C08B2D8E
:102470000E947B11B6CF8B2D0130D1F70E94F91A43
:10248000B0CF011106C00E94FC1A8B2D0E94821150
:10249000A8CF013009F4A5CFF6CF112321F00630E3
:1024A00008F09FCFE4CF053008F09BCFEECF00239C
:1024B00061F38D810E942C1194CF89818695869538
:1024C000837069F0813009F08CCF8D819981937090
:1024D000111102C090E080E00E94640F82CF8D81D4
:1024E00099819370111102C090E080E00E944E0F1C
:1024F00078CF8D81112329F00E94711E0E94581FF0
:1025000070CF0E94D91EFACF8981837009F05FC015
:10251000111167CF2D81229526952770220F220F4A
:102520008D818F7090E0B0E0A0E04C015D01022E43
:1025300004C0880C991CAA1CBB1C0A94D2F7FD810C
:1025400060E070E0CB01F4FF0FC06FE070E080E06E
:1025500090E004C0660F771F881F991F2A95D2F755
:102560006095709580959095298126952695237084
:102570002D832230B1F0233019F19B01AC012829C1
:1025800039294A295B2929833A834B835C833D811E
:1025900069817A818B819C813130B1F00E94E91789
:1025A00020CF9B01AC01282939294A295B2929839D
:1025B0003A834B835C83CA01B9010E94131811CF7F
:1025C0000E94E917C501B4010E94BF170ACF869582
:1025D000112311F089818170882309F402CF2D81A4
:1025E000229526952770220F220F8D818F7090E003
:1025F000B0E0A0E04C015D01022E04C0880C991CE3
:10260000AA1CBB1C0A94D2F73D8160E070E0CB01AC
:1026100034FF0FC06FE070E080E090E004C0660F10
:10262000771F881F991F2A95D2F76095709580951E
:10263000909549814695469543704D834230B1F05F
:10264000433019F19B01AC01282939294A295B291A
:1026500029833A834B835C833D8169817A818B81B5
:102660009C813130B1F00E94EF18BBCE9B01AC01D0
:10267000282939294A295B2929833A834B835C839A
:10268000CA01B9010E941919ACCE0E94EF18C50108
:10269000B4010E94C518A5CE3D81323F09F447C060
:1026A00080F4303F79F1313FD9F1832F805E803162
:1026B000D0F0112309F456C001117ACE89818F71AF
:1026C00033C04D81433FD1F1443F99F7112309F4C1
:1026D0003FC089818F7189830E945C1863E0898182
:1026E0000E941F1A7ECE5D815F705D8389818F712C
:1026F000112321F00E945C188D81BACE0E947E18B1
:102700008D81C4CE112341F0053008F06ACE898155
:102710008F710E94A31865CE063008F062CEF7CF05
:1027200089818F71112339F00E945C185ACE8981FA
:102730008F711123C9F30E947E1853CE112329F003
:1027400089818F710E9447184CCE0E943D1849CE56
:1027500081E00E94281A023008F443CE82E00E94F1
:10276000281A3FCE0111A5CE89818F71E4CF49810E
:102770004F706D81C7010E94BB040E94381731CE93
:1027800049814F706D81C7010E943E062ACE0F908D
:102790000F900F900F900F90DF91CF911F910F919D
:1027A000FF90EF90DF90BF90AF909F908F90089533
:1027B0000F931F93CF93DF93EC018B819C81892B27
:1027C00029F08881998189238F3F29F4DF91CF9166
:1027D0001F910F910895CE010E94D4048823B1F374
:1027E000688179818A810E94EB198C010E944319CA
:1027F0000E94B417B801CE01DF91CF911F910F91C4
:102800000C9489110E94E51A0E94F61A0E94B81AC7
:102810000E940F1B0E9449200E94581F90E080E0F8
:102820000E944E0F90E080E00C94640F0E94D41A36
:102830000C9402140E94DF19282F892F82958F7023
:10284000903C80F48A30B0F4843020F4823090F4EC
:1028500080E008958630E1F781E0203E88F0213F56
:10286000B9F70EC08C3011F08F3091F793FB8827A9
:1028700080F9089581E0203F39F018F4203E40F7B8
:102880000895243F29F7FCCF0895CF93DF9300D01C
:1028900000D00F92CDB7DEB70F900F900F900F9032
:1028A0000F90DF91CF910895CF93DF9300D000D0A8
:1028B00000D0CDB7DEB726960FB6F894DEBF0FBEB8
:1028C000CDBFDF91CF9108951F93CF93DF93E09118
:1028D0007A0116E080917B018E1304C0DF91CF91C5
:1028E0001F910895CE2FD0E01E9FF0011124E458CF
:1028F000FE4F4081518162817381848195810E9464
:102900005414FE013196E770E5CF4091AC0150912F
:10291000AD016091AE017091AF018091B0019091D5
:10292000B1010C9454141F93CF93DF938091B101A4
:10293000807FC1F48091AE018823A1F080917A015B
:10294000C0917B016091AC017091AD014091AF01EC
:102950005091B001D62FD723DA01A095B09516E09B
:10296000C81304C0DF91CF911F91089590E04115E5
:10297000510511F0DF3F31F401968770F1CF2A0F36
:102980003B1F17C0189FF001199FF00D1124E45848
:10299000FE4F21812713F0CF20812613EDCF228116
:1029A0002111EACF238134812417350740F3241BFA
:1029B000350B283C310500F72091B1012F702061C3
:1029C0002093B10126E0289FF001299FF00D1124EA
:1029D000EF57FE4F80818F70806180838CEA91E099
:1029E0000E94D813DF91CF911F910C9464149F9291
:1029F000AF92BF92CF92DF92EF92FF920F931F930D
:102A0000CF93DF93CDB7DEB72B970FB6F894DEBF29
:102A10000FBECDBF8C0185E0F801DE011796019055
:102A20000D928A95E1F7D8014C9111965C9111971E
:102A30001296EC9012978091AF019091B00100979F
:102A400009F46BC12091AC013091AD01632F622379
:102A50006F3F09F462C11396CD90DC909090AE0167
:102A6000992009F4F8C0C816D90608F43FC0F60149
:102A7000E81BF90BCF01FF24F394883C910508F083
:102A8000F12C8CEAA82E81E0B82E8091B101982F0C
:102A9000907FFF2009F4B7C0911180C0FE2C351340
:102AA0002AC0241328C0E11026C08F708061809353
:102AB000B1010E948514C5010E94D8138091B10113
:102AC000D80115968C938F2D2B960FB6F894DEBFF8
:102AD0000FBECDBFDF91CF911F910F91FF90EF906F
:102AE000DF90CF90BF90AF909F9008958095909584
:102AF0008C0D9D1DC0CFCD2829F0842F85238F3FBD
:102B000009F019C180E0B82FB170DB2EE0917A0195
:102B100020917B0136E080FD1CC0EE20A1F2809167
:102B2000B10181608093B101F12CCDCF8E2F90E067
:102B30003E9FF0011124E458FE4F6181651306C0E9
:102B40006081641303C062816E11E7CFFC0131968E
:102B5000E770E213EBCF4F8358878F8198850E94EF
:102B6000DF19292F22952F70903260F0225F2F708D
:102B7000223078F49F7051F0F8019581907F31F404
:102B8000D12C0AC09F7011F08823D1F3805E883069
:102B9000B8F3C8010E94D813FD2C95CF351306C099
:102BA000241304C0D801EE2009F47BC04F8358875A
:102BB0008F8198850E941A14882309F4B8C0EE20EA
:102BC00009F4B5C08091B101803270F02091AC0160
:102BD0003091AD013A8329831B82DD82CC828E83C2
:102BE000CE0101960E94D81386E0F801ACEAB1E06C
:102BF00001900D928A95E1F70E9493140E9485142A
:102C0000FF24F39460CF911113C07C2DDB86CA861C
:102C10006E2D8B850E9445148CEA91E00E94D8139A
:102C200086E0F50111928A95E9F70E9485144BCF51
:102C30003513BCCF2413BACFE110B8CFD801159605
:102C40008C93C8010E94D81386E0F50111928A95F1
:102C5000E9F7F92C38CFC816D90688F1B601681BF8
:102C6000790BCB01F12C883C910508F047C0FE2C74
:102C7000EE2009F45CC0351330C024132EC08091BF
:102C8000B10180FD21C0982F907FF1F0D8011596F9
:102C90008C931597903F39F0982F907F905F8F70AD
:102CA000892B15968C93C8010E94D81386E0F801F1
:102CB000ACEAB1E001900D928A95E1F7B6CF80952C
:102CC00090958C0D9D1DCECF86E0F801ACEAB1E069
:102CD00001900D928A95E1F7F6CE4F8358878F8148
:102CE00098850E941A1481117FCF8091B101816073
:102CF0008093B101C8010E94D813E5CE7C2DDB86FC
:102D0000CA866E2D8B850E94451486E0ECEAF1E0C0
:102D1000DF011D928A95E9F788CFEE2041F04F83BD
:102D200058878F8198850E941A1481115DCFC80140
:102D30000E94D81365CF81E08E25E5CE1F93CF93F7
:102D4000DF93CDB7DEB72C970FB6F894DEBF0FBE7A
:102D5000CDBF4F83588769877A878B879C87CE0141
:102D600007960E94F714882369F08A859B85892B32
:102D700039F04F815885842F85238F3F09F071C02A
:102D800016E05FC086E0FE013796DE0111960190E5
:102D90000D928A95E1F78A859B85892B89F3888531
:102DA0009F8189238F3F61F320917B0130E0C9012E
:102DB00001968770992740917A014817190671F496
:102DC0000E94161410927B0110927A0186E0ECEAC0
:102DD000F1E0DF011D928A95E9F7D2CF96E0929F4C
:102DE000D001939FB00D1124A458BE4FFE0131961F
:102DF00001900D929A95E1F780937B010E946414F3
:102E0000BFCF819FC001112484589E4F0E94F714A8
:102E10008823E9F0E0917A011E9FF0011124E45823
:102E2000FE4F4081518162817381848195810E942E
:102E3000541480917A0190E00196877099278093CD
:102E40007A0180917A0190917B018913DACF2C96D7
:102E50000FB6F894DEBF0FBECDBFDF91CF911F91AB
:102E6000089569857A858B859C850E94541488CF46
:102E7000EF92FF920F931F93CF93DF938C01892BD7
:102E800089F0F12CEE24E394E8012196F801849175
:102E9000843709F457C0A0F4823009F43EC048F4E6
:102EA0008130D1F0DF91CF911F910F91FF90EF9082
:102EB00008959CEF980F9037A8F70E9450100AC011
:102EC000853709F44CC09CE7980F903758F78F77F7
:102ED0000E942C118E0116C00E5F1F4FFE018491BF
:102EE00090E2980F983060F48770FE2D01C0FF0FBC
:102EF0008A95EAF78F2F0E94E81A0E940F1B02C0E2
:102F00000E9450108F2D815008F4BECFEFE9FFE0F2
:102F10003197F1F700C00000F6CF0E5F1F4FFE01A2
:102F2000849190E2980F983050F48770FE2D01C084
:102F3000FF0F8A95EAF78F2F0E94EE1ADECF0E94CC
:102F40002C11E0CF0E5F1F4FFE01C491C150D0F293
:102F50008FE99FE00197F1F700C00000F7CF0E5F07
:102F60001F4FFE01F490CECF08956093CF01709370
:102F7000D0018093D1019093D2010C940214CF938D
:102F8000DF9300D000D0CDB7DEB769837A838B831F
:102F90009C838091CF019091D001A091D101B091FB
:102FA000D20129813A814B815C81822B932BA42B06
:102FB000B52B8093CF019093D001A093D101B09312
:102FC000D2010F900F900F900F90DF91CF910C9442
:102FD0000214CF93DF9300D000D0CDB7DEB7698362
:102FE0007A838B839C838091CF019091D001A091B3
:102FF000D101B091D20129813A814B815C81822338
:103000009323A423B5238093CF019093D001A09361
:10301000D101B093D2010F900F900F900F90DF91DC
:10302000CF910C940214CF93DF9300D000D0CDB792
:10303000DEB769837A838B839C838091CF019091E3
:10304000D001A091D101B091D20129813A814B8167
:103050005C8182279327A427B5278093CF01909383
:10306000D001A093D101B093D2010F900F900F9097
:103070000F90DF91CF910C9402141092CB0110921B
:10308000CC011092CD011092CE010C94021441E0BB
:1030900050E060E070E004C0440F551F661F771FCA
:1030A0008A95D2F74093CB015093CC016093CD0128
:1030B0007093CE010C940214282F81E090E0A0E0E0
:1030C000B0E004C0880F991FAA1FBB1F2A95D2F732
:1030D0004091CB015091CC016091CD017091CE0116
:1030E000842B952BA62BB72B8093CB019093CC01EF
:1030F000A093CD01B093CE010C94021441E050E0B6
:1031000060E070E004C0440F551F661F771F8A956A
:10311000D2F740955095609570958091CB01909134
:10312000CC01A091CD01B091CE0184239523A6239B
:10313000B7238093CB019093CC01A093CD01B093A2
:10314000CE010C940214282F81E090E0A0E0B0E0C2
:1031500004C0880F991FAA1FBB1F2A95D2F7409160
:10316000CB015091CC016091CD017091CE018427AB
:103170009527A627B7278093CB019093CC01A093E6
:10318000CD01B093CE010C940214CF93DF9300D005
:1031900000D0CDB7DEB769837A838B839C8380911F
:1031A000CB019091CC01A091CD01B091CE012981AC
:1031B0003A814B815C81822B932BA42BB52B80937E
:1031C000CB019093CC01A093CD01B093CE010F9091
:1031D0000F900F900F90DF91CF910C940214CF932A
:1031E000DF9300D000D0CDB7DEB769837A838B83BD
:1031F0009C838091CB019091CC01A091CD01B091A5
:10320000CE0129813A814B815C8182239323A423BF
:10321000B5238093CB019093CC01A093CD01B093C3
:10322000CE010F900F900F900F90DF91CF910C94E3
:103230000214CF93DF9300D000D0CDB7DEB76983FF
:103240007A838B839C838091CB019091CC01A09158
:10325000CD01B091CE0129813A814B815C818227D9
:103260009327A427B5278093CB019093CC01A093FB
:10327000CD01B093CE010F900F900F900F90DF9182
:10328000CF910C9402140895292F220FE22FE90FF9
:10329000EE0FE80F8E2F877041E001C0440F8A9532
:1032A000EAF7E695E695E69585E0E89FF0011124BA
:1032B000EE54FE4F30E020E070E05191DF011197B5
:1032C000CB01022E02C0969587950A94E2F7817091
:1032D00081958527842385278C932F5F3F4F253049
:1032E000310559F70895292F220FE22FE90FEE0F2C
:1032F000E80F9E2F9770E695E695E69585E0E89FA6
:10330000F0011124EE54FE4F50E040E080E02191A6
:1033100030E0092E02C0369527950A94E2F7217015
:103320003327042E01C0220F0A94EAF7822B4F5F45
:103330005F4F4530510559F70895BF92CF92DF9204
:10334000EF92FF920F931F93CF93DF938C01C09066
:10335000CB01D090CC01E090CD01F090CE018091D6
:10336000CF019091D001A091D101B091D201C82A92
:10337000D92AEA2AFB2ACFE1D0E0BC2ED701C60128
:103380000C2E04C0B695A795979587950A94D2F709
:1033900080FD0EC0219788F7B12C8B2DDF91CF9146
:1033A0001F910F91FF90EF90DF90CF90BF90089505
:1033B000B8018C2F0E945B06019761F3EECFCF938B
:1033C000DF93D82FC92F0E949D196D2F7C2FDF917D
:1033D000CF910C945B061F93CF93DF93162FD72FBB
:1033E00090917901992339F0862F972FDF91CF9112
:1033F0001F910C94DF19882391F0862F972F0E943C
:103400009D19C82F682F812F9D2F0E944419612F6D
:103410007D2F8C2FDF91CF911F910C945B06862F0F
:10342000972F0E947319C82FF2CF8091D3018595F1
:103430008595859508958091D3018770089598E0CA
:10344000899F90011124622B6093D3010C945C1826
:103450009091D301809589238093D301282F2770E1
:1034600061F4282F082E000C330B9217130629F055
:103470008595859585950C947E1808959091D30136
:10348000977081E009F480E00895909113019923E9
:10349000E1F09091430297FF18C0E82FE695E6957A
:1034A000E695EF3139F12091010130910201E20FEF
:1034B000F32FF11D877021E030E001C0220F8A95C3
:1034C000EAF78181822B8183089520910101309157
:1034D0000201F90132969FEF40E05191851751F0BA
:1034E0009F3F19F4511101C0942F4F5F4E31A9F73E
:1034F0009F3F09F40895290F311D97FD3A95F90171
:103500008283089590911301992301F190914302D0
:1035100097FF1CC0E82FE695E695E695EF3139F167
:103520002091010130910201E20FF32FF11D87700C
:1035300021E030E0A90102C0440F551F8A95E2F74F
:10354000CA01809591818923818308952091010189
:1035500030910201F9013296205E3F4F919189131B
:1035600003C0DF0111971C92E217F307B9F7089522
:1035700081E090E0E0910101F0910201E80FF91F74
:103580001082019680329105A9F708959091F70174
:10359000982B9093F7010895982F90958091F701BB
:1035A00089238093F70108951092F701089590916F
:1035B000F601982B9093F6010895982F909580919D
:1035C000F60189238093F60108951092F60108957B
:1035D0009091F501982B9093F5010895982F90956F
:1035E0008091F50189238093F50108951092F501EA
:1035F00008958093D40108951092D40108952091E4
:10360000010130910201F9013196205E3F4F80E0C7
:10361000919191118F5FE217F307D1F70895E0912F
:103620000101F09102018091F7018083E091010195
:10363000F091020180819091F601892B8083E091C5
:103640000101F091020180819091F501892B808325
:103650009091D401992361F0E0910101F091020170
:103660008081892B80830E94FF1A81111092D401DE
:1036700080910101909102010C94380F6DEE7EEF64
:1036800090E080E00E94C82860E082E090E00E9424
:10369000AA2860E083E090E00E94AA2860E084E02D
:1036A00090E00E94AA2860E085E090E00E94AA28AD
:1036B00040E050E0BA0188E090E00C94BC2890E033
:1036C00080E00E94A4289C0181E02D3E3E4F09F03D
:1036D00080E0089582E090E00C949628682F82E0C4
:1036E00090E00C94AA2883E090E00C949628682F30
:1036F00083E090E00C94AA2884E090E00C94962853
:10370000682F84E090E00C94AA28809149028430CC
:1037100039F11092F90188E190E020E40FB6F894B5
:10372000A895809360000FBE2093600080E00E9407
:103730003C0683B7817F846083BF83B7816083BF8A
:103740007894889583B78E7F83BF0FB6F894A89539
:1037500080916000886180936000109260000FBECD
:10376000089508950895CF930E94B11B0E94E40824
:103770000E94B21BC0E08C2F0E948809811105C0F5
:10378000CF5FC630C1F7CF91089581E0FCCF0E9492
:1037900016140E942C0F0C943C061F921FB61F9209
:1037A00011248F939F93AF93BF938091F90181115F
:1037B00013C080913F0290914002A0914102B091CC
:1037C00042024196A11DB11D80933F029093400299
:1037D000A0934102B0934202BF91AF919F918F910C
:1037E0001F901FBE1F90189582E084BD93E095BD89
:1037F0009AEF97BD80936E0008952FB7F89480914B
:103800003F0290914002A0914102B09142022FBF2D
:103810000895CF92DF92EF92FF929C014FB7F894F8
:1038200080913F0290914002A0914102B0914202EA
:103830004FBF6C017D01EE24FF24A90170E060E020
:10384000C416D506E606F70638F0821B930BFF90E8
:10385000EF90DF90CF9008950197F7CF1F921FB69A
:103860001F9211248F939F93AF93BF9380913F0238
:1038700090914002A0914102B09142020196A11D97
:10388000B11D80933F0290934002A0934102B093F8
:103890004202BF91AF919F918F911F901FBE1F90C9
:1038A00018950E943F24F8942FEF87EA91E6215063
:1038B00080409040E1F700C0000087E090EBDC0121
:1038C0008093520290935302A0935402B0935502F6
:1038D00088E19CE00FB6F894A895809360000FBE35
:1038E00090936000FFCFCF92DF92EF92FF920F9301
:1038F0001F93CF93C0E0E82EF12C8C2F0E948809F3
:1039000010E000E0C82ED12CC601002E02C0959513
:1039100087950A94E2F780FF11C0602F7C2F80E02A
:103920000E943F06E816F90649F481E0CF911F9105
:103930000F91FF90EF90DF90CF9008950F5F1F4F92
:103940000630110509F7CF5FC630B9F680E0EECF3B
:10395000CF93C82F8CE20E94731C882321F08C2FF8
:10396000CF910C94731C80E0CF910895CF93DF9397
:1039700000D000D0CDB7DEB70E945F1B811102C01E
:103980000E943E1B95E6998308C00E94E4088FE3DD
:103990009CE90197F1F700C00000A981A150A9831B
:1039A000A111F3CF89E20E94A81C811110C18AE203
:1039B0000E94A81C81110E943E1B85E00E94A81C49
:1039C00081110E94511C0E946A1B8093F80187E0BC
:1039D0000E94A81C882371F08BE10E94A81C8823F8
:1039E00009F4D1C09091F801892F8D7F91FF8260F9
:1039F0008093F8018091F8010E946E1B0E947C1B4D
:103A000090E0909344028093430280EE0E94A81CB1
:103A1000882341F090914302892F8E7F90FF81602F
:103A20008093430289E30E94A81C882341F090916F
:103A30004302892F8D7F91FF82608093430282EE43
:103A40000E94A81C882341F090914302892F8B7F0C
:103A500092FF84608093430286EE0E94A81C882314
:103A600041F090914302892F877F93FF8860809374
:103A7000430283EE0E94A81C882341F090914302E8
:103A8000892F8F7E94FF80618093430285E30E949B
:103A9000A81C882341F090914302892F8F7D95FFC8
:103AA00080628093430281E30E94A81C882341F036
:103AB00090914302892F8F7B96FF8064809343020D
:103AC00081E10E94A81C882341F090914302892F34
:103AD00097FB87F9805880934302809143020E94AC
:103AE000801B87E20E94A81C89838EE10E94A81C8B
:103AF000882319F0B981B260B9838FE10E94A81CB4
:103B0000882319F029812460298380E20E94A81C5F
:103B1000882319F039813860398381E20E94A81C1A
:103B2000882319F049814061498382E20E94A81CE0
:103B3000882319F059815062598383E20E94A81C9E
:103B4000882319F089818064898384E20E94A81CFB
:103B50008823B1F199819068998389810E94771BAC
:103B60003981232F30E050E040E029833A834B83B2
:103B70005C83CA01B9010F900F900F900F90DF91F5
:103B8000CF910C94B5178EE00E94A81C882339F0C1
:103B90009091F801892F8B7F92FF846029CF80E17B
:103BA0000E94A81C9091F801882329F0892F877F13
:103BB00093FF88601DCF892F8E7F90FF816018CF83
:103BC000A981A111CACF0E94731B282FCBCF0F90C0
:103BD0000F900F900F90DF91CF9108958091FC018D
:103BE00080FF12C06091060185E0689FB00111243A
:103BF000759567957595679560387105A8F5611598
:103C00007105A1F1862F089581FF09C06091060119
:103C100085E0689FB001112475956795EDCF60919F
:103C2000060182FD0AC08091FD018823D1F09091A8
:103C3000050160910601891728F085E0689FB001B1
:103C40001124DACF869FB001112485E0869F900170
:103C5000879F300D1124692F70E0C9010E947C28D4
:103C6000CBCF65E070E0CECF8FE7089581E0089577
:103C70008091FC0180FF0CC06091040170E075959B
:103C80006795759567956115710549F1862F0895BA
:103C900081FF06C06091040170E075956795F3CFD0
:103CA0006091040182FD0BC09091FD019923A1F068
:103CB0006091030180910401961738F0682F70E03D
:103CC0006038710500F38FE70895899FC0011124C2
:103CD00070E00E947C28F4CF61E070E0D7CF81E0F3
:103CE0000895803F31F40E94EE1D8195809300027B
:103CF0000895813F19F40E94EE1DF8CF823F31F400
:103D00000E94EE1D81958093FF010895833F19F471
:103D10000E94EE1DF8CF893F29F40E94381E80933F
:103D2000010208958A3F21F40E94381E8195F7CF41
:103D30008B3F31F40E94381E8195809302020895D2
:103D40008C3F19F40E94381EF8CF843F31F48091E3
:103D5000FE0181608093FE010895853F21F48091EA
:103D6000FE018260F7CF863F21F48091FE018460DE
:103D7000F1CF873F21F48091FE018860EBCF883F2F
:103D800021F48091FE018061E5CF8D3F31F4809177
:103D9000FC0181608093FC0108958E3F21F48091A5
:103DA000FC018260F7CF8F3FB9F78091FC018460FE
:103DB000F1CF9091FF01803F41F48091000287FD97
:103DC00010920002992371F00895813F29F48091A7
:103DD00000021816ACF3F6CF823F81F497FFF2CFC2
:103DE0001092FF018091000290910102892B909125
:103DF0000202892B49F71092FD010895833F19F4BF
:103E0000191674F3DFCF893F39F480910102181637
:103E1000CCF610920102D6CF8A3F29F4809101029C
:103E200087FFD0CFF6CF8B3F39F48091020287FF16
:103E3000C9CF10920202C6CF8C3F29F480910202B2
:103E40001816BCF3BFCF843F31F48091FE018E7F02
:103E50008093FE01B7CF853F21F48091FE018D7FD5
:103E6000F7CF863F21F48091FE018B7FF1CF873F12
:103E700021F48091FE01877FEBCF883F21F4809170
:103E8000FE018F7EE5CF8D3F31F48091FC018E7F66
:103E90008093FC0197CF8E3F21F48091FC018D7FB0
:103EA000F7CF8F3F09F08ECF8091FC018B7FF0CF51
:103EB0008EEF91E00E94430F0E94FD1B9093FB0147
:103EC0008093FA0108951F93CF93DF9300D000D021
:103ED00000D0CDB7DEB78091FA019091FB010E942E
:103EE000091CAC018091FD012091070130E0811196
:103EF00006C0209108019AE0299F900111244217E1
:103F0000530788F02091FF01A0910002A98310912E
:103F10000102B0910202BE8321110FC09A2F912B92
:103F20009B2B09F0B2C026960FB6F894DEBF0FBEE9
:103F3000CDBFDF91CF911F9108958F3F19F08F5F13
:103F40008093FD01121624F40E94EE1D8093FF0160
:103F50008091FF0187FF05C00E94EE1D819580932F
:103F6000FF012981121624F40E94EE1D80930002A5
:103F70008091000287FF05C00E94EE1D819580930D
:103F800000028091FF01882309F455C0309100029E
:103F90003D83332309F44FC0282F880F330B440B84
:103FA000550B29833A834B835C83CA01B9010E9474
:103FB0006F2723E333E343E35FE369837A838B83F0
:103FC0009C8369817A818B819C810E94D32769833C
:103FD0007A838B839C8369817A818B819C810E9407
:103FE00037276093FF018D81082E000C990BAA0BD7
:103FF000BB0B89839A83AB83BC83BC01CD010E9438
:104000006F2723E333E343E35FE369837A838B839F
:104010009C8369817A818B819C810E94D3276983EB
:104020007A838B839C8369817A818B819C810E94B6
:10403000372760930002111624F40E94381E8093E3
:1040400001028091010287FF05C00E94381E819500
:10405000809301029E81191624F40E94381E8093D9
:1040600002028091020287FF05C00E94381E8195DE
:104070008093020226960FB6F894DEBF0FBECDBF26
:10408000DF91CF911F910C94581F8F3F09F057CFAC
:1040900068CF85E0EEEFF1E0DF011D928A95E9F748
:1040A0001092FD011092FC01089580912302089561
:1040B000CF93DF9300D00F92CDB7DEB720914902A6
:1040C000243019F523E029838A839B832093E90018
:1040D0008FEF9091E800815095FD06C095ED9A957F
:1040E000F1F700008111F5CF8091E80085FF0DC048
:1040F00050E040E063E070E0CE0101960E94B722FC
:104100008091E8008E778093E8000F900F900F90D9
:10411000DF91CF910895CF93DF9300D00F92CDB769
:10412000DEB79C0180914902843031F582E08983B9
:10413000205831093B832A8383E08093E9008FEF85
:104140009091E800815095FD06C095ED9A95F1F7A4
:1041500000008111F5CF8091E80085FF0DC050E08F
:1041600040E063E070E0CE0101960E94B7228091AA
:10417000E8008E778093E8000F900F900F90DF910A
:10418000CF910895209149022430F1F422E0209348
:10419000E9002FEF3091E800215035FD06C035EDE4
:1041A0003A95F1F700002111F5CF2091E80025FFA5
:1041B0000BC050E040E065E070E00E94B7228091C3
:1041C000E8008E778093E8000895CF93DF93D82F8F
:1041D000C92F809149028430F1F490911301992301
:1041E000E9F09091430297FF19C08093E9008FEFA7
:1041F0009091E800815095FD06C095E19A95F1F700
:1042000000008111F5CF8091E80050E040E060E2CD
:1042100070E085FD1AC0DF91CF91089581E0809311
:10422000E9008FEF9091E800815095FD06C095ED73
:104230009A95F1F700008111F5CF8091E80085FF94
:10424000EACF50E040E068E070E08D2F9C2F0E94A4
:10425000B7228091E8008E778093E80080E2ED2F0E
:10426000FC2FA3E0B2E001900D928A95E1F7D3CF45
:1042700080914802811109C00E943F240E949C2421
:104280008091E20084608093E200089510924802D9
:104290000895089508950C94C71B42E061EC81E0F5
:1042A0000E94BB2342E061EC82E00E94BB2342E01B
:1042B00061EC83E00E94BB2342E261EC84E00C9459
:1042C000BB2380914B02893089F148F4823009F494
:1042D00094C0833009F44FC0813041F008958A3092
:1042E00009F47BC08B3009F461C0089580914A02C3
:1042F000813A09F03FC08091E800877F8093E80011
:1043000080914E0290914F02892B61F460E283E02C
:1043100092E070E00E9406238091E8008B77809302
:10432000E800089560E090E080E0F3CF80914A02D9
:10433000813201F580914E0290914F02009711F069
:104340000397C1F48091E800877F8093E800809113
:10435000E80082FF0BC08091F100809323028091DE
:10436000E8008B778093E8000C94EF23809149025A
:104370008111EDCF089580914A02813AD9F7809159
:104380004E0290914F02892BA9F78091E800877F18
:104390008093E8008091E80080FFFCCF80911301BA
:1043A0008093F1008091E8008E77DCCF80914A0203
:1043B000813201F780914E0290914F02892BD1F604
:1043C0008091E800877F8093E8000E94EF2380912E
:1043D0004C02809313010C94161480914A0281328E
:1043E00049F68091E800877F8093E8000E94EF23E0
:1043F00080914D0280932402089580914A02813A6F
:1044000009F0B8CF8091E800877F8093E800809121
:10441000E80080FFFCCF80912402C2CF84B7877F61
:1044200084BF0FB6F894A89580916000886180934E
:104430006000109260000FBE80E8809361001092CF
:1044400061000E947B0F0E943F240E949C24809167
:10445000E20084608093E20078940E941C270E940E
:104460007D0F89E091E00E94270F809149028530FD
:1044700029F00E94850F0E94F40EF7CF0E94851B41
:1044800080914702882389F30E94B31B882369F334
:104490000E94A122EACF9C01DA01892F992783305B
:1044A0009105C1F068F48130910509F445C0029787
:1044B00061F48DE690E029E637E02D933C93089572
:1044C00081329105E1F0829739F190E080E030E0AF
:1044D00020E0F3CFC9019927213059F082309105AE
:1044E00059F0E5E6F7E0892B81F7849190E09F0190
:1044F000E4CFEDE4F7E0F9CFE9E3F7E0F6CF64309D
:1045000020F7E62FF0E0EE0FFF1FE45DFE4F208165
:10451000318189E090E0D1CF6430B8F670E0FB01E2
:10452000EE0FFF1FEC5DFE4F20813181605E7E4FFC
:10453000FB01808190E0C1CF82E190E026ED37E081
:10454000BCCF80E189BD82E189BD09B400FEFDCF09
:104550008091D8008F7D8093D8008091E0008260A8
:104560008093E0008091E00081FDFCCF0895AF9240
:10457000BF92CF92DF92FF920F931F93CF93DF935F
:104580006C01EB018A010E940E24F82E811123C0D8
:104590000115110539F0F80180819181C81BD90BF3
:1045A000C80ED91EB12CA12C2097A9F08091E8004B
:1045B00085FD22C08091E8008E778093E800011588
:1045C0001105A1F0F80180819181A80EB91EB18278
:1045D000A08285E0F82E8F2DDF91CF911F910F9152
:1045E000FF90DF90CF90BF90AF9008950E940E246F
:1045F0008823D1F2F82EEFCFF60181916F018093DD
:10460000F1002197FFEFAF1ABF0ACECFFC01CB011B
:1046100020915002309151022617370790F00097F1
:1046200029F42091E8002E772093E80040E00097DD
:1046300051F4411108C08091E80082FF31C080E050
:104640000895C901F3CF209149022223A9F1253011
:10465000A9F12091E80023FD2DC02091E80022FD62
:10466000EACF2091E80020FFE2CF3091F3002091C3
:10467000F200009719F02830310558F041E0283059
:10468000310509F040E02091E8002E772093E80002
:10469000CECF41914093F10001972F5F3F4FE9CF7B
:1046A00080914902882341F0853041F08091E800F3
:1046B00083FFC1CF81E0089582E0089583E00895EB
:1046C000FC01CB012091500230915102261737078F
:1046D00090F0009729F42091E8002E772093E800CD
:1046E00040E0009751F4411108C08091E80082FF3A
:1046F00032C080E00895C901F3CF209149022223FE
:10470000B1F12530B1F12091E80023FD2EC02091B8
:10471000E80022FDEACF2091E80020FFE2CF3091AF
:10472000F3002091F200009719F02830310558F07D
:1047300041E02830310509F040E02091E8002E7773
:104740002093E800CECF44914093F1003196019739
:104750002F5F3F4FE8CF80914902882341F0853099
:1047600041F08091E80083FFC0CF81E0089582E0AE
:10477000089583E00895982F973028F08F708093E4
:10478000E90081E008959093E900242F762F50E00E
:10479000981731F07091EC002091ED005091F000ED
:1047A00021FD02C09F5FE8CF3091EB003E7F309348
:1047B000EB003091ED003D7F3093ED003091EB0048
:1047C00031603093EB007093EC002093ED00509338
:1047D000F0002091EE0027FDE5CF80E00895809164
:1047E0004A0287FF13C08091E80082FF06C08091D3
:1047F000E8008B778093E80004C080914902811122
:10480000F2CF0895809149028823D9F38091E8007E
:1048100080FFF8CF8091E8008E77ECCF2091E40004
:104820003091E50095E6A9012091EC00822F81707E
:1048300020FF06C08091E80080FF06C080E0089558
:104840002091E80022FD1AC080914902882389F056
:10485000853089F08091EB0085FD0FC02091E40048
:104860003091E50042175307F9F29150E1F684E0E8
:10487000089582E0089583E0089581E008950E94FC
:10488000AD240E94B524E0EEF0E080818160808359
:10489000E8EDF0E080818F77808319BCA7EDB0E070
:1048A0008C918E7F8C9380818F7E808310924802C2
:1048B00008950F931F93CF93DF930E94AD240E941E
:1048C000B524C8EDD0E088818F778883888180689F
:1048D000888388818F7D888319BC10924902109249
:1048E0004502109247021092460200EE10E0F801D5
:1048F00080818B7F808388818160888342E060E053
:1049000080E00E94BB23E1EEF0E080818E7F808317
:10491000E2EEF0E080818160808380818860808326
:10492000F80180818E7F8083888180618883DF9118
:10493000CF911F910F910895E8EDF0E080818F7E77
:104940008083E7EDF0E080818160808384E082BF36
:1049500081E0809348020C945924E8EDF0E08081D6
:104960008E7F80831092E20008951092DA001092F8
:10497000E10008951F920F920FB60F9211242F930A
:104980003F934F935F936F937F938F939F93AF93D7
:10499000BF93EF93FF938091E10082FF0BC0809162
:1049A000E20082FF07C08091E1008B7F8093E100ED
:1049B0000E941B278091DA0080FF19C08091D800E7
:1049C00080FF15C08091DA008E7F8093DA0080919D
:1049D000D90080FF94C080E189BD82E189BD09B41E
:1049E00000FEFDCF81E0809349020E943821809132
:1049F000E10080FF19C08091E20080FF15C0809126
:104A0000E2008E7F8093E2008091E20080618093DB
:104A1000E2008091D80080628093D80019BC85E0C4
:104A2000809349020E944A218091E10084FF29C0BD
:104A30008091E20084FF25C080E189BD82E189BDCB
:104A400009B400FEFDCF8091D8008F7D8093D800FF
:104A50008091E1008F7E8093E1008091E2008F7E63
:104A60008093E2008091E20081608093E200809177
:104A70004502882309F449C084E0809349020E94DA
:104A80004B218091E10083FF29C08091E20083FFE8
:104A900025C08091E100877F8093E10082E08093D0
:104AA0004902109245028091E1008E7F8093E100DF
:104AB0008091E2008E7F8093E2008091E20080612D
:104AC0008093E20042E060E080E00E94BB2380919E
:104AD000F00088608093F0000E944921FF91EF91DF
:104AE000BF91AF919F918F917F916F915F914F9106
:104AF0003F912F910F900FBE0F901F90189519BCEA
:104B0000109249020E94462172CF8091E30087FDF6
:104B100002C081E0B2CF83E0B0CF1F920F920FB6F8
:104B20000F9211242F933F934F935F936F937F9333
:104B30008F939F93AF93BF93CF93DF93EF93FF93A5
:104B4000D091E900DF708091EC00C82FC17080FD2A
:104B5000C0E81092E9008091F000877F8093F00018
:104B600078940E94D1251092E9008091F00088602D
:104B70008093F000CD2BCF70C093E900FF91EF91AF
:104B8000DF91CF91BF91AF919F918F917F916F9165
:104B90005F914F913F912F910F900FBE0F901F90FB
:104BA00018951F93CF93DF93CDB7DEB7AA970FB6B3
:104BB000F894DEBF0FBECDBF8AE492E0FC010196FF
:104BC0002091F100208322E082359207B9F70E94FC
:104BD00061218091E80083FF16C180914A02909183
:104BE0004B029A3008F00FC1E92FF0E0E55FF64D77
:104BF0000C949028803881F0823809F004C18091AB
:104C00004E028F708093E9008091EB0085FB88272E
:104C100080F91092E90006C0809146029091470207
:104C2000911182609091E800977F9093E8008093C3
:104C3000F1001092F1008091E8008E77E0C08823A7
:104C400009F4CEC0823009F0DEC080914C0281119F
:104C5000D1C080914E028F7009F4D5C08093E900D5
:104C60002091EB0020FFC6C0933031F48091EB001F
:104C700080628093EB00BEC09091EB0090619093B6
:104C8000EB0021E030E001C0220F8A95EAF7209383
:104C9000EA001092EA008091EB008860EACF81116F
:104CA000B2C010914C021F778091E3008078812B75
:104CB0008093E3008091E800877F8093E8000E9462
:104CC000EF238091E80080FFFCCF8091E3008068B3
:104CD0008093E30082E0111183E08093490293C046
:104CE0008058823008F08FC080914C0290914D0224
:104CF0008C3D23E09207A1F583E08A838AE28983D1
:104D00004FB7F894DE01139620E03EE051E2E32F26
:104D1000F0E050935700E49120FF03C0E295EF705C
:104D20003F5FEF708E2F90E0EA30C0F0C7968D9312
:104D30009D932F5F243159F74FBF8091E800877F03
:104D40008093E8006AE270E0CE0101960E9406239B
:104D50008091E8008B778093E80055C0C096E7CF3C
:104D6000AE014F5F5F4F60914E020E944B22BC012B
:104D7000892B09F448C08091E800877F8093E80080
:104D800089819A810E946023E3CF8038E1F5809188
:104D9000E800877F8093E800809145028093F100CE
:104DA0004ACF811130C090914C02923060F58091D1
:104DB000E800877F8093E800909345020E94EF23EC
:104DC00080914502882311F084E005C08091E300C2
:104DD00087FDFACF81E0809349020E944D2113C0E4
:104DE00080914C02813079F481E0933009F080E0C9
:104DF000809347021092E9008091E800877F8093BA
:104E0000E8000E94EF238091E80083FF0AC08091B0
:104E1000E800877F8093E8008091EB0080628093B8
:104E2000EB00AA960FB6F894DEBF0FBECDBFDF91A0
:104E3000CF911F9108950895CF93809149028823BF
:104E4000A1F0C091E900CF709091EC00892F8170A2
:104E500090FD80E8C82B1092E9008091E80083FD66
:104E60000E94D125CF70C093E900CF9108950E9490
:104E70003E276894B1110C94CD2708950E94B22763
:104E800088F09F5798F0B92F9927B751B0F0E1F00B
:104E9000660F771F881F991F1AF0BA95C9F714C0BB
:104EA000B13091F00E94CC27B1E008950C94CC274A
:104EB000672F782F8827B85F39F0B93FCCF38695F4
:104EC00077956795B395D9F73EF490958095709551
:104ED00061957F4F8F4F9F4F0895E89409C097FBCE
:104EE0003EF490958095709561957F4F8F4F9F4FC1
:104EF0009923A9F0F92F96E9BB279395F695879505
:104F000077956795B795F111F8CFFAF4BB0F11F4C7
:104F100060FF1BC06F5F7F4F8F4F9F4F16C088236E
:104F200011F096E911C0772321F09EE8872F762FA4
:104F300005C0662371F096E8862F70E060E02AF0E5
:104F40009A95660F771F881FDAF7880F96958795D1
:104F500097F9089557FD9058440F551F59F05F3F3A
:104F600071F04795880F97FB991F61F09F3F79F08B
:104F700087950895121613061406551FF2CF46950D
:104F8000F1DF08C0161617061806991FF1CF86958F
:104F90007105610508940895E894BB276627772773
:104FA000CB0197F908950E94E6270C9457280E9498
:104FB000492838F00E94502820F0952311F00C94D5
:104FC00040280C94462811240C94CD270E94AA272F
:104FD00070F3959FC1F3950F50E0551F629FF0014C
:104FE000729FBB27F00DB11D639FAA27F00DB11D65
:104FF000AA1F649F6627B00DA11D661F829F2227EE
:10500000B00DA11D621F739FB00DA11D621F839F74
:10501000A00D611D221F749F3327A00D611D231F4A
:10502000849F600D211D822F762F6A2F11249F5798
:1050300050409AF0F1F088234AF0EE0FFF1FBB1F9B
:10504000661F771F881F91505040A9F79E3F51055A
:1050500080F00C9440280C94CD275F3FE4F3983EF9
:10506000D4F3869577956795B795F795E7959F5F04
:10507000C1F7FE2B880F911D9695879597F9089596
:1050800097F99F6780E870E060E008959FEF80ECFB
:10509000089500240A94161617061806090608959E
:1050A00000240A9412161306140605060895092E04
:1050B0000394000C11F4882352F0BB0F40F4BF2B73
:1050C00011F460FF04C06F5F7F4F8F4F9F4F0895B3
:1050D000AA1BBB1B51E107C0AA1FBB1FA617B7071E
:1050E00010F0A61BB70B881F991F5A95A9F780953A
:1050F0009095BC01CD01089597FB072E16F40094FE
:1051000007D077FD09D00E94682807FC05D03EF43F
:10511000909581959F4F0895709561957F4F089563
:10512000EE0FFF1F0590F491E02D0994F999FECF41
:1051300092BD81BDF89A992780B50895A6E1B0E0A7
:1051400044E050E00C94D028A8E1B0E042E050E008
:105150000C94D028262FF999FECF92BD81BDF89AE4
:10516000019700B4021639F01FBA20BD0FB6F894AB
:10517000FA9AF99A0FBE08950396272F0E94AB283A
:105180000E94AA28252F0E94AB28242F0C94AB281C
:105190000196272F0E94AB280C94AA28DC01CB0192
:1051A000FC01F999FECF06C0F2BDE1BDF89A319637
:1051B00000B40D9241505040B8F70895F894FFCFD5
:1051C0007A057F05840589058E0593059805F00508
:1051D00015069D05A905AD05B105B505B905BD05C2
:1051E000C105C505C905CD05D105D505D905DD051F
:1051F000E105E505E905C111C111191219125D1288
:105200007912F111F1118412F1114C134C13B713EF
:10521000F111F111C013FA251F2603271F260327BA
:0A5220004F2670260327C526D1266D
:10522A00FFD5012808140A321E5520E520C2208B1A
:10523A0020582001913534F43136F590326697C6FC
:10524A00404D3639A40857082108E8077B07940718
:04525A00AD07C607CF
:00000001FF
