:100000000C946C030C94B3030C94B3030C94B303DF
:100010000C94B3030C94B3030C94B3030C94B30388
:100020000C94B3030C94B3030C94DE1D0C94B11E1A
:100030000C94F3140C94B3030C94B3030C94B30317
:100040000C94B3030C94B3030C94B3030C94B30358
:100050000C94B3030C9454150C94B3030C94B30395
:100060000C94B3030C94B3030C94B3030C94B30338
:100070000C94B3030C94B3030C94B3030C94B30328
:100080000C94B3030C94B3030C94B3030C94B30318
:100090000C94B3030C94B3030C94B3030C94B30308
:1000A0000C94B3030C94B3030C94B3032900E00045
:1000B000E1001C000B002C00146404001D0018005B
:1000C0000D0011411A0016001B680C000E001000F4
:1000D00008000700060012000F0036001500090096
:1000E000194313002D00370017000A0005422A00AB
:1000F00028002C002B00E000E10023002E0201006C
:100100001E001E02010024002D0001001F001F021E
:100110000100250025020100200020020100260028
:100120003800010021002102010027002E000100FB
:100130002200220201002A0028002C002B00E000EF
:10014000E1003F00500001003A002F002D02400066
:10015000510001003B00300031024100520001001B
:100160003C003100230242004F0001003D003300FB
:1001700035024300380201003E00330201000070E6
:1001800028002C0001000100010001000100010015
:100190000100010001000100010001000100010057
:1001A0000100010001000100010001000100260220
:1001B000010001000100010001002702010001000F
:1001C0000100010001000100010001000100010027
:1001D0000100010001000100010001000100010017
:1001E0000100010001000100010001000100010007
:1001F00001000100010001000100010001000100F7
:1005200001000100010001000100010012036B0045
:100530006500790062006F006100720064000000D5
:10054000160371006D006B006200750069006C009D
:1005500064006500720000000403090409026D00D4
:10056000040100A0FA0904000001030101000921AF
:10057000110100012240000705810308000A090457
:1005800001000103010200092111010001224D00B7
:100590000705820308000A090402000103000000A5
:1005A0000921110100012236000705830308000A12
:1005B00009040300010300000009211101000122C8
:1005C000390007058403200001120110010000001A
:1005D00008EDFE606001000102000105010906A1AD
:1005E00001050719E029E715002501950875018126
:1005F00002050819012905950575019102950175F6
:100600000391010507190029F71500250195F875D3
:10061000018102C005010980A101850216010026A1
:1006200003001A81002A8300751095018100C0051E
:100630000C0901A1018503160100269C021A010084
:100640002A9C02751095018100C005010902A101D3
:100650000901A100050919012905150025019505C4
:100660007501810295017503810105010930093188
:100670001581257F95027508810609381581257F2A
:10068000950175088106050C0A38021581257F95AC
:100690000175088106C0C005010906A101050719F9
:1006A000E029E7150025019508750181029501757E
:1006B0000881010508190129059505750191029523
:1006C00001750391010507190029FF150026FF0098
:1006D000950675088100C00011241FBECFEFDAE037
:1006E000DEBFCDBF04B603FE27C0809121029091EA
:1006F0002202A0912302B09124028730904BA740A0
:10070000B04BD1F4109221021092220210922302D7
:100710001092240214BE84B7877F84BF0FB6F8946A
:10072000A8958091600088618093600010926000BD
:100730000FBEE0E0F8E3099511E0A0E0B1E0ECE3E2
:10074000F4E402C005900D92A433B107D9F722E07A
:10075000A4E3B1E001C01D92A132B207E1F70E940B
:10076000341B0C94F0210C94000090E080E008957C
:100770000895089581E00895089581E008950C9406
:10078000BA030E94430D2FEF84E39CE02150804088
:100790009040E1F700C000000C947715EF92FF92B3
:1007A0000F931F93CF93DF938C01FC01E080F180C6
:1007B00080916201811140C082818823C1F1C7010B
:1007C0000E94CA12C82F682FC7010E947112B70178
:1007D0008C2F0E940605EC01B8010E94BF038823FC
:1007E00009F44BC0B801CE010E940F07882309F419
:1007F00044C0C531F0E7DF0720F5C23080E7D807F5
:1008000008F04DC0C115E0E7DE0791F1C130D047D7
:10081000E1F181E08093360180933701C801DF91D7
:10082000CF911F910F91FF90EF900C94BD03C701E2
:100830000E94A012C82FCBCFC7010E94CA12B701D5
:10084000C8CFCC3380E7D80709F49BC0CD33D0475D
:1008500001F7F8018281882309F4BAC010923701A8
:100860000E942315909335018093340180E296C055
:10087000F801828181110E94C10380E0DF91CF9154
:100880001F910F91FF90EF900895F80182818823C6
:10089000A1F38091E10181608093E101EECFF80145
:1008A0008281882309F4BACF0E948514811102C085
:1008B0000E946B140E94A21490E090931302809304
:1008C0001202FE01E350F047809112028160E23192
:1008D000F10538F4EE50FE4D0C94A02180911202E7
:1008E000826080931202809112020E94A6140E94DC
:1008F000430DC3CF809112028460F3CF8091120226
:100900008860EFCF809112028061EBCF809112025C
:100910008062E7CF809112028064E3CF809112025F
:100920008068DFCF809112028C60DBCF8091120251
:100930008E7FD7CF809112028D7FD3CF809112020C
:100940008B7FCFCF80911202877FCBCF8091120215
:100950008F7EC7CF809112028F7DC3CF809112020C
:100960008F7BBFCF809112028F77BBCF8091120215
:10097000837FB7CF90911202892F97FB87F9805818
:10098000B0CFF8018281882361F0109236010E9475
:100990002315909335018093340182E00E94A80AC8
:1009A0006CCF8091360181110FC0809134019091FC
:1009B00035010E942F15883C910530F486E20E9493
:1009C0007D0986E20E94590A82E00E94AF0A55CF53
:1009D0008091370181110FC08091340190913501D0
:1009E0000E942F15883C910530F487E20E947D0912
:1009F00087E20E94590A80E2E8CF0C945E070C94CB
:100A000060070C94BC030C9401050895972F70E0C7
:100A100026E0929F600D711D1124FB0194E2899FD5
:100A2000E00DF11D1124EE0FFF1FE455FF4F8591DE
:100A300094910895FC01EE0FFF1FE45DFA4F85913C
:100A4000949108950E9406050E9493069C018115C9
:100A500040E4940708F097C0211580E3380708F0B8
:100A6000FAC0203E310508F074C0203C310508F082
:100A7000E5C0283A310588F4253A310508F0E2C08E
:100A80002130310509F477C0C9010497813A9105F5
:100A900008F471C030E020E06EC0C901885A9109A5
:100AA0004597C0F7283A310509F4FEC0293A3105C7
:100AB00009F4FDC02A3A310509F4FCC02B3A31058E
:100AC00009F4FBC02C3A310509F4FAC02B3B31057F
:100AD00009F4F9C02C3B310509F4F8C02D3A310571
:100AE00009F4F7C0203B310509F4F6C02E3A310570
:100AF00009F4F5C02F3A310509F4F4C0213B310562
:100B000009F4F3C0223B310509F4F2C0233B31055F
:100B100009F4F1C0243B310509F4F0C0253B31054F
:100B200009F4EFC0263B310509F4EEC0273B31053F
:100B300009F4EDC0283B310509F4ECC0293B31052F
:100B400009F4EBC02A3B310509F4EAC020E034E4A3
:100B500012C0211590E2390780F42F3F310509F0CA
:100B600050F4283E310538F0C901805F91093065A5
:100B7000409708F08FCFC9010895C9019F700E9466
:100B80001A059C01F8CF8115944508F041C0211544
:100B900083E5380708F06AC0211592E5390738F572
:100BA000211541E5340708F05CC0211580E53807C0
:100BB00008F454C0C90134E0969587953A95E1F759
:100BC0008370422F46954695437090E2499FA0015D
:100BD0001124582B822F837021E030E002C0220FB5
:100BE000331F8A95E2F7242B352B3C68C4CFC9010B
:100BF0008370992741E050E002C0440F551F8A9549
:100C0000E2F72695269580E2289F90011124EBCFEC
:100C1000211596E5390748F4922F88272115354587
:100C2000C8F59C01246F306AA6CFC90190563F7069
:100C30008115904108F02ECF30629DCFC901805CB4
:100C400091099DCF253A310549F1263A310549F5FB
:100C500022E830E490CF3327306C8DCF3F70306A7C
:100C60008ACF322F2227216F306A85CFC901837046
:100C7000992741E050E002C0440F551F8A95E2F7E2
:100C80002695269580E2289F90011124242B352B50
:100C90003A6871CF88279F719C01CECF21E830E45C
:100CA0006ACF23E830E467CF22EE34E464CF29EE44
:100CB00034E461CF2AEE34E45ECF25EB34E45BCF3D
:100CC00026EB34E458CF23EB34E455CF24EB34E463
:100CD00052CF27EB34E44FCF2CEC34E44CCF2DEC47
:100CE00034E449CF23E835E446CF2AE835E443CF5E
:100CF00022E935E440CF24E935E43DCF21E236E472
:100D00003ACF23E236E437CF24E236E434CF25E28B
:100D100036E431CF26E236E42ECF27E236E42BCF7D
:100D20002AE236E428CF803E910581F1C8F4813370
:100D3000910509F462C048F48932910509F456C05E
:100D40008A32910509F460C0089589339105B9F09C
:100D500082389105A1F08533910509F440C00895CA
:100D6000863E910561F138F4823E9105B1F0833EF3
:100D70009105E1F00895873E910551F10895209184
:100D800012022370D9F080EE90E0089520911202B3
:100D900020FF14C089E390E008952091120222FF01
:100DA0000DC024FD09C083EE90E008952091120249
:100DB00022FD31C024FF02C090E080E00895209120
:100DC000120223FFFBCF24FDF7CF87EE90E00895BA
:100DD0002091120223FFEECF86EE90E0089520913D
:100DE000120225FFEBCF89E290E0089520911202D4
:100DF00025FFE4CF85E390E008952091120226FFBD
:100E0000DDCF8AE290E008952091120226FFD6CF2E
:100E100081E390E0089582EE90E0089508950F93A5
:100E20001F93CF938C01FB018281811106C0C1E029
:100E30008C2FCF911F910F910895C0914501C11141
:100E400025C00531104799F70E940E0781E0809375
:100E500045010E9423159093440180934301109211
:100E6000380110923A011092390110923C0110920F
:100E70003B0110923E0110923D01109240011092F0
:100E80003F011092420110924101D2CF8091430163
:100E9000909144010E942F15883C910540F6809165
:100EA0003801E82FF0E0EE0FFF1FE75CFE4F1183E3
:100EB00000838F5F80933801C0E0BACF0C94B803F1
:100EC0000C94B90385B7806885BF85B7806885BFF6
:100ED000A9E1B1E061E070E08D91E82FE295EF705B
:100EE000F0E041A18F709B0101C0220F8A95EAF7C3
:100EF000922F9095942391A382A1822B82A381E0CB
:100F0000AF31B80749F7A3E1B1E061E070E08D913E
:100F1000E82FE295EF70F0E041A18F709B0101C0D6
:100F2000220F8A95EAF7922F9095942391A382A19C
:100F3000822B82A381E0A931B80749F7ECE4F1E004
:100F4000A6E4B1E082E591E011921D928E179F0711
:100F5000D9F70C94FD044F925F926F927F928F921B
:100F60009F92AF92BF92CF92DF92EF92FF920F9338
:100F70001F93CF93DF9306E411E089E1C82E81E04F
:100F8000D82E2801EE24E394F12CBB24B394D20193
:100F90009D902D011E92E60189916E01E82FE29548
:100FA000EF70F0E091A18F70970101C0220F8A9538
:100FB000EAF7892F822B81A382A1822E8094882137
:100FC00082A3D0EADA95F1F763E171E090E080E086
:100FD000EB01A990BE014A2D42954F7050E0EA0105
:100FE00068A07C905A2D5F70E70102C0CC0FDD1F16
:100FF0005A95E2F7AE01462109F04FC04E2D082E5A
:1010000001C0440F0A94EAF747294C9301968630B1
:101010009105F1F681A1882181A382A1282B22A329
:101020008C91981641F0B09252010E942315909332
:10103000540180935301DCE44D16D1E05D0609F0C4
:10104000A6CF809152018823A1F080915301909105
:1010500054010E942F15069760F0ECE4F1E0D801EE
:101060008D918D018193B1E00C341B07C1F7109273
:1010700052010E94FF0481E0DF91CF911F910F91F7
:10108000FF90EF90DF90CF90BF90AF909F908F90A8
:101090007F906F905F904F90089540E0B5CFE82F1C
:1010A000F0E0E45BFE4F80810895089590935A012B
:1010B000809359010895E0915901F0915A013097B8
:1010C00021F00190F081E02D099480E00895E091F5
:1010D0005901F0915A01309721F00280F381E02DFF
:1010E00009940895E0915901F0915A01309721F047
:1010F0000480F581E02D09940895209157013091E5
:1011000058012817390771F09093580180935701BF
:10111000E0915901F0915A01309721F00680F78152
:10112000E02D09940895209155013091560128171A
:10113000390771F09093560180935501E091590160
:10114000F0915A01309721F00084F185E02D099447
:10115000089508950C94A9080E941A150E94620728
:101160000C94DC15BF92CF92DF92EF92FF920F9317
:101170001F93CF93DF9300D000D00F92CDB7DEB78F
:101180000E94AB078CE5C82E81E0D82E10E000E06D
:10119000E02E802F0E944F08B82EF601F1906F01CB
:1011A000F81609F45BC08091E10181FD0E945508A9
:1011B00030E020E0FB244F2D50E0922FBA01022EA8
:1011C00002C0759567950A94E2F760FF41C02983D4
:1011D000EA8221E030E0790102C0EE0CFF1C9A9512
:1011E000E2F72B2D30E02E213F2181E0232B09F463
:1011F00080E08B830E9423158160782F9D838C83F0
:1012000049815A816B818D810E945409F801E45A09
:10121000FE4F80818E2580830E9489180E945B0882
:1012200090915B01891789F10E945B0880935B01B3
:101230000F900F900F900F900F90DF91CF911F9113
:101240000F91FF90EF90DF90CF90BF900C9403052B
:101250002F5F3F4F2630310509F0AFCF0F5F1F4F93
:101260000630110509F094CF8FEF89838A831B82A2
:101270000E9423158160782F9D838C8349815A8138
:101280006B818D810E945409C7CF0F900F900F90F2
:101290000F900F90DF91CF911F910F91FF90EF90E2
:1012A000DF90CF90BF900895CF93DF93CDB7DEB797
:1012B0002B970FB6F894DEBF0FBECDBF4F83588774
:1012C00069877A878B871E8285E0FE013796DE016B
:1012D000119601900D928A95E1F749815A816B81AF
:1012E0007C818D819E812B960FB6F894DEBF0FBE58
:1012F000CDBFDF91CF910C94CB0F882309F4D8C0D8
:10130000823871F40E945B0881FDD2C089E30E949B
:1013100072130E943C1489E30E94AF130C943C1496
:10132000833859F40E945B0880FDC2C083E50E94A7
:1013300072130E943C1483E5EFCF843859F40E9465
:101340005B0882FDB5C087E40E9472130E943C14C2
:1013500087E4E2CF9CEF980F913A18F40E94721341
:10136000DDCF90E2980F983050F4877091E001C083
:10137000990F8A95EAF7892F0E94F313CFCF9BE547
:10138000980F933070F4853A31F0863A39F083E85B
:1013900090E00C947D0881E890E0FBCF82E890E03B
:1013A000F8CF98E5980F953108F082C0883A09F493
:1013B00040C0893A09F440C08A3A09F440C08B3AE7
:1013C00009F440C08C3A09F440C08B3B09F440C09A
:1013D0008C3B09F440C08D3A09F440C0803B09F4CD
:1013E00040C08E3A09F440C08F3A09F440C0813BB6
:1013F00009F440C0823B09F440C0833B09F440C07B
:10140000843B09F440C0853B09F440C0863B09F4A5
:1014100040C0873B09F440C0883B09F440C0893B89
:1014200009F440C08A3B09F440C090E080E00C948D
:10143000930882EE90E0FBCF89EE90E0F8CF8AEE41
:1014400090E0F5CF85EB90E0F2CF86EB90E0EFCF28
:1014500083EB90E0ECCF84EB90E0E9CF87EB90E07A
:10146000E6CF8CEC90E0E3CF8DEC90E0E0CF83E82A
:1014700091E0DDCF8AE891E0DACF82E991E0D7CF41
:1014800084E991E0D4CF81E292E0D1CF83E292E08F
:10149000CECF84E292E0CBCF85E292E0C8CF86E265
:1014A00092E0C5CF87E292E0C2CF8AE292E0BFCF5E
:1014B0000895882309F44BC0823871F40E945B08B8
:1014C00081FF45C089E30E9472130E943C1489E3A6
:1014D0000E94AF130C943C14833859F40E945B08AB
:1014E00080FF35C083E50E9472130E943C1483E59F
:1014F000EFCF843859F40E945B0882FF28C087E44C
:101500000E9472130E943C1487E4E2CF9CEF980F74
:10151000913AF0F290E2980F983050F4877091E091
:1015200001C0990F8A95EAF7892F0E94F913D2CF4B
:101530009BE5980F933020F490E080E00C947D08B8
:10154000885A853120F490E080E00C949308089547
:10155000882321F00E94F3130C943C1408958823EF
:1015600021F00E94F9130C943C1408958F929F92DD
:10157000AF92BF92DF92EF92FF920F931F93CF93A0
:10158000DF9300D000D00F92CDB7DEB77C016D8322
:101590007983FC01058102950F70128111110E945F
:1015A00012140E946B13D82E882371F01123A1F01E
:1015B0008D81805E883080F082E00E9455130E9409
:1015C0006B1391E0D82ED926E981E295EF70F0E017
:1015D000EC5FFD4D0C94A021D12CF6CF09810F704A
:1015E000F981F07F11F00295007F1123B1F0002303
:1015F00061F08D81805E883018F02D81211109C045
:10160000802F0E94F3130E943C148D810E947D095B
:1016100015C0802F0E940414F6CF8D810E94590AB4
:10162000002361F08D81805E883018F03D8131119A
:1016300029C0802F0E94F9130E943C14DD2009F478
:10164000D3C10E94481380FDCFC1F70112820E94CE
:1016500042130E948911C7010E94050D0E94421386
:101660000F900F900F900F900F90DF91CF911F91DF
:101670000F91FF90EF90DF90BF90AF909F908F9071
:101680000C94AB11802F0E940A14D6CF49814F7061
:10169000B42E5981507F503219F0B29480EFB822A5
:1016A0008D81882369F0813029F1112369F10023AC
:1016B00059F0F701858180FFA8CF8F70858304C022
:1016C000112361F0011104C08B2D0E94A80AB6CF2E
:1016D0008B2D0130D1F70E942614B0CF011106C026
:1016E0000E9429148B2D0E94AF0AA8CF013009F463
:1016F000A5CFF6CF112321F0063008F09FCFE4CF1D
:10170000053008F09BCFEECF002361F38D810E945E
:10171000590A94CF898186958695837069F08130C6
:1017200009F08CCF8D8199819370111102C090E0E6
:1017300080E00E94930882CF8D819981937011116E
:1017400002C090E080E00E947D0878CF8D81112357
:1017500029F00E9497170E947E1870CF0E94FF17F1
:10176000FACF8981837009F05FC0111167CF2D8195
:10177000229526952770220F220F8D818F7090E081
:10178000B0E0A0E04C015D01022E04C0880C991C61
:10179000AA1CBB1C0A94D2F7FD8160E070E0CB016B
:1017A000F4FF0FC06FE070E080E090E004C0660FCF
:1017B000771F881F991F2A95D2F76095709580959D
:1017C000909529812695269523702D832230B1F09E
:1017D000233019F19B01AC01282939294A295B29B9
:1017E00029833A834B835C833D8169817A818B8134
:1017F0009C813130B1F00E94161120CF9B01AC01C9
:10180000282939294A295B2929833A834B835C8318
:10181000CA01B9010E94401111CF0E941611C501E1
:10182000B4010E94EC100ACF8695112311F0898132
:101830008170882309F402CF2D8122952695277087
:10184000220F220F8D818F7090E0B0E0A0E04C015C
:101850005D01022E04C0880C991CAA1CBB1C0A94B2
:10186000D2F73D8160E070E0CB0134FF0FC06FE044
:1018700070E080E090E004C0660F771F881F991F1A
:101880002A95D2F7609570958095909549814695F7
:10189000469543704D834230B1F0433019F19B01BE
:1018A000AC01282939294A295B2929833A834B83AA
:1018B0005C833D8169817A818B819C813130B1F07B
:1018C0000E941C12BBCE9B01AC01282939294A2950
:1018D0005B2929833A834B835C83CA01B9010E9447
:1018E0004612ACCE0E941C12C501B4010E94F21136
:1018F000A5CE3D81323F09F447C080F4303F79F1F5
:10190000313FD9F1832F805E8031D0F0112309F46B
:1019100056C001117ACE89818F7133C04D81433F0A
:10192000D1F1443F99F7112309F43FC089818F71A8
:1019300089830E94891163E089810E944C137ECEC5
:101940005D815F705D8389818F71112321F00E9419
:1019500089118D81BACE0E94AB118D81C4CE112325
:1019600041F0053008F06ACE89818F710E94D01154
:1019700065CE063008F062CEF7CF89818F711123D2
:1019800039F00E9489115ACE89818F711123C9F3D0
:101990000E94AB1153CE112329F089818F710E94CF
:1019A00074114CCE0E946A1149CE81E00E945513F9
:1019B000023008F443CE82E00E9455133FCE01115D
:1019C000A5CE89818F71E4CF49814F706D81C701A8
:1019D0000E94B5030E94651031CE49814F706D8120
:1019E000C7010E9405052ACE0F900F900F900F900F
:1019F0000F90DF91CF911F910F91FF90EF90DF90AB
:101A0000BF90AF909F908F9008950F931F93CF93A7
:101A1000DF93EC018B819C81892B29F0888199814E
:101A200089238F3F29F4DF91CF911F910F91089562
:101A3000CE010E94CE038823B1F3688179818A8127
:101A40000E9418138C010E9470120E94E110B801CC
:101A5000CE01DF91CF911F910F910C94B60A0E9495
:101A600012140E9423140E94E5130E943C140E9449
:101A70006F190E947E1890E080E00E947D0890E03F
:101A800080E00C9493080E9401140C942F0D0E9486
:101A90000C13282F892F82958F70903C80F48A3008
:101AA000B0F4843020F4823090F480E008958630E1
:101AB000E1F781E0203E88F0213FB9F70EC08C307D
:101AC00011F08F3091F793FB882780F9089581E01A
:101AD000203F39F018F4203E40F70895243F29F7BD
:101AE000FCCF0895CF93DF9300D000D00F92CDB7F5
:101AF000DEB70F900F900F900F900F90DF91CF9166
:101B00000895CF93DF9300D000D000D0CDB7DEB7DB
:101B100026960FB6F894DEBF0FBECDBFDF91CF91F2
:101B200008951F93CF93DF93E091630116E08091B6
:101B300064018E1304C0DF91CF911F910895CE2FC1
:101B4000D0E01E9FF0011124EB59FE4F40815181DE
:101B500062817381848195810E94810DFE0131969D
:101B6000E770E5CF40919501509196016091970102
:101B7000709198018091990190919A010C94810D36
:101B80001F93CF93DF9380919A01807FC1F480915E
:101B900097018823A1F080916301C0916401609155
:101BA0009501709196014091980150919901D62F1D
:101BB000D723DA01A095B09516E0C81304C0DF91D1
:101BC000CF911F91089590E04115510511F0DF3F2D
:101BD00031F401968770F1CF2A0F3B1F17C0189F71
:101BE000F001199FF00D1124EB59FE4F21812713AD
:101BF000F0CF20812613EDCF22812111EACF23815E
:101C000034812417350740F3241B350B283C31055C
:101C100000F720919A012F70206120939A0126E00D
:101C2000289FF001299FF00D1124E659FE4F808175
:101C30008F708061808385E991E00E94050DDF91BE
:101C4000CF911F910C94910D9F92AF92BF92CF9222
:101C5000DF92EF92FF920F931F93CF93DF93CDB755
:101C6000DEB72B970FB6F894DEBF0FBECDBF8C0149
:101C700085E0F801DE01179601900D928A95E1F753
:101C8000D8014C9111965C9111971296EC90129795
:101C90008091980190919901009709F46BC120916E
:101CA000950130919601632F62236F3F09F462C161
:101CB0001396CD90DC9090909701992009F4F8C08C
:101CC000C816D90608F43FC0F601E81BF90BCF018E
:101CD000FF24F394883C910508F0F12C85E9A82EA7
:101CE00081E0B82E80919A01982F907FFF2009F40F
:101CF000B7C0911180C0FE2C35132AC0241328C010
:101D0000E11026C08F70806180939A010E94B20D0D
:101D1000C5010E94050D80919A01D80115968C93FA
:101D20008F2D2B960FB6F894DEBF0FBECDBFDF917F
:101D3000CF911F910F91FF90EF90DF90CF90BF90C8
:101D4000AF909F900895809590958C0D9D1DC0CF6C
:101D5000CD2829F0842F85238F3F09F019C180E019
:101D6000B82FB170DB2EE09163012091640136E061
:101D700080FD1CC0EE20A1F280919A0181608093C9
:101D80009A01F12CCDCF8E2F90E03E9FF0011124CF
:101D9000EB59FE4F6181651306C06081641303C077
:101DA00062816E11E7CFFC013196E770E213EBCF51
:101DB0004F8358878F8198850E940C13292F229575
:101DC0002F70903260F0225F2F70223078F49F7075
:101DD00051F0F8019581907F31F4D12C0AC09F70A9
:101DE00011F08823D1F3805E8830B8F3C8010E94D7
:101DF000050DFD2C95CF351306C0241304C0D80162
:101E0000EE2009F47BC04F8358878F8198850E940C
:101E1000470D882309F4B8C0EE2009F4B5C08091BD
:101E20009A01803270F020919501309196013A83A9
:101E300029831B82DD82CC828E83CE0101960E9493
:101E4000050D86E0F801A5E9B1E001900D928A95B3
:101E5000E1F70E94C00D0E94B20DFF24F39460CF01
:101E6000911113C07C2DDB86CA866E2D8B850E9456
:101E7000720D85E991E00E94050D86E0F501119251
:101E80008A95E9F70E94B20D4BCF3513BCCF2413CE
:101E9000BACFE110B8CFD80115968C93C8010E9433
:101EA000050D86E0F50111928A95E9F7F92C38CFF6
:101EB000C816D90688F1B601681B790BCB01F12C45
:101EC000883C910508F047C0FE2CEE2009F45CC068
:101ED000351330C024132EC080919A0180FD21C09B
:101EE000982F907FF1F0D80115968C931597903F1D
:101EF00039F0982F907F905F8F70892B15968C9377
:101F0000C8010E94050D86E0F801A5E9B1E0019045
:101F10000D928A95E1F7B6CF809590958C0D9D1D19
:101F2000CECF86E0F801A5E9B1E001900D928A9547
:101F3000E1F7F6CE4F8358878F8198850E94470D31
:101F400081117FCF80919A01816080939A01C801AD
:101F50000E94050DE5CE7C2DDB86CA866E2D8B8515
:101F60000E94720D86E0E5E9F1E0DF011D928A959D
:101F7000E9F788CFEE2041F04F8358878F8198850D
:101F80000E94470D81115DCFC8010E94050D65CFEC
:101F900081E08E25E5CE1F93CF93DF93CDB7DEB7DB
:101FA0002C970FB6F894DEBF0FBECDBF4F83588776
:101FB00069877A878B879C87CE0107960E94240EBB
:101FC000882369F08A859B85892B39F04F81588554
:101FD000842F85238F3F09F071C016E05FC086E033
:101FE000FE013796DE01119601900D928A95E1F778
:101FF0008A859B85892B89F388859F8189238F3FDB
:1020000061F32091640130E0C9010196877099273E
:10201000409163014817190671F40E94430D109214
:1020200064011092630186E0E5E9F1E0DF011D92B1
:102030008A95E9F7D2CF96E0929FD001939FB00D99
:102040001124AB59BE4FFE01319601900D929A9525
:10205000E1F7809364010E94910DBFCF819FC00181
:1020600011248B599E4F0E94240E8823E9F0E091A1
:1020700063011E9FF0011124EB59FE4F40815181F5
:1020800062817381848195810E94810D80916301B9
:1020900090E0019687709927809363018091630196
:1020A000909164018913DACF2C960FB6F894DEBFB5
:1020B0000FBECDBFDF91CF911F91089569857A85BD
:1020C0008B859C850E94810D88CFEF92FF920F93A4
:1020D0001F93CF93DF938C01892B89F0F12CEE2491
:1020E000E394E8012196F8018491843709F457C0FC
:1020F000A0F4823009F43EC048F48130D1F0DF9181
:10210000CF911F910F91FF90EF9008959CEF980F42
:102110009037A8F70E947D090AC0853709F44CC0A2
:102120009CE7980F903758F78F770E94590A8E01D5
:1021300016C00E5F1F4FFE01849190E2980F9830F9
:1021400060F48770FE2D01C0FF0F8A95EAF78F2F8C
:102150000E9415140E943C1402C00E947D098F2D1C
:10216000815008F4BECFEFE9FFE03197F1F700C0EE
:102170000000F6CF0E5F1F4FFE01849190E2980F92
:10218000983050F48770FE2D01C0FF0F8A95EAF752
:102190008F2F0E941B14DECF0E94590AE0CF0E5FE2
:1021A0001F4FFE01C491C150D0F28FE99FE001970B
:1021B000F1F700C00000F7CF0E5F1F4FFE01F49053
:1021C000CECF08956093B8017093B9018093BA019E
:1021D0009093BB010C942F0DCF93DF9300D000D0D0
:1021E000CDB7DEB769837A838B839C838091B801F6
:1021F0009091B901A091BA01B091BB0129813A81B6
:102200004B815C81822B932BA42BB52B8093B8013F
:102210009093B901A093BA01B093BB010F900F90B6
:102220000F900F90DF91CF910C942F0DCF93DF93F0
:1022300000D000D0CDB7DEB769837A838B839C83CF
:102240008091B8019091B901A091BA01B091BB0100
:1022500029813A814B815C8182239323A423B52376
:102260008093B8019093B901A093BA01B093BB01D8
:102270000F900F900F900F90DF91CF910C942F0D36
:10228000CF93DF9300D000D0CDB7DEB769837A83D8
:102290008B839C838091B8019091B901A091BA0180
:1022A000B091BB0129813A814B815C8182279327C0
:1022B000A427B5278093B8019093B901A093BA01E0
:1022C000B093BB010F900F900F900F90DF91CF91C3
:1022D0000C942F0D1092B4011092B5011092B6011A
:1022E0001092B7010C942F0D41E050E060E070E0D7
:1022F00004C0440F551F661F771F8A95D2F740937D
:10230000B4015093B5016093B6017093B7010C947A
:102310002F0D282F81E090E0A0E0B0E004C0880FEE
:10232000991FAA1FBB1F2A95D2F74091B401509163
:10233000B5016091B6017091B701842B952BA62B46
:10234000B72B8093B4019093B501A093B601B093DD
:10235000B7010C942F0D41E050E060E070E004C044
:10236000440F551F661F771F8A95D2F740955095E9
:10237000609570958091B4019091B501A091B601DE
:10238000B091B70184239523A623B7238093B4018A
:102390009093B501A093B601B093B7010C942F0DA3
:1023A000282F81E090E0A0E0B0E004C0880F991FE2
:1023B000AA1FBB1F2A95D2F74091B4015091B501D5
:1023C0006091B6017091B70184279527A627B7279A
:1023D0008093B4019093B501A093B601B093B70177
:1023E0000C942F0DCF93DF9300D000D0CDB7DEB784
:1023F00069837A838B839C838091B4019091B5012A
:10240000A091B601B091B70129813A814B815C81DD
:10241000822B932BA42BB52B8093B4019093B50101
:10242000A093B601B093B7010F900F900F900F904B
:10243000DF91CF910C942F0DCF93DF9300D000D07C
:10244000CDB7DEB769837A838B839C838091B40197
:102450009091B501A091B601B091B70129813A815F
:102460004B815C8182239323A423B5238093B40101
:102470009093B501A093B601B093B7010F900F9060
:102480000F900F90DF91CF910C942F0DCF93DF938E
:1024900000D000D0CDB7DEB769837A838B839C836D
:1024A0008091B4019091B501A091B601B091B701AE
:1024B00029813A814B815C8182279327A427B52704
:1024C0008093B4019093B501A093B601B093B70186
:1024D0000F900F900F900F90DF91CF910C942F0DD4
:1024E0000895292F220FE22FE90FEE0FE80F8E2F0C
:1024F000877041E001C0440F8A95EAF7E695E695BA
:10250000E69585E0E89FF0011124E556FE4F30E0A6
:1025100020E070E05191DF011197CB01022E02C043
:10252000969587950A94E2F7817081958527842393
:1025300085278C932F5F3F4F2530310559F708953C
:10254000292F220FE22FE90FEE0FE80F9E2F977031
:10255000E695E695E69585E0E89FF0011124E556BD
:10256000FE4F50E040E080E0219130E0092E02C0B3
:10257000369527950A94E2F721703327042E01C07F
:10258000220F0A94EAF7822B4F5F5F4F45305105C7
:1025900059F70895BF92CF92DF92EF92FF920F9377
:1025A0001F93CF93DF938C01C090B401D090B501FD
:1025B000E090B601F090B7018091B8019091B90117
:1025C000A091BA01B091BB01C82AD92AEA2AFB2AF4
:1025D000CFE1D0E0BC2ED701C6010C2E04C0B695C9
:1025E000A795979587950A94D2F780FD0EC02197FD
:1025F00088F7B12C8B2DDF91CF911F910F91FF9018
:10260000EF90DF90CF90BF900895B8018C2F0E947B
:102610002205019761F3EECFCF93DF93D82FC92F17
:102620000E94CA126D2F7C2FDF91CF910C9422054E
:102630001F93CF93DF93162FD72F90916201992389
:1026400039F0862F972FDF91CF911F910C940C13A7
:10265000882391F0862F972F0E94CA12C82F682FC7
:10266000812F9D2F0E947112612F7D2F8C2FDF9162
:10267000CF911F910C942205862F972F0E94A012B4
:10268000C82FF2CF8091BC018595859585950895D9
:102690008091BC018770089598E0899F9001112472
:1026A000622B6093BC010C9489119091BC018095C0
:1026B00089238093BC01282F277061F4282F082ECE
:1026C000000C330B9217130629F085958595859597
:1026D0000C94AB1108959091BC01977081E009F4BE
:1026E00080E00895909112019923E1F090911202F7
:1026F00097FF18C0E82FE695E695E695EF3139F19A
:102700002091000130910101E20FF32FF11D87703C
:1027100021E030E001C0220F8A95EAF78181822B07
:10272000818308952091000130910101F9013296D1
:102730009FEF40E05191851751F09F3F19F45111DF
:1027400001C0942F4F5F4E31A9F79F3F09F40895C0
:10275000290F311D97FD3A95F901828308959091D3
:102760001201992301F19091120297FF1CC0E82FEA
:10277000E695E695E695EF3139F12091000130912B
:102780000101E20FF32FF11D877021E030E0A90174
:1027900002C0440F551F8A95E2F7CA0180959181C6
:1027A0008923818308952091000130910101F9016D
:1027B0003296205E3F4F9191891303C0DF0111973C
:1027C0001C92E217F307B9F7089581E090E0E091D9
:1027D0000001F0910101E80FF91F1082019680328B
:1027E0009105A9F708959091E001982B9093E0014D
:1027F0000895982F90958091E00189238093E001BE
:1028000008951092E00108959091DF01982B909324
:10281000DF010895982F90958091DF01892380939F
:10282000DF0108951092DF0108959091DE01982B49
:102830009093DE010895982F90958091DE01892371
:102840008093DE0108951092DE0108958093BD010A
:1028500008951092BD010895209100013091010169
:10286000F9013196205E3F4F80E0919191118F5F89
:10287000E217F307D1F70895E0910001F09101010B
:102880008091E0018083E0910001F091010180815D
:102890009091DF01892B8083E0910001F09101018B
:1028A00080819091DE01892B80839091BD019923D5
:1028B00061F0E0910001F09101018081892B80831A
:1028C0000E942C1481111092BD0180910001909101
:1028D00001010C9467086DEE7EEF90E080E00E94AD
:1028E000DA2160E082E090E00E94C82160E083E0AD
:1028F00090E00E94C82160E084E090E00E94C8213E
:1029000060E085E090E00C94C82190E080E00E94B7
:10291000C2219C0181E02D3E3E4F09F080E00895E8
:1029200082E090E00C94BA21682F82E090E00C9451
:10293000C82183E090E00C94BA21682F83E090E0F6
:102940000C94C82184E090E00C94BA21682F84E0B4
:1029500090E00C94C82180911802843039F11092D3
:10296000E20188E190E020E40FB6F894A895809306
:1029700060000FBE2093600080E00E94030583B7D3
:10298000817F846083BF83B7816083BF789488959B
:1029900083B78E7F83BF0FB6F894A89580916000AF
:1029A000886180936000109260000FBE08950895C2
:1029B0000895CF930E94D7140E94AB070E94D814A9
:1029C000C0E08C2F0E944F08811105C0CF5FC63038
:1029D000C1F7CF91089581E0FCCF0E94430D0E9482
:1029E0005B080C9403051F921FB61F9211248F934E
:1029F0009F93AF93BF938091E201811113C08091A7
:102A00000E0290910F02A0911002B0911102419616
:102A1000A11DB11D80930E0290930F02A09310028E
:102A2000B0931102BF91AF919F918F911F901FBEE4
:102A30001F90189582E084BD93E095BD9AEF97BDF5
:102A400080936E0008952FB7F89480910E029091B4
:102A50000F02A0911002B09111022FBF0895CF92E2
:102A6000DF92EF92FF929C014FB7F89480910E0293
:102A700090910F02A0911002B09111024FBF6C0112
:102A80007D01EE24FF24A90170E060E0C416D506A4
:102A9000E606F70638F0821B930BFF90EF90DF906D
:102AA000CF9008950197F7CF1F921FB61F92112460
:102AB0008F939F93AF93BF9380910E0290910F02DB
:102AC000A0911002B09111020196A11DB11D809339
:102AD0000E0290930F02A0931002B0931102BF91C7
:102AE000AF919F918F911F901FBE1F9018950E94CC
:102AF000631DF8942FEF87EA91E6215080409040C3
:102B0000E1F700C0000087E090EBDC018093210238
:102B100090932202A0932302B093240288E19CE0C8
:102B20000FB6F894A895809360000FBE9093600054
:102B3000FFCFCF92DF92EF92FF920F931F93CF932D
:102B4000C0E0E82EF12C8C2F0E944F0810E000E02E
:102B5000C82ED12CC601002E02C0959587950A94E7
:102B6000E2F780FF11C0602F7C2F80E00E940605F5
:102B7000E816F90649F481E0CF911F910F91FF907B
:102B8000EF90DF90CF9008950F5F1F4F0630110533
:102B900009F7CF5FC630B9F680E0EECFCF93C82FEC
:102BA0008CE20E949915882321F08C2FCF910C94F0
:102BB000991580E0CF910895CF93DF9300D000D096
:102BC000CDB7DEB70E948514811102C00E946B143C
:102BD00095E6998308C00E94AB078FE39CE90197B3
:102BE000F1F700C00000A981A150A983A111F3CF82
:102BF00089E20E94CE15811110C18AE20E94CE1591
:102C000081110E946B1485E00E94CE1581110E94F3
:102C100077150E9490148093E10187E00E94CE1501
:102C2000882371F08BE10E94CE15882309F4D1C06E
:102C30009091E101892F8D7F91FF82608093E10166
:102C40008091E1010E9494140E94A21490E090935C
:102C500013028093120280EE0E94CE15882341F069
:102C600090911202892F8E7F90FF816080931202D3
:102C700089E30E94CE15882341F090911202892F9A
:102C80008D7F91FF82608093120282EE0E94CE15AA
:102C9000882341F090911202892F8B7F92FF8460EC
:102CA0008093120286EE0E94CE15882341F0909107
:102CB0001202892F877F93FF88608093120283EE30
:102CC0000E94CE15882341F090911202892F8F7EA9
:102CD00094FF80618093120285E30E94CE158823C1
:102CE00041F090911202892F8F7D95FF8062809331
:102CF000120281E30E94CE15882341F090911202C6
:102D0000892F8F7B96FF80648093120281E10E945D
:102D1000CE15882341F090911202892F97FB87F9F5
:102D2000805880931202809112020E94A61487E2BA
:102D30000E94CE1589838EE10E94CE15882319F05A
:102D4000B981B260B9838FE10E94CE15882319F052
:102D500029812460298380E20E94CE15882319F0FE
:102D600039813860398381E20E94CE15882319F0B9
:102D700049814061498382E20E94CE15882319F07F
:102D800059815062598383E20E94CE15882319F03D
:102D900089818064898384E20E94CE158823B1F101
:102DA00099819068998389810E949D143981232F8C
:102DB00030E050E040E029833A834B835C83CA01D2
:102DC000B9010F900F900F900F90DF91CF910C945D
:102DD000E2108EE00E94CE15882339F09091E10137
:102DE000892F8B7F92FF846029CF80E10E94CE15CE
:102DF0009091E101882329F0892F877F93FF8860D4
:102E00001DCF892F8E7F90FF816018CFA981A111DE
:102E1000CACF0E949914282FCBCF0F900F900F90FC
:102E20000F90DF91CF9108958091E50180FF12C04E
:102E30006091050185E0689FB00111247595679543
:102E40007595679560387105A8F561157105A1F153
:102E5000862F089581FF09C06091050185E0689F74
:102E6000B001112475956795EDCF6091050182FD44
:102E70000AC08091E6018823D1F09091040160910D
:102E80000501891728F085E0689FB0011124DACF89
:102E9000869FB001112485E0869F9001879F300DA9
:102EA0001124692F70E0C9010E948C21CBCF65E00D
:102EB00070E0CECF8FE7089581E008958091E5011D
:102EC00080FF0CC06091030170E075956795759562
:102ED00067956115710549F1862F089581FF06C038
:102EE0006091030170E075956795F3CF60910301E0
:102EF00082FD0BC09091E6019923A1F0609102013F
:102F000080910301961738F0682F70E060387105E2
:102F100000F38FE70895899FC001112470E00E949B
:102F20008C21F4CF61E070E0D7CF81E00895803F3D
:102F300031F40E94141781958093E9010895813F2F
:102F400019F40E941417F8CF823F31F40E9414172D
:102F500081958093E8010895833F19F40E94141726
:102F6000F8CF893F29F40E945E178093EA01089503
:102F70008A3F21F40E945E178195F7CF8B3F31F491
:102F80000E945E1781958093EB0108958C3F19F4A0
:102F90000E945E17F8CF843F31F48091E701816091
:102FA0008093E7010895853F21F48091E7018260D5
:102FB000F7CF863F21F48091E7018460F1CF873F0E
:102FC00021F48091E7018860EBCF883F21F4809164
:102FD000E7018061E5CF8D3F31F48091E5018160AB
:102FE0008093E50108958E3F21F48091E501826090
:102FF000F7CF8F3FB9F78091E5018460F1CF9091D1
:10300000E801803F41F48091E90187FD1092E901D8
:10301000992371F00895813F29F48091E9011816F0
:10302000ACF3F6CF823F81F497FFF2CF1092E80124
:103030008091E9019091EA01892B9091EB01892B14
:1030400049F71092E6010895833F19F4191674F3B5
:10305000DFCF893F39F48091EA011816CCF610923F
:10306000EA01D6CF8A3F29F48091EA0187FFD0CFC9
:10307000F6CF8B3F39F48091EB0187FFC9CF1092D7
:10308000EB01C6CF8C3F29F48091EB011816BCF3FD
:10309000BFCF843F31F48091E7018E7F8093E701B9
:1030A000B7CF853F21F48091E7018D7FF7CF863F31
:1030B00021F48091E7018B7FF1CF873F21F480914C
:1030C000E701877FEBCF883F21F48091E7018F7E76
:1030D000E5CF8D3F31F48091E5018E7F8093E5014E
:1030E00097CF8E3F21F48091E5018D7FF7CF8F3F01
:1030F00009F08ECF8091E5018B7FF0CF87EE91E0D4
:103100000E9472080E9423159093E4018093E301CA
:1031100008951F93CF93DF9300D000D000D0CDB798
:10312000DEB78091E3019091E4010E942F15AC017C
:103130008091E6012091060130E0811106C02091C6
:1031400007019AE0299F900111244217530788F044
:103150002091E801A091E901A9831091EA01B091C1
:10316000EB01BE8321110FC09A2F912B9B2B09F0ED
:10317000B2C026960FB6F894DEBF0FBECDBFDF916A
:10318000CF911F9108958F3F19F08F5F8093E601D3
:10319000121624F40E9414178093E8018091E8012C
:1031A00087FF05C00E94141781958093E80129814B
:1031B000121624F40E9414178093E9018091E9010A
:1031C00087FF05C00E94141781958093E9018091C3
:1031D000E801882309F455C03091E9013D83332388
:1031E00009F44FC0282F880F330B440B550B29834C
:1031F0003A834B835C83CA01B9010E94932023E385
:1032000033E343E35FE369837A838B839C83698140
:103210007A818B819C810E94F72069837A838B83DA
:103220009C8369817A818B819C810E945B20609361
:10323000E8018D81082E000C990BAA0BBB0B89832A
:103240009A83AB83BC83BC01CD010E94932023E30E
:1032500033E343E35FE369837A838B839C836981F0
:103260007A818B819C810E94F72069837A838B838A
:103270009C8369817A818B819C810E945B20609311
:10328000E901111624F40E945E178093EA018091EF
:10329000EA0187FF05C00E945E1781958093EA01CD
:1032A0009E81191624F40E945E178093EB01809191
:1032B000EB0187FF05C00E945E1781958093EB01AB
:1032C00026960FB6F894DEBF0FBECDBFDF91CF912B
:1032D0001F910C947E188F3F09F057CF68CF85E07F
:1032E000E7EEF1E0DF011D928A95E9F71092E60121
:1032F0001092E501089580910C020895CF93DF9319
:1033000000D00F92CDB7DEB720911802243019F506
:1033100023E029838A839B832093E9008FEF909198
:10332000E800815095FD06C095ED9A95F1F70000F3
:103330008111F5CF8091E80085FF0DC050E040E09D
:1033400063E070E0CE0101960E94DB1B8091E800F3
:103350008E778093E8000F900F900F90DF91CF91C0
:103360000895CF93DF9300D00F92CDB7DEB79C01C5
:1033700080911802843031F582E089832058310928
:103380003B832A8383E08093E9008FEF9091E800EC
:10339000815095FD06C095ED9A95F1F700008111D9
:1033A000F5CF8091E80085FF0DC050E040E063E07C
:1033B00070E0CE0101960E94DB1B8091E8008E77C1
:1033C0008093E8000F900F900F90DF91CF910895B8
:1033D000209118022430F1F422E02093E9002FEF2D
:1033E0003091E800215035FD06C035ED3A95F1F7F2
:1033F00000002111F5CF2091E80025FF0BC050E01F
:1034000040E065E070E00E94DB1B8091E8008E7771
:103410008093E8000895CF93DF93D82FC92F809130
:1034200018028430F1F4909112019923E9F09091FF
:10343000120297FF19C08093E9008FEF9091E80086
:10344000815095FD06C095E19A95F1F70000811134
:10345000F5CF8091E80050E040E060E270E085FD4B
:103460001AC0DF91CF91089581E08093E9008FEF3A
:103470009091E800815095FD06C095ED9A95F1F781
:1034800000008111F5CF8091E80085FFEACF50E080
:1034900040E068E070E08D2F9C2F0E94DB1B809144
:1034A000E8008E778093E80080E2ED2FFC2FACEEF1
:1034B000B1E001900D928A95E1F7D3CF8091170288
:1034C000811109C00E94631D0E94C01D8091E2000D
:1034D00084608093E2000895109217020895089581
:1034E00008950C94ED1442E061EC81E00E94DF1C31
:1034F00042E061EC82E00E94DF1C42E061EC83E08C
:103500000E94DF1C42E261EC84E00C94DF1C80919D
:103510001A02893089F148F4823009F494C083306A
:1035200009F44FC0813041F008958A3009F47BC01E
:103530008B3009F461C0089580911902813A09F035
:103540003FC08091E800877F8093E80080911D0252
:1035500090911E02892B61F460E28CEE91E070E0A4
:103560000E942A1C8091E8008B778093E8000895E0
:1035700060E090E080E0F3CF80911902813201F5A4
:1035800080911D0290911E02009711F00397C1F4E3
:103590008091E800877F8093E8008091E80082FFB7
:1035A0000BC08091F10080930C028091E8008B7732
:1035B0008093E8000C94131D809118028111EDCFC7
:1035C000089580911902813AD9F780911D02909156
:1035D0001E02892BA9F78091E800877F8093E8007D
:1035E0008091E80080FFFCCF809112018093F10070
:1035F0008091E8008E77DCCF80911902813201F74B
:1036000080911D0290911E02892BD1F68091E800D5
:10361000877F8093E8000E94131D80911B02809396
:1036200012010C94430D80911902813249F6809168
:10363000E800877F8093E8000E94131D80911C02A0
:1036400080930D02089580911902813A09F0B8CF54
:103650008091E800877F8093E8008091E80080FFF8
:10366000FCCF80910D02C2CF84B7877F84BF0FB695
:10367000F894A89580916000886180936000109212
:1036800060000FBE80E880936100109261000E948C
:10369000AA080E94631D0E94C01D8091E200846000
:1036A0008093E20078940E9440200E94AC0888E059
:1036B00091E00E94560880911802853019F00E940E
:1036C000B208F9CF0E94AB1480911602882399F3B7
:1036D0000E94D914882379F30E94C51BECCF9C016A
:1036E000DA01892F992783309105C1F068F4813080
:1036F000910509F445C0029761F48DE690E02CE550
:1037000035E02D933C93089581329105E1F0829745
:1037100039F190E080E030E020E0F3CFC901992753
:10372000213059F08230910559F0E8E5F5E0892B18
:1037300081F7849190E09F01E4CFE0E4F5E0F9CFD8
:10374000ECE2F5E0F6CF643020F7E62FF0E0EE0F84
:10375000FF1FE55DFE4F2081318189E090E0D1CFF0
:103760006430B8F670E0FB01EE0FFF1FED5DFE4F19
:1037700020813181615E7E4FFB01808190E0C1CF6D
:1037800082E190E029EC35E0BCCF80E189BD82E1A7
:1037900089BD09B400FEFDCF8091D8008F7D809354
:1037A000D8008091E00082608093E0008091E0008A
:1037B00081FDFCCF0895AF92BF92CF92DF92FF922E
:1037C0000F931F93CF93DF936C01EB018A010E944B
:1037D000321DF82E811123C00115110539F0F801B1
:1037E00080819181C81BD90BC80ED91EB12CA12C88
:1037F0002097A9F08091E80085FD22C08091E80023
:103800008E778093E80001151105A1F0F801808101
:103810009181A80EB91EB182A08285E0F82E8F2D6D
:10382000DF91CF911F910F91FF90DF90CF90BF90CC
:10383000AF9008950E94321D8823D1F2F82EEFCF69
:10384000F60181916F018093F1002197FFEFAF1A8C
:10385000BF0ACECFFC01CB0120911F023091200284
:103860002617370790F0009729F42091E8002E776B
:103870002093E80040E0009751F4411108C0809186
:10388000E80082FF31C080E00895C901F3CF2091A4
:1038900018022223A9F12530A9F12091E80023FD87
:1038A0002DC02091E80022FDEACF2091E80020FF02
:1038B000E2CF3091F3002091F200009719F0283008
:1038C000310558F041E02830310509F040E0209101
:1038D000E8002E772093E800CECF41914093F1008D
:1038E00001972F5F3F4FE9CF80911802882341F065
:1038F000853041F08091E80083FFC1CF81E00895D9
:1039000082E0089583E00895FC01CB0120911F021D
:10391000309120022617370790F0009729F4209164
:10392000E8002E772093E80040E0009751F4411121
:1039300008C08091E80082FF32C080E00895C9018C
:10394000F3CF209118022223B1F12530B1F120915B
:10395000E80023FD2EC02091E80022FDEACF20914F
:10396000E80020FFE2CF3091F3002091F2000097B1
:1039700019F02830310558F041E02830310509F0C0
:1039800040E02091E8002E772093E800CECF4491CC
:103990004093F100319601972F5F3F4FE8CF809120
:1039A0001802882341F0853041F08091E80083FFC0
:1039B000C0CF81E0089582E0089583E00895982FB4
:1039C000973028F08F708093E90081E008959093FC
:1039D000E900242F762F50E0981731F07091EC0019
:1039E0002091ED005091F00021FD02C09F5FE8CFD3
:1039F0003091EB003E7F3093EB003091ED003D7F46
:103A00003093ED003091EB0031603093EB00709318
:103A1000EC002093ED005093F0002091EE0027FD84
:103A2000E5CF80E008958091190287FF13C080914F
:103A3000E80082FF06C08091E8008B778093E80061
:103A400004C0809118028111F2CF0895809118026C
:103A50008823D9F38091E80080FFF8CF8091E800B7
:103A60008E77ECCF2091E4003091E50095E6A90136
:103A70002091EC00822F817020FF06C08091E80029
:103A800080FF06C080E008952091E80022FD1AC062
:103A900080911802882389F0853089F08091EB00AD
:103AA00085FD0FC02091E4003091E50042175307D7
:103AB000F9F29150E1F684E0089582E0089583E000
:103AC000089581E008950E94D11D0E94D91DE0EE65
:103AD000F0E0808181608083E8EDF0E080818F7785
:103AE000808319BCA7EDB0E08C918E7F8C93808190
:103AF0008F7E80831092170208950F931F93CF93A8
:103B0000DF930E94D11D0E94D91DC8EDD0E08881AD
:103B10008F77888388818068888388818F7D888378
:103B200019BC1092180210921402109216021092F0
:103B3000150200EE10E0F80180818B7F8083888180
:103B40008160888342E060E080E00E94DF1CE1EE5B
:103B5000F0E080818E7F8083E2EEF0E08081816002
:103B60008083808188608083F80180818E7F80835C
:103B7000888180618883DF91CF911F910F91089593
:103B8000E8EDF0E080818F7E8083E7EDF0E08081DA
:103B90008160808384E082BF81E0809317020C946F
:103BA0007D1DE8EDF0E080818E7F80831092E20041
:103BB00008951092DA001092E10008951F920F927A
:103BC0000FB60F9211242F933F934F935F936F93F0
:103BD0007F938F939F93AF93BF93EF93FF938091C6
:103BE000E10082FF0BC08091E20082FF07C080915C
:103BF000E1008B7F8093E1000E943F208091DA00FA
:103C000080FF19C08091D80080FF15C08091DA0034
:103C10008E7F8093DA008091D90080FF94C080E18C
:103C200089BD82E189BD09B400FEFDCF81E08093AA
:103C300018020E945E1A8091E10080FF19C08091F5
:103C4000E20080FF15C08091E2008E7F8093E20049
:103C50008091E20080618093E2008091D8008062D0
:103C60008093D80019BC85E0809318020E94701AD6
:103C70008091E10084FF29C08091E20084FF25C08B
:103C800080E189BD82E189BD09B400FEFDCF80914C
:103C9000D8008F7D8093D8008091E1008F7E809343
:103CA000E1008091E2008F7E8093E2008091E2004B
:103CB00081608093E20080911402882309F449C056
:103CC00084E0809318020E94711A8091E10083FFC2
:103CD00029C08091E20083FF25C08091E100877FA9
:103CE0008093E10082E08093180210921402809188
:103CF000E1008E7F8093E1008091E2008E7F8093CF
:103D0000E2008091E20080618093E20042E060E0A6
:103D100080E00E94DF1C8091F00088608093F000BA
:103D20000E946F1AFF91EF91BF91AF919F918F9178
:103D30007F916F915F914F913F912F910F900FBEA7
:103D40000F901F90189519BC109218020E946C1ABF
:103D500072CF8091E30087FD02C081E0B2CF83E0A3
:103D6000B0CF1F920F920FB60F9211242F933F9353
:103D70004F935F936F937F938F939F93AF93BF9373
:103D8000CF93DF93EF93FF93D091E900DF708091A1
:103D9000EC00C82FC17080FDC0E81092E90080914E
:103DA000F000877F8093F00078940E94F51E1092B7
:103DB000E9008091F00088608093F000CD2BCF70F7
:103DC000C093E900FF91EF91DF91CF91BF91AF9147
:103DD0009F918F917F916F915F914F913F912F9123
:103DE0000F900FBE0F901F9018951F93CF93DF93E6
:103DF000CDB7DEB7AA970FB6F894DEBF0FBECDBF22
:103E000089E192E0FC0101962091F100208322E0FB
:103E100081329207B9F70E94871A8091E80083FFE8
:103E200016C18091190290911A029A3008F00FC1C0
:103E3000E92FF0E0EC5EFD4D0C94A021803881F07C
:103E4000823809F004C180911D028F708093E900CF
:103E50008091EB0085FB882780F91092E90006C06D
:103E60008091150290911602911182609091E80064
:103E7000977F9093E8008093F1001092F100809179
:103E8000E8008E77E0C0882309F4CEC0823009F0C4
:103E9000DEC080911B028111D1C080911D028F7004
:103EA00009F4D5C08093E9002091EB0020FFC6C043
:103EB000933031F48091EB0080628093EB00BEC0C0
:103EC0009091EB0090619093EB0021E030E001C015
:103ED000220F8A95EAF72093EA001092EA00809177
:103EE000EB008860EACF8111B2C010911B021F77EE
:103EF0008091E3008078812B8093E3008091E8003B
:103F0000877F8093E8000E94131D8091E80080FF66
:103F1000FCCF8091E30080688093E30082E0111180
:103F200083E08093180293C08058823008F08FC0DD
:103F300080911B0290911C028C3D23E09207A1F519
:103F400083E08A838AE289834FB7F894DE0113966F
:103F500020E03EE051E2E32FF0E050935700E4917F
:103F600020FF03C0E295EF703F5FEF708E2F90E06F
:103F7000EA30C0F0C7968D939D932F5F243159F797
:103F80004FBF8091E800877F8093E8006AE270E08D
:103F9000CE0101960E942A1C8091E8008B778093C5
:103FA000E80055C0C096E7CFAE014F5F5F4F60910C
:103FB0001D020E946F1BBC01892B09F448C080912F
:103FC000E800877F8093E80089819A810E94841CA1
:103FD000E3CF8038E1F58091E800877F8093E800A7
:103FE000809114028093F1004ACF811130C09091EA
:103FF0001B02923060F58091E800877F8093E80093
:10400000909314020E94131D80911402882311F0D2
:1040100084E005C08091E30087FDFACF81E08093C2
:1040200018020E94731A13C080911B02813079F428
:1040300081E0933009F080E0809316021092E9004D
:104040008091E800877F8093E8000E94131D809193
:10405000E80083FF0AC08091E800877F8093E80032
:104060008091EB0080628093EB00AA960FB6F894E3
:10407000DEBF0FBECDBFDF91CF911F910895089590
:10408000CF93809118028823A1F0C091E900CF70EE
:104090009091EC00892F817090FD80E8C82B1092E0
:1040A000E9008091E80083FD0E94F51ECF70C09367
:1040B000E900CF9108950E9462206894B1110C9498
:1040C000F12008950E94D62088F09F5798F0B92FCC
:1040D0009927B751B0F0E1F0660F771F881F991F3D
:1040E0001AF0BA95C9F714C0B13091F00E94F020CF
:1040F000B1E008950C94F020672F782F8827B85FDF
:1041000039F0B93FCCF3869577956795B395D9F794
:104110003EF490958095709561957F4F8F4F9F4F9E
:104120000895E89409C097FB3EF4909580957095AA
:1041300061957F4F8F4F9F4F9923A9F0F92F96E9F3
:10414000BB279395F695879577956795B795F11168
:10415000F8CFFAF4BB0F11F460FF1BC06F5F7F4F05
:104160008F4F9F4F16C0882311F096E911C0772317
:1041700021F09EE8872F762F05C0662371F096E820
:10418000862F70E060E02AF09A95660F771F881FEF
:10419000DAF7880F9695879597F9089557FD905807
:1041A000440F551F59F05F3F71F04795880F97FBFB
:1041B000991F61F09F3F79F08795089512161306B5
:1041C0001406551FF2CF4695F1DF08C016161706E4
:1041D0001806991FF1CF8695710561050894089519
:1041E000E894BB2766277727CB0197F908950E94AB
:1041F0000A210C947B210E946D2138F00E947421C9
:1042000020F0952311F00C9464210C946A21112460
:104210000C94F1200E94CE2070F3959FC1F3950F6E
:1042200050E0551F629FF001729FBB27F00DB11D3A
:10423000639FAA27F00DB11DAA1F649F6627B00DCA
:10424000A11D661F829F2227B00DA11D621F739FB3
:10425000B00DA11D621F839FA00D611D221F749FC1
:104260003327A00D611D231F849F600D211D822F08
:10427000762F6A2F11249F5750409AF0F1F088232F
:104280004AF0EE0FFF1FBB1F661F771F881F91505C
:104290005040A9F79E3F510580F00C9464210C9486
:1042A000F1205F3FE4F3983ED4F3869577956795C8
:1042B000B795F795E7959F5FC1F7FE2B880F911D86
:1042C0009695879597F9089597F99F6780E870E02C
:1042D00060E008959FEF80EC089500240A9416167C
:1042E000170618060906089500240A9412161306E4
:1042F000140605060895092E0394000C11F4882372
:1043000052F0BB0F40F4BF2B11F460FF04C06F5F8D
:104310007F4F8F4F9F4F089597FB072E16F4009401
:1043200007D077FD09D00E94A62107FC05D03EF4F6
:10433000909581959F4F0895709561957F4F089551
:10434000EE0FFF1F0590F491E02D0994AA1BBB1BF3
:1043500051E107C0AA1FBB1FA617B70710F0A61B85
:10436000B70B881F991F5A95A9F780959095BC01A6
:10437000CD010895F999FECF92BD81BDF89A992794
:1043800080B50895A8E1B0E042E050E00C94E2214D
:10439000262FF999FECF92BD81BDF89A019700B4FE
:1043A000021639F01FBA20BD0FB6F894FA9AF99A9E
:1043B0000FBE08950196272F0E94C9210C94C82191
:1043C000DC01CB01FC01F999FECF06C0F2BDE1BDD5
:1043D000F89A319600B40D9241505040B8F70895C4
:1043E000F894FFCF6E047A047E04820486048A0463
:1043F0008E04920496049A049E04A204A604AA04BD
:10440000AE04B204B604BA04EE0AEE0A460B460B3A
:104410008A0BA60B1E0B1E0BB10B1E0B790C790C15
:10442000E40C1E0B1E0BED0C1E1F431F2720431F09
:0C4430002720731F941F2720E91FF51F91
:10443C00BE012808140A321E7B190B1AE819B1198F
:10444C007E1901913534F43136F590326697C640B9
:10445C004D363997064A061406DB056E058705A00E
:04446C0005B9050089
:00000001FF
