:100000000C94ED040C9434050C9434050C943405D4
:100010000C9434050C9434050C9434050C9434057C
:100020000C9434050C9434050C947B2D0C944D2EBB
:100030000C94FD270C9434050C9434050C94340571
:100040000C9434050C9434050C9434050C9434054C
:100050000C9434050C9456280C9434050C943405F7
:100060000C9434050C9434050C9434050C9434052C
:100070000C9434050C9434050C9434050C9434051C
:100080000C9434050C9434050C9434050C9434050C
:100090000C9434050C9434050C9434050C943405FC
:1000A0000C9434050C9434050C94340579167C16A4
:1000B0009C16AD16B516C016C316C616C9160F1770
:1000C0000F17CC16CF16D416E116EE16F116F5164C
:1000D0000217AA1DAA1DDC1DDC1D291E471E681F54
:1000E000681F521EE71EF81EF81E581F681F681F63
:1000F000611F082008201A201A2011201A201A2017
:100100001A200820082016201A201A201620BA2E9D
:10011000E12ED92FE12ED92F2D2F502FD92FA72FF8
:10012000B62F2900E000E1001C000B002C12146423
:1001300004001D0018000D0011411A0016001B6874
:100140000C000E00100008000700060012000F004F
:10015000360015000900194313002D003700170061
:100160000A0005422A0028002C002B00E000E100D4
:1001700023002E0201001E001E02010024002D009B
:1001800001001F001F0201002500250201002000C0
:100190002002010026003800010021002102010098
:1001A00027002E0001002200220201002A00280060
:1001B0002C002B00E000E1003F00500001003A005D
:1001C0002F002D024000510001003B0030003102A1
:1001D0004100520001003C003100230242004F0068
:1001E00001003D00330035024300380201003E00AB
:1001F00033020100005C28002C0001000100010016
:100200000100C85C01000100C25C01000100C95C82
:1002100001000100C35C01000100CA5C0100010093
:10022000C55C01002602010001000100C65C01005E
:100230002702010001000100C75C0100010001006C
:1002400001000100010001000100010001000100A6
:100250000100010001000100010001000100010096
:100260000100010001000100010001000100010086
:100270000100010001000100010001000100010076
:1005A000010000000000000000002A2B28000000CD
:1005B0000000000000000000000000000029000012
:1005C00000002C1E3420212224342627252E362DEF
:1005D0003738271E1F202122232425263333362E89
:1005E00037381F0405060708090A0B0C0D0E0F10FB
:1005F0001112131415161718191A1B1C1D2F313040
:10060000232D350405060708090A0B0C0D0E0F10E3
:100610001112131415161718191A1B1C1D2F31301F
:10062000354C000000000000000000000000000049
:1006300000000000000000000000000000000000BA
:100640000000000000007E0F00D4FFFFFFC7000085
:1006500000781E0F0500047F3F1F643214643214BB
:10066000783C1E1E140A052223252628292A2C2D13
:100670002F3032333536383A3B3D3E4042434547D2
:10068000494A4C4E5051535557595A5C5E6062640A
:100690006668696B6D6F71737577797B7D7F818318
:1006A0008587898A8C8E90929496989A9C9E9FA119
:1006B000A3A5A7A8AAACAEAFB1B3B4B6B8B9BBBC3A
:1006C000BEBFC1C2C3C5C6C7C9CACBCCCDCED0D1AF
:1006D000D2D2D3D4D5D6D7D7D8D9D9DADADBDBDBA7
:1006E000DCDCDCDCDCDDDDDDDDDCDCDCDCDCDBDB48
:1006F000DBDADAD9D9D8D7D7D6D5D4D3D2D2D1D09C
:10070000CECDCCCBCAC9C7C6C5C3C2C1BFBEBCBB98
:10071000B9B8B6B4B3B1AFAEACAAA8A7A5A3A19F10
:100720009E9C9A98969492908E8C8A8987858381D4
:100730007F7D7B79777573716F6D6B6968666462B5
:10074000605E5C5A5957555351504E4C4A49474583
:100750004342403E3D3B3A3836353332302F2D2C24
:100760002A292826252322FFAA7F554000010101BE
:10077000010101010101020202020202020202035E
:10078000030303030303030404040404040405052E
:1007900005050506060606060707070707080808F1
:1007A00008090909090A0A0A0B0B0B0C0C0C0D0DA0
:1007B0000D0E0E0E0F0F0F10101111111212131338
:1007C0001414151516161717181819191A1A1B1BB1
:1007D0001C1D1D1E1E1F202021222223242425260D
:1007E00026272829292A2B2C2D2D2E2F3031323245
:1007F000333435363738393A3B3C3D3E3F40414251
:10080000434445464748494A4C4D4E4F5051535436
:10081000555658595A5B5D5E5F61626465666869EA
:100820006B6C6D6F7072737577787A7B7D7E80826A
:10083000838587888A8C8E8F91939596989A9C9EB3
:10084000A0A2A3A5A7A9ABADAFB1B3B5B7BABCBEC3
:10085000C0C2C4C6C9CBCDCFD1D4D6D8DBDDDFE290
:10086000E4E7E9EBEEF0F3F5F8FAFDFF12036300BD
:100870006F006F006C00380033003600530000003A
:100880000A036D002E006B006900000004030904D8
:1008900009025B00030100A0FA0904000001030142
:1008A0000100092111010001224000070581030810
:1008B000000A0904010002030000000921110100DF
:1008C00001222200070582032000010705030320FF
:1008D00000010904020001030000000921110100C8
:1008E00001227B000705840320000A120110010089
:1008F000000008EDFE60600100010200010660FFDB
:100900000961A1010962150026FF00952075088183
:10091000020963150026FF00952075089102C005A5
:10092000010902A10185020901A100050919012996
:100930000815002501950875018102050109300996
:10094000311581257F9502750881060938158125A5
:100950007F950175088106050C0A38021581257FEF
:10096000950175088106C0C005010980A1018503B4
:1009700019012AB700150126B700950175108100ED
:10098000C0050C0901A101850419012AA002150165
:1009900026A002950175108100C005010906A1017C
:1009A000050719E029E71500250195087501810261
:1009B0009501750881010507190029FF150026FF1B
:1009C000009506750881000508190129059505752A
:1009D000019102950175039101C011241FBECFEF53
:1009E000DAE0DEBFCDBF04B603FE27C08091D2029D
:1009F0009091D302A091D402B091D5028730904B50
:100A0000A740B04BD1F41092D2021092D3021092B0
:100A1000D4021092D50214BE84B7877F84BF0FB66C
:100A2000F894A8958091600088618093600010928E
:100A300060000FBEE0E0F8E3099511E0A0E0B1E04E
:100A4000E2E0F3E602C005900D92A43DB107D9F7AC
:100A500022E0A4EDB1E001C01D92A23DB207E1F792
:100A60000E943C2A0C947F310C94000081E0089590
:100A700081E008950C94380508950C943C051F936B
:100A8000CF93DF9300D000D01F92CDB7DEB749835C
:100A90005A836B833091290289819A81311114C064
:100AA000662359F0222349F00E944325182F682F0E
:100AB00089819A810E94EA2403C00E941625182F7A
:100AC00069817A81812F04C00E94432569817A81DE
:100AD0000F900F900F900F900F90DF91CF911F917B
:100AE0000C94E117FC01262F4081518162817381B2
:100AF00084810C943F05CF93DF93EC0160E00E946A
:100B00007205BE01DF91CF910C943D058F929F92AB
:100B1000AF92BF92CF92DF92EF92FF920F931F930B
:100B20006B017C0181E090E0A0E0B0E04C015D0150
:100B300004C0880C991CAA1CBB1C4A95D2F7AC01B6
:100B4000BD0104C0440F551F661F771F2A95D2F7B9
:100B5000482959296A297B2904C0880F991FAA1F8F
:100B6000BB1F0A95D2F78A019B010C211D212E2162
:100B70003F21401751076207730739F4BC01CD01CB
:100B80006C297D298E299F290AC080959095A09572
:100B9000B095BC01CD016C217D218E219F211F913B
:100BA0000F91FF90EF90DF90CF90BF90AF909F900C
:100BB0008F9008950F93382F262F60917B027091AC
:100BC0007C0280917D0290917E02042F432F0E942F
:100BD00086050F910C9426240E9457090C949109C4
:100BE0000C948D0908950E94F61F0E94F2052FEFC4
:100BF00084E39CE0215080409040E1F700C0000079
:100C00000C947C280F931F93CF93DF938C0161E0AA
:100C10000E947205EC01B8010E94D115882309F4E5
:100C20004BC0B801CE010E943A05882309F444C0A4
:100C3000B801CE010E9416198823F1F1B801CE0146
:100C40000E9468198823C1F1B801CE010E94931A4D
:100C5000882391F1B801CE010E947A14882361F1B2
:100C6000F8018281882309F1CA358DE5D807C1F0E2
:100C700050F4C115FCE5DF0781F0CE3DDC45A9F459
:100C80000E94542719C0CB35EDE5DE0761F0CC3565
:100C9000DD4559F40E94D62508C00E94F3050CC01A
:100CA0000E94DF2502C00E94E225C801DF91CF919A
:100CB0001F910F910C94360580E0DF91CF911F9129
:100CC0000F910895DF92EF92FF920F931F93CF93AE
:100CD000DF93E82FF0E0EE55FA4FD490282F2695B9
:100CE0002695269530E0F901EE5BF94F0491877067
:100CF00010E0082E02C0159507950A94E2F70170DE
:100D00001127F901EE5CF94FE490F12C082E02C096
:100D1000F594E7940A94E2F791E0E922FF24F901BF
:100D2000EE5DF94FC491D0E002C0D595C7958A9584
:100D3000E2F7C170DD270115110519F081EE0E945F
:100D4000371CE114F10419F086EE0E94371C8D2D3A
:100D50000E94601DEF2819F086EE0E94E11C012B15
:100D600019F081EE0E94E11CCD2B51F08CE2DF9155
:100D7000CF911F910F91FF90EF90DF900C94601D29
:100D8000DF91CF911F910F91FF90EF90DF90089529
:100D9000EF92FF920F931F93CF93DF93EC01162FE7
:100DA0000AE08881882309F455C0813009F043C0E6
:100DB0008981813041F47E0182E0E80EF11C8A8154
:100DC0000E94601D09C0823049F47E01E2E0EE0E0F
:100DD000F11C8A810E94371CE7012FC0833041F447
:100DE0007E01F2E0EF0EF11C8A810E94E11CF4CF3B
:100DF000843011F0219621C02A81229680E090E073
:100E000030E0205331092A30310558F4089FA00101
:100E1000099F500D1124C901840F951F2196288127
:100E2000EFCF009751F0EFE9FFE03197F1F700C005
:100E300000000197F6CF0E9462062196812F882339
:100E400009F4AFCFEFE9FFE03197F1F700C0000000
:100E50008150F5CFDF91CF911F910F91FF90EF90CF
:100E6000089560E00C94C80608950C94340781E05E
:100E700008950C943707CF93C82F0E9435078C2F05
:100E80000E943907CF91089580E090E00895089579
:100E9000880F991FFC01EE5AF94F8591949108959E
:100EA000CF93DF930E94E1170E946808EC0181153F
:100EB000904508F041C0C11580E4D80708F0D1C0C2
:100EC000C83ED10510F5C03ED10508F0FDC0C83AB6
:100ED000D10578F4C53AD10508F0A2C0C130D105DA
:100EE00009F4F2C008F4EEC0C430D10508F0ECC03B
:100EF000E9C0CF3BD10508F49BC0C03CD10508F444
:100F0000E1C0CE01805C91099EC0C11590E2D90775
:100F100058F4C11521E0D20708F0D6C0C03FD10572
:100F200008F4D0C0D065D0C0C11580E3D80708F060
:100F30008EC0CE019F7087C0C11595E5D90708F016
:100F400043C0C11524E5D20708F0A2C0C11582E54F
:100F5000D80708F5C11591E5D90708F085C0CE017D
:100F600074E0969587957A95E1F783709C2F93703E
:100F700021E030E002C0220F331F9A95E2F73C686F
:100F8000382BCF70C695C69580E2C89FE00111242A
:100F9000C22BD32B99C09E01237033278C2F8695AB
:100FA0008695C115D34508F064C0C1E0D0E002C009
:100FB000CC0FDD1F2A95E2F720E2829FC0011124A9
:100FC000C82BD92BDC6880C0C11529E5D207A0F455
:100FD000C11588E5D80708F060C0C11596E5D907A6
:100FE00008F070C08C2F0E94FC088F71C82FD0E0D1
:100FF000DC2FCC27D06268C0C1152AE5D20708F4DF
:1010000051C0CE0190568115904208F05BC08D2FE3
:101010008F710E94FC08DD27D0628F71D82B54C0DD
:10102000C55AD0E0C65ADE4FC881D0E0D0644CC06B
:10103000C85AD0E0CC0FDD1FC45DDE4F0990D881C7
:10104000C02DD46441C00E944807EC013DC0CE01D0
:101050009927D3FF03C0EC01D86C36C0EC01D06CEB
:1010600033C0DF70D06A30C0DC2FCC27C16FD06AAC
:101070002BC0C1E0D0E002C0CC0FDD1F2A95E2F703
:1010800020E2829FC0011124C82BD92BDA681CC032
:10109000DC2FCC27C46FD06A17C0DC2FCC27C06FE1
:1010A000D06A12C08C2F8F700E94FC0894E0D695F5
:1010B000C7959A95E1F7CF70D0E0DC2FCC27D069A7
:1010C000C82B02C0C0E0D0E0CE01DF91CF910895DF
:1010D0008238910569F1B0F48133910509F46DC04E
:1010E00048F48932910509F463C08A32910509F404
:1010F00069C008958533910509F455C08933910578
:10110000B9F00895833E910569F138F4803E910568
:10111000B1F0823E910509F10895863E9105A9F14D
:10112000873E9105B9F1843E910509F064C023C062
:1011300020919C0220FD4FC021FD4DC0089580915B
:101140009C0280FD44C080919D0280FF44C080913C
:101150009C0284FD42C083EE4DC080919C0282FFC0
:1011600038C0F5CF80919C0282FD33C080919D02F2
:1011700080FD31C0ECCF80919D0281FF32C0809113
:101180009C0284FD2AC087EE35C080919C0283FFBB
:1011900026C0F5CF80919C0283FD21C080919D02E5
:1011A00081FD1FC0ECCF80919C0285FD1CC01DC03D
:1011B00080919C0285FD19C016C080919C0286FD1D
:1011C00016C017C080919C0286FD13C010C089E331
:1011D00011C082EE0FC080EE0DC080E00BC086EE25
:1011E00009C084EE07C089E205C085E303C08AE236
:1011F00001C081E390E0089590919C0292FF0DC0A0
:10120000282F2871283019F4877F846006C0282F82
:101210002471243011F48B7F886093FF0DC0282F38
:101220002871283119F4877E846106C0282F247123
:10123000243111F48B7E886120919D0220FF0DC026
:10124000382F3871383019F4877F816006C0382F05
:101250003171313011F48E7F886021FF0DC0282F4D
:101260002871283119F4877E816106C0282F2171E9
:10127000213111F48E7E886194FD877E08950C944F
:10128000AB150E94D0098FE39CE90197F1F700C0EC
:1012900000000E94D00980E00E947B0980FF04C00A
:1012A0000E943F090C947C2808950C9441090E94E7
:1012B000AC26811102C00E9454270E94B726809359
:1012C00090020E94BF2690939D0280939C020E94F0
:1012D00055090E94BB26682F70E080E090E00E94D4
:1012E000EC2360917B0270917C0280917D02909151
:1012F0007E020C942424E82FF0E0EC55FD4F808111
:101300000895089580EA8A95F1F7089500C0089538
:101310000C94820908950C948A090C948B090C94FE
:101320008A090C948F09F894E82FE295EF70F0E0A9
:1013300031A1282F2F7081E090E001C0880F2A95FD
:10134000EAF7982F9095932391A392A1892B82A3DA
:1013500078940895CF93DF93C3E6D1E089910E94FA
:10136000930981E0C936D807C9F7CDE5D1E0899165
:101370000E94930981E0C336D807C9F7EEE9F2E08D
:10138000A4EAB2E084EA92E011921D928E179F07C0
:10139000D9F786E00E94550ADF91CF910C94EC05B5
:1013A0008F929F92AF92BF92CF92DF92EF92FF9275
:1013B0000F931F93CF93DF9383E6A82E81E0B82E7F
:1013C000CEE9D2E099E6E92E91E0F92E912C01E0E8
:1013D00010E06501F5018081F894E82FE295EF7047
:1013E000F0E021A18F70A80102C0440F551F8A951B
:1013F000E2F7CA01922F982B91A392A1809589239D
:1014000082A378940E948609EDE5F1E020E030E0C7
:10141000812C4191A42FA295AF70B0E090968C9151
:1014200090E04F7002C0959587954A95E2F780FD50
:1014300007C0802F022E01C0880F0A94EAF701C06E
:1014400080E0882A2F5F3F4F2630310511F75FEF8C
:10145000A51AB50AF60180810E9493090E948809A5
:101460008881881619F0888281E001C080E0982A7E
:101470002196EA14FB0409F0ACCF292D46E064EA7A
:1014800072E08EE992E00E94560A0E94F005892DD2
:10149000DF91CF911F910F91FF90EF90DF90CF9050
:1014A000BF90AF909F908F9008950895FF920F93F3
:1014B0001F93CF93DF938C01F62ED72FC42F2223B7
:1014C00049F081E08093D8010E942F289093D701A2
:1014D0008093D6018091D8018823C1F08091D601F4
:1014E0009091D7010E944728069780F0EF2DFD2F9D
:1014F000D8014C2F50E0CD01801B910B841795072C
:101500001CF48D918193F7CF1092D801DF91CF9188
:101510001F910F91FF9008958091DF0180FF0BC014
:101520006091090185E0689FB00111247595679568
:10153000759567952BC081FF09C06091090185E011
:10154000689FB00111247595679520C082FF07C080
:101550006091090185E0689FB001112417C0909146
:10156000DE019923D1F060910801961788F7209148
:10157000090185E0289F90011124929FA001939F6B
:10158000500D112470E0CA010E943B306038710593
:1015900040F46115710519F406C065E070E0862F0E
:1015A00008958FE7089581E008958091DF0180FF1D
:1015B00008C06091050170E0759567957595679510
:1015C00021C081FF06C06091050170E075956795A7
:1015D00019C082FF04C06091050170E010C09091B5
:1015E000DD01992399F0609104019617A0F780918D
:1015F0000501899FC001112470E00E943B306038D2
:10160000710540F46115710519F406C061E070E0E0
:10161000862F08958FE7089581E00895803F21F493
:101620000E948C0A819504C0813F29F40E948C0A93
:101630008093E3010895823F21F40E948C0A8195F2
:1016400004C0833F29F40E948C0A8093E20108952C
:10165000893F19F40E94D50A05C08A3F31F40E94DF
:10166000D50A81958093E40108958B3F21F40E946F
:10167000D50A819504C08C3F29F40E94D50A809335
:10168000E50108959CE0980F953078F421E030E072
:10169000A90102C0440F551F9A95E2F7CA01909123
:1016A000E101892B8093E10108958D3F21F4809120
:1016B000DF0181600BC08E3F21F48091DF018260E9
:1016C00005C08F3F29F48091DF0184608093DF01A2
:1016D0000895803F39F49091E30197FF35C010924F
:1016E000E30159C0813F29F49091E3011916BCF33D
:1016F0002BC09091E201823F29F497FF25C0109200
:10170000E20149C0833F19F41916CCF31DC0909132
:10171000E401893F29F41916BCF41092E4013BC09E
:101720008A3F19F497FF10C0F8CF8B3F39F490919E
:10173000E50197FF09C01092E5012DC08C3F21F40F
:101740009091E5011916BCF39CE0980F953080F458
:1017500021E030E0A90102C0440F551F9A95E2F73D
:10176000CA0180959091E10189238093E10113C022
:101770008D3F21F48091DF018E7F0BC08E3F21F4DD
:101780008091DF018D7F05C08F3F29F48091DF01BB
:101790008B7F8093DF018091E201811106C08091EF
:1017A000E301811102C01092DE018091E4018111F8
:1017B00006C08091E501811102C01092DD010895FB
:1017C0000E942F282091E201211104C02091E30101
:1017D000222321F09093DC018093DB012091E4012E
:1017E000211104C02091E501222321F09093DA0118
:1017F0008093D90180EE91E00C94E01AEF92FF9271
:101800000F931F93CF93DF9300D000D000D0CDB7BC
:10181000DEB786E0E0EEF1E0DE01119601900D9278
:101820008A95E1F7E090E201F090E3010091E40194
:101830001091E5011092E2011092E3011092E4018F
:101840001092E501E11003C0FF2009F45DC0809112
:10185000DB019091DC010E944728AC019091DE01F0
:10186000992339F020910A0130E02417350758F008
:101870004BC020910B018AE0289F9001112424176E
:10188000350718F041C09F3F19F09F5F9093DE012C
:10189000EE2061F00E948C0A1E1414F09FEF01C02C
:1018A00091E0989F902D11249093E201FF2061F028
:1018B0000E948C0A1F1414F09FEF01C091E0989FC2
:1018C000902D11249093E3013091E2013323E1F054
:1018D0002091E3012223C1F045EB3403C001112420
:1018E000992319F09093E20103C081E08093E20113
:1018F00035EB2303C0011124992319F09093E301E0
:1019000003C081E08093E301011103C0112309F4B6
:101910005DC08091D9019091DA010E944728AC0105
:101920009091DD01992339F02091060130E02417D0
:10193000350758F04BC0209107018AE0289F90019D
:1019400011242417350718F041C09F3F19F09F5FFD
:101950009093DD01002361F00E94D50A101614F067
:101960009FEF01C091E0989F902D11249093E40186
:10197000112361F00E94D50A111614F09FEF01C0E7
:1019800091E0989F902D11249093E5013091E4010E
:101990003323E1F02091E5012223C1F045EB34032C
:1019A000C0011124992319F09093E40103C081E050
:1019B0008093E40135EB2303C0011124992319F02E
:1019C0009093E50103C081E08093E5018091E201FD
:1019D00081110BC08091E301811107C08091E40166
:1019E000811103C08091E50181110E94E00BEB821F
:1019F000FC820D831E8386E0FE013196A0EEB1E0ED
:101A000001900D928A95E1F726960FB6F894DEBF05
:101A10000FBECDBFDF91CF911F910F91FF90EF903F
:101A20000895E0EEF1E086E0DF011D928A95E9F786
:101A30001092DE011092DD011092DF010895EF9205
:101A4000FF920F931F93CF93DF938B01682F111198
:101A50000AC0442329F0E82FF0E0E459F84F6491DC
:101A6000762F862F75C0212F30E0E82FF0E0442339
:101A700021F0E459F84FE491F0E046E0049FC00102
:101A80001124CFEFD0E0BE010E9427304BEA46037D
:101A9000C001479F900D1124800F911D800F911D53
:101AA000982F990F890FAE01421B530B4E9FD00107
:101AB0004F9FB00D5E9FB00D11249B2F189FA0016A
:101AC0001124452F55278E01041B150B0E9FA001D5
:101AD0000F9F500D1E9F500D11247E01E81AF10832
:101AE000E29E8001E39E100DF29E100D1124212F25
:101AF0003327C21BD30BCE9F9001CF9F300DDE9FAB
:101B0000300D112462307105A9F048F4611571059A
:101B100069F061307105C9F48B2F752F0DC06430E9
:101B2000710581F058F06630710579F47E2F8B2FA6
:101B3000932F0DC0832F7B2F9E2F09C08E2F7B2FBD
:101B4000952F05C08E2F732F02C07E2F852F692FF2
:101B5000DF91CF911F910F91FF90EF90089541E099
:101B60000E941F0D089508950E94AF0D0895CF9310
:101B7000DF93762FE901682F842F0E94B40D7983BB
:101B800068838A83DF91CF9108958091AA02282FDC
:101B9000269530E02115310519F48170826005C069
:101BA0002B32310524F0817084658093AA02089558
:101BB00088E090E00C942031CF92DF92EF92FF9278
:101BC0006B017C010E94C50DB701A60188E090E081
:101BD000FF90EF90DF90CF900C943E316091AA027D
:101BE0007091AB028091AC029091AD020C94DC0D2F
:101BF000EAEAF2E083E0808311828FEF82838383BD
:101C0000148260817181828193810C94DC0D8091BA
:101C1000AA0280FF02C08695089580E00895909101
:101C2000AE02933018F49F5F9093AE02882351F078
:101C30006091AA027091AB028091AC029091AD02CA
:101C40000C94DC0D089581E00C940F0E9091AE027F
:101C5000992319F091509093AE02882351F060912E
:101C6000AA027091AB028091AC029091AD020C94EB
:101C7000DC0D089581E00C94260E8091AE0208954B
:101C80008093AE02662351F06091AA027091AB027C
:101C90008091AC029091AD020C94DC0D089560E04F
:101CA0000C94400E8091AB0208958091AC0208958F
:101CB0008091AD02089570E00C9449156091100177
:101CC0008091AA0280FF0AC080910F0123E0829FC9
:101CD000C001112481559D4F0C945B0E8091110120
:101CE00090911201891780F7E82FF0E09F01220FF1
:101CF000331FE20FF31FE155FD4F11821082128254
:101D00008F5FF0CF9091AA0290FF16C090911101C1
:101D100020911201921770F4E92FF0E0DF01AA0F71
:101D2000BB1FEA0FFB1FE155FD4F81836083428398
:101D30009F5FF0CF0C945E0E0895CF93DF9300D099
:101D40001F92CDB7DEB79091AA0290FF0AC09E0104
:101D50002F5F3F4F0E94B70D4B8169818A810E949E
:101D6000820E0F900F900F90DF91CF910895CF9337
:101D7000DF93EC01EC81F0E0E959F94F4491EAEA94
:101D8000F2E0628181810E949D0E8C818F5F8C8345
:101D9000DF91CF910895CF93DF93EC01EAEAF2E06F
:101DA000438162818C810E949D0E8C818F5F8C8328
:101DB000DF91CF9108950F931F93CF93DF9300D0BE
:101DC0001F92CDB7DEB78C018091E60181110AC068
:101DD0009E012F5F3F4F4FEF6FEF0E94B70D8A813B
:101DE0008093E601F8018481813051F028F082303F
:101DF00061F44091E6010AC08091E60140E007C02D
:101E00006091E60140E080E003C040E080E060E0F7
:101E10000E94820EF801848190E0019663E070E0F8
:101E20000E943B3084830F900F900F90DF91CF91F1
:101E30001F910F910895AF92BF92CF92DF92EF92D0
:101E4000FF920F931F93CF93DF9300D01F92CDB7D4
:101E5000DEB7182FF62E042FE22E9091AA0290FFE3
:101E60006DC0E92FE695AE2FB0E0A759BE4F8C911B
:101E700080930E029E7F923061F49E012F5F3F4F50
:101E8000812F0E94B70D4B8169818A810E94820E49
:101E900043C0823019F40091AD023EC0863019F47F
:101EA0001091AB0239C08930D9F38931A9F5E951D4
:101EB0008E2F8170D82EE695F0E0E959F84FA59065
:101EC000B490C12CBB2460911301C61618F52C2DBB
:101ED00030E0A29EC001A39E900DB29E900D1124F1
:101EE00070E00E942730812FD11002C0860F01C000
:101EF000861B90911101290F311DA901440F551F17
:101F0000240F351F21553D4F402F6F2D0E94B70DD7
:101F1000C394D9CF0E945E0E1093AB02F092AC0234
:101F20000093AD02EE2051F06091AA027091AB02D5
:101F30008091AC029091AD020E94DC0D0F900F9049
:101F40000F90DF91CF911F910F91FF90EF90DF9055
:101F5000CF90BF90AF900895EAEAF2E09181282FE8
:101F60004381628188E0890F0C941B0F81E00C94FF
:101F7000AC0FEAEAF2E09181282F4381628188EF79
:101F8000890F0C941B0F81E00C94B90FEAEAF2E080
:101F9000628128E0620F08F46FEF282F438181816E
:101FA0000C941B0F81E00C94C60FEAEAF2E0628108
:101FB00028E0621B08F460E0282F438181810C94A3
:101FC0001B0F81E00C94D50FEAEAF2E0438128E090
:101FD000420F08F44FEF282F628181810C941B0F70
:101FE00081E00C94E40FEAEAF2E0438128E0421B2E
:101FF00008F440E0282F628181810C941B0F81E05E
:102000000C94F30F20E00C941B0FFF920F931F937F
:10201000CF93DF93EC01F12C0FEF10E060911301EF
:10202000F616F0F4809111012F2D30E0280F311DAC
:10203000C901880F991F280F391F21553D4F70E0A6
:10204000C8010E943B30962F8C814091AD02609177
:10205000AC02F99E800D11240E94B70DF394DECFDF
:102060000E945E0E9A818C8190FF02C08F5F01C03A
:1020700081508C83DF91CF911F910F91FF90089534
:10208000AF92BF92CF92DF92EF92FF920F931F9386
:10209000CF93DF93FC01828180FF02C00FEF01C06C
:1020A00001E010E046E0A42E80911301181708F01B
:1020B00043C080911101C12ED12CE601C80FD11D62
:1020C000CE01880F991FC80FD91FC155DD4F198246
:1020D00018821A8234E0E32EF12CB12C8091E801B1
:1020E0008B0D87302CF06A2D0E941930892F05C086
:1020F00087FF03C090911301890F082E000C990BE4
:10210000C816D90691F48091AD028E9DA0018F9DD5
:10211000500D112455954795559547959E01609111
:10212000AC028091AB020E94B70DB00EF1E0EF1A45
:10213000F108A1F61F5FB8CF0E945E0E8091E80102
:10214000013031F4811102C080911301815007C028
:1021500090E001966091130170E00E943B30809303
:10216000E801DF91CF911F910F91FF90EF90DF90E9
:10217000CF90BF90AF900895CF938091110190912F
:102180001201891770F4E82FF0E09F01220F331F2E
:10219000E20FF31FE155FD4F1182108212828F5F13
:1021A000F0CFC0E060911301C617C0F5EC2FF0E04E
:1021B00070E0CF010E943B3020911101820F2091ED
:1021C000E701022E000C330B90E0E217F307CCF08E
:1021D00020910E01022E000C330B2E173F078CF0BE
:1021E0009C01220F331F820F931F9C0121553D4FED
:1021F0004091AD026091AC028091AB020E94B70D9C
:102200000BC0FC01EE0FFF1F8E0F9F1FFC01E1555D
:10221000FD4F118210821282CF5FC4CF0E945E0EEA
:1022200020910D018091E701820F8093E701909149
:102230000E01920F90930E0119165CF4082E000CFB
:10224000990B4091130150E04150510984179507B3
:102250001CF0219520930D01CF9108958F929F92AC
:10226000AF92BF92CF92DF92EF92FF920F931F93A4
:10227000CF93DF938C01FC014481C42FD0E09E01F9
:10228000DE010E9486309B01AC010E949C306B01F4
:102290007C01E0E2F0E0EC1BFD0BA5E5B0E09B016A
:1022A000AC010E949C304B015C019F01DF010E9448
:1022B0007E309B01AC010E94A7309B01AC012C0D2C
:1022C0003D1D4E1D5F1DC501B4010E944F30C22F40
:1022D000D22F2A3228F4F3E02F9F900111240DC051
:1022E00025E530E02C1B3109C901880F991F280F03
:1022F000391F37FF02C02F5F3F4F35952795C22FFB
:10230000C095F12C85E5E82EED1A80911301F816A1
:10231000C8F4F1FC02C08E2D01C08D2F90911101E7
:102320002F2D30E0290F311DA901440F551F240F17
:10233000351F21553D4F4C2F6091AC020E94B70DC7
:10234000F394E3CF0E945E0EF8018481811102C0F4
:1023500091E003C0803219F49FEF90930C019091AB
:102360000C01890FF8018483DF91CF911F910F91A8
:10237000FF90EF90DF90CF90BF90AF909F908F90A5
:1023800008950F931F93CF93DF93EC0100E010E0CB
:1023900080911301282F30E00217130724F5909144
:1023A00011019801290F311DA901440F551F240F58
:1023B000351F21553D4F869590E04C810817190730
:1023C0001CF4442331F002C0411103C04091AD021E
:1023D00001C040E06091AC028091AB020E94B70D59
:1023E0000F5F1F4FD5CF0E945E0E8C8190E001964B
:1023F000817099278C83DF91CF911F910F91089560
:102400007F928F929F92AF92BF92CF92DF92EF9284
:10241000FF920F931F93CF93DF93FC018280748010
:1024200081E08483E7E6F6E09490E6EEF6E0E4915E
:10243000A12CF5E0BF2ECC24CA94D12CE9190E2F83
:1024400010E080911301A81608F0A2C0EA2CF12C2C
:1024500022E0281568F0BE9CF001BF9CF00D11240D
:10246000E751FE4F8091AB0280838091AC02818363
:1024700071100AC0BE9CF001BF9CF00D1124E75101
:10248000FE4F138212826AC0BE9CE001BF9CD00D39
:102490001124C751DE4F8B818823F9F081508B8343
:1024A0002FEF829FC00111246C8170E00E942730C1
:1024B000FB01FF27E959F94F8491E82FE9192FEF24
:1024C000E29FC0011124B8010E9427308091AD0223
:1024D000689FB00111247A8341C00E94FB30209193
:1024E000AD022695215830E0A901440F551F322F27
:1024F0002227240F351F232F33278217930774F5C4
:1025000082E0881588F40E94FB30B6010E943B30BF
:1025100088830E94FB302091AC022695622F70E0E8
:102520000E943B30280F2983BE9CF001BF9CF00D18
:102530001124E751FE4F12828091AD02843120F0C8
:10254000893C18F088EC01C084E1BE9CF001BF9C7E
:10255000F00D1124E751FE4F848383838091110194
:102560009701280F311DC901880F991F280F391FA6
:1025700021553D4FBE9CF001BF9CF00D1124E75149
:10258000FE4F4281618180810E94B70DA39459CF93
:10259000DF91CF911F910F91FF90EF90DF90CF903F
:1025A000BF90AF909F908F907F900C945E0EEAEA60
:1025B000F2E080818E7F808360817181828193814E
:1025C0000E94DC0D10920F022FEF80E792E0215065
:1025D00080409040E1F700C000000C945E0EEAEAF3
:1025E000F2E080818E7F808310920F022FEF80E7D0
:1025F00092E0215080409040E1F700C000000C9430
:102600005E0E6091AA02669570E04BE050E084E1B6
:1026100091E00E940B31892B19F481E080930F0225
:102620000E942F28909308028093070208959091AA
:10263000AA0290FF35C09170811102C0926006C05D
:102640008B3210F0946502C0880F982B9093AA02E9
:10265000662351F06091AA027091AB028091AC02A6
:102660009091AD020E94DC0D6091AA02669570E027
:102670004BE050E084E191E00E940B31892B19F08E
:1026800010920F0202C00E94011381E080930A029F
:102690004091AD026091AC028091AB020C940210AB
:1026A0000895682F9091AA02969581E0890F8B3248
:1026B00008F081E00C94171381E00C945113682FFB
:1026C0009091AA0296958FEF890F09F48AE20C94F3
:1026D000171381E00C945F1361E00C941713EAEA7E
:1026E000F2E080818160808386950C946C138091E8
:1026F000AA0280FD0C94D7120C946F1360E00C9426
:10270000171380910D0281112EC00E94AC268111F9
:1027100004C00E9454270E94F80D0E94D80D6093B7
:10272000AA027093AB028093AC029093AD026E7FCD
:1027300061F40E94F80D0E94D80D6093AA02709374
:10274000AB028093AC029093AD020E94C50D109233
:102750000F028091AA0280FF03C086950E947E131B
:1027600081E080930D020895EAEAF2E080818160C1
:10277000808386950C947E130F931F93CF93DF93E2
:1027800080910F02882309F495C080910E02E09198
:10279000AA02E695E81BE0930902823049F4F0E0D2
:1027A000ED59F94FE491CE2FD0E007EB1EE059C070
:1027B000863049F4F0E0E05AF94FE491CE2FD0E0B2
:1027C0000BEC1EE04EC0893051F4E695F0E0E35A80
:1027D000F94FE491CE2FD0E005E010E142C08F30F8
:1027E00051F4E695F0E0E65AF94FE491CE2FD0E0AF
:1027F00000E410E136C0853149F4F0E0E95AF94FC0
:10280000E491CE2FD0E00CEB10E12BC08831D9F051
:10281000833239F4E5E5F6E0C591D4910BED1EE085
:1028200020C08432A9F08532C1F48E2F63E00E946B
:102830000D30E92FF0E0EE5AF94FE491CE2FD0E0C1
:1028400000E012E10EC0C8E2D0E00EE211E109C0E2
:10285000C4EFD1E001EC11E104C0C0EDD7E003EB1F
:102860001DE080910A02882361F010920A020E9402
:102870002F28909308028093070210920C02109266
:102880000B020E942F28E0910702F09108028E1B94
:102890009F0B8F3F9F4770F4EC0FFD1FF0930802D2
:1028A000E093070287E092E0F801DF91CF911F915A
:1028B0000F910994DF91CF911F910F910895882373
:1028C00011F0FA0101C0FB010994CF93DF93C82FE7
:1028D000D62F0E94070E8C1740F00E94070E8D170E
:1028E00020F4DF91CF910C945C138C2FDF91CF916A
:1028F0000C946C131F93CF93DF93FB011281112370
:1029000009F4C1C0EC010E94E5258272CC3CFCE5D3
:10291000DF0709F49BC008F043C0C63CECE5DE07C6
:1029200009F480C0D8F4C33C9CE5D90709F46DC014
:1029300038F4C23CDC4509F0A7C00E9477136BC095
:10294000C43C9CE5D90709F468C0C53CDC4509F0E6
:102950009BC043EC5FE066EB7FE05BC0C93CFCE5FD
:10296000DF0709F469C070F4C73CECE5DE0709F441
:102970005EC0C83CDC4509F087C042ED5FE061EE17
:102980007FE047C0CA3C9CE5D90709F45AC0CB3C5C
:10299000DC4509F079C04AE35EE063E27EE039C0DD
:1029A000C13DFCE5DF0709F45EC098F4CE3C9CE530
:1029B000D90709F452C008F44EC0CF3CFCE5DF074C
:1029C00009F44EC0C03DDC4509F05EC06EE089E010
:1029D00057C0C43D9CE5D90709F44BC058F4C23D2B
:1029E000FCE5DF0709F442C0C33DDC4509F04CC0FB
:1029F00088E143C0C53D9CE5D907F1F1CD35DD4502
:102A000009F042C06AE285E23BC049E653E16CE569
:102A100073E10E945F1410E037C04CE553E169E6B2
:102A200073E1F7CF46EB5FE063EC7FE0F2CF41EE7E
:102A30005FE062ED7FE0EDCF4FEF5FE060EF7FE0C2
:102A4000E8CF40EF5FE06FEF7FE0E3CF43E25EE08F
:102A50006AE37EE0DECF81E010C065E082E010C076
:102A600068E086E00DC064E18FE00AC067E185E1BF
:102A700007C062E289E104C083E20E946C13CBCFFD
:102A80000E946514C8CF11E0812FDF91CF911F9173
:102A90000895539A2BB1277F3BB138604FB7F89414
:102AA000FC01CB01880F991F680F791F6E0F7F1FE4
:102AB000E617F70789F0819198E03BB9000000C064
:102AC00087FF2BB9880F000000C000C000C02BB9E1
:102AD00000C09A9591F7ECCF4FBF8FE594E0019736
:102AE000F1F700C00000089583E290E00E941831E1
:102AF000813281F484E290E00E941831883051F4F0
:102B000085E290E00E94183191E0813209F090E076
:102B1000892F01C080E081700895CF93C82F811163
:102B200002C06FEF01C061E283E290E00E942C31AD
:102B3000C11102C06FEF01C068E084E290E00E9422
:102B40002C31C11102C06FEF01C061E285E290E05B
:102B5000CF910C942C3180E00E948D150C94A62608
:102B6000089586E290E00E941831682F70E080E0BE
:102B700090E0089586E290E00C942C310E94B0150C
:102B80000E94741581110CC060E070E0CB010E94BE
:102B9000BA150E945C170E943B1881E00C948D15B9
:102BA0000895CF93FB01C281CC23E9F09C0122510F
:102BB0003F452031310520F482510E944B180CC052
:102BC0008031FFE59F0751F481E00E944C2443E0EF
:102BD00062E081E00E94DA05C0E018C081319F45C3
:102BE000A9F482E0F2CF8031EFE59E0711F481E095
:102BF00004C081319F4549F482E00E946D2443E086
:102C000062E081E00E94DA0501C0C1E08C2FCF9123
:102C100008952FEFFC0120830895CF93DF93EC01FB
:102C20008881813889F028F48038A1F40E94580EF8
:102C300010C0823861F0833869F40E94520E898393
:102C40000E94550E8A8306C00E94070E02C00E9491
:102C50003D0E8983DF91CF910895CF93DF93EC01EF
:102C600088818138B1F058F4803851F5D9810E94BB
:102C7000550EC82F0E94520E4D2F6C2F1DC082384A
:102C8000B1F08338E9F40E94580E482F6A81898197
:102C900013C089810E947E138981811104C0DF9154
:102CA000CF910C94EF12DF91CF910C94B4138981E2
:102CB000DF91CF910C944F0EDF91CF910C940210C5
:102CC000DF91CF910895EF92FF920F931F93CF93CF
:102CD000DF93EC01062F0196E8814E2F50E0FA01B8
:102CE0003197E331F10508F09AC0EA5AFF4F0C948E
:102CF0007130198289E056C08981823039F0833081
:102D000061F0813029F50E943B2802C00E94B11574
:102D10009A838B837C836D8384C07E0182E0E80E7E
:102D2000F11C10E0812F0E947B09F70181937F0144
:102D30001F5F1630B9F775C08981823049F46A8106
:102D40007B818C819D810E9477300E94BA1569C079
:102D5000602FCE010E94091664C04B816A8189816F
:102D60000E942E179C838D835CC02C813D8132276D
:102D7000232732274B816A8189810E94471751C0DE
:102D80000E945C174EC00E942D164BC00E940D166B
:102D900048C00E94EE0D45C00E94EE1724C00E945C
:102DA000F01799838A833DC06B8170E089819A8195
:102DB000AE014C5F5F4F9827892798270E94F31731
:102DC00030C06B8170E089819A81AE014C5F5F4FAA
:102DD0009827892798270E94181823C00E943B181B
:102DE00020C00E941B1789831CC06B8170E0898101
:102DF0009A81AE014C5F5F4F9827892798270E94E0
:102E00009B170FC06B8170E089819A81AE014C5F86
:102E10005F4F9827892798270E94BF1702C08FEF1E
:102E20008883602FCE01DF91CF911F910F91FF908A
:102E3000EF900C942D2984E0089550E0440F551F25
:102E40002CE0629F400D511D11249A0168E4869F79
:102E5000200D311D1124C901879608950F931F93EA
:102E6000CF93DF930E941D178C010E941831C82F49
:102E7000D0E0DC2FCC27C80101960E9418319E01BA
:102E8000282BC901DF91CF911F910F9108950F93C6
:102E90001F93CF93DF93122F032F0E941D17EC0176
:102EA000602F0E942C31612FCE010196DF91CF91CE
:102EB0001F910F910C942C31AF92BF92CF92DF9261
:102EC000EF92FF920F931F93CF93DF93A12CE12CEE
:102ED000F12CB12C00E010E0C0E0D0E06701C00EA2
:102EE000D11EFE01EE0FFF1FEC0DFD1DEE5DFE4F2E
:102EF000259134914C2F6B2D8A2D0E9447172196D6
:102F0000C630D10571F7045F1F4FB39486E0B81245
:102F1000E3CF88E4E80EF11CA39484E0A812D9CF93
:102F2000DF91CF911F910F91FF90EF90DF90CF90A5
:102F3000BF90AF900895EF92FF920F931F93CF939E
:102F4000DF93EA017A01E60EF71E8C01C80187962D
:102F5000CE15DF0569F0003221E0120720F40E944F
:102F60001831888301C0188221960F5F1F4FEECF62
:102F7000DF91CF911F910F91FF90EF900895EF9205
:102F8000FF920F931F93CF93DF93EA017A01E60E2E
:102F9000F71E8C01C8018796CE15DF0559F0003267
:102FA00021E0120718F468810E942C3121960F5FEE
:102FB0001F4FF0CFDF91CF911F910F91FF90EF90B6
:102FC0000895462F843038F4763028F4663018F4AB
:102FD000672F0C942E1780E090E0089580E108950B
:102FE00089EB92E00895EF92FF920F931F93CF9396
:102FF000DF93EA017A01E60EF71E8C01C801895BB6
:103000009E4FCE15DF0569F0093B22E0120720F440
:103010000E941831888301C0188221960F5F1F4FCC
:10302000EDCFDF91CF911F910F91FF90EF90089519
:10303000EF92FF920F931F93CF93DF93EA017A01F0
:10304000E60EF71E8C01C801895B9E4FCE15DF0589
:1030500059F0093B22E0120718F468810E942C31D4
:1030600021960F5F1F4FEFCFDF91CF911F910F91EF
:10307000FF90EF900895CF93DF93C7E4D1E060E035
:10308000CE010E942C312196C11584E0D807B9F7F2
:10309000DF91CF910895DF92EF92FF920F931F93EC
:1030A000CF93DF9300D000D0CDB7DEB7F82E8FE0FE
:1030B0008F15E8F18FEF93E00E941831811137C02E
:1030C00007E411E0FF2069F0011584E0180779F1A9
:1030D000C8010E941831811101C0FA940F5F1F4F7F
:1030E000F1CF19821A821B821C82DD24D3947801CD
:1030F0008FEFE81AF80AC8010E94183189831A82F2
:103100008823A9F09FEF980F933058F48A83D982CF
:103110000E5F1F4FC7010E9418318B83882339F03F
:103120007801CE0101960E9431078701E0CF0F9010
:103130000F900F900F90DF91CF911F910F91FF9003
:10314000EF90DF9008950F931F93CF93DF93C42FD9
:10315000D22FFC0182818823C9F0409312020E9481
:103160002F28909311028093100280E28C0F8830F8
:1031700008F057C0C77081E001C0880FCA95EAF710
:10318000DF91CF911F910F910C94691D80911202D4
:10319000481330C080911002909111020E9447287C
:1031A000883C910538F510E21D0FCD17B9F080E28B
:1031B0008C0F883040F4C77081E001C0880FCA9539
:1031C000EAF70E94701D183028F581E09D2F977056
:1031D00001C0880F9A95EAF70E94691D802F0E940E
:1031E000601D1830F0F4D77081E001C0880FDA95C7
:1031F000EAF70AC080E28C0F883098F4C77081E04B
:1032000001C0880FCA95EAF7DF91CF911F910F9106
:103210000C94701D802FDF91CF911F910F910C9412
:10322000601DDF91CF911F910F9108950F939C0125
:10323000CB01233F4CE5340731F188F4283DFCE510
:103240003F07D9F0293D4CE5340779F1273D3C454E
:10325000A9F506E221EE41EE67ED7CE52BC0253FA6
:10326000FCE53F07E1F0A8F0263F3C4539F507E2D1
:1032700025EE46EE66EF7CE51DC007E225EE45EE45
:1032800068ED7CE517C006E221EE40EE63EF7CE5D9
:1032900011C007E225EE44EE64EF7CE50BC006E2C8
:1032A00021EE42EE65EF7CE505C008E221E045EE47
:1032B00069ED7CE50E94A31880E008C0FC018281D2
:1032C000882319F01092120201C081E00F91089535
:1032D000CF93DF93EC01FB018281882309F41FC1A6
:1032E000C230FCE5DF0708F41BC1C6319CE5D907F5
:1032F00038F09E012A5F3C452930310508F010C1A5
:103300000E94BF2690939D0280939C02C031ECE501
:10331000DE0709F4C3C008F041C0C8308CE5D80707
:1033200009F49AC0F0F4C430ECE5DE0709F487C074
:1033300068F4C2308CE5D80709F477C0C330DC45A7
:1033400009F0E3C080919C02826076C0C630ECE553
:10335000DE0709F46EC008F07BC080919C02886093
:103360006BC0CC308CE5D80709F485C068F4CA304E
:10337000ECE5DE0709F474C008F079C00E94F61F7E
:1033800080919C02806858C0CE308CE5D80709F443
:1033900076C008F07FC080919C028BC0CB3FECE5EB
:1033A000DE0709F44FC018F5C3318CE5D80709F4DE
:1033B0007DC078F4C131ECE5DE0709F473C0C23199
:1033C000DC4509F0A2C00E94F61F80919C028F7715
:1033D00033C0C5318CE5D80709F472C008F486C043
:1033E000CA3FDC4509F091C080919D023EC0CF3FAD
:1033F000FCE5DF0709F45FC058F4CD3F9CE5D90731
:1034000009F444C008F43FC080919D0282602DC041
:10341000C130FDE5DF0709F475C008F45DC0C230B6
:10342000DD4509F072C080E06EC080919C02816031
:1034300003C080919C02806180939C0266C0809151
:103440009C0211C080919D02826080939D025DC0AC
:1034500080919C028062F0CF80919C028064ECCFCE
:1034600080919C0288608460E7CF8160EECF80917C
:103470009C028E7FE1CF80919C028D7FDDCF809179
:103480009C02877FD9CF80919D0218C080919D02B8
:103490008D7FDBCF80919C028F7ECECF80919C026E
:1034A0008F7DCACF80919C028F7BC6CF80919C027A
:1034B000877F8B7FC1CF80919D028D7F8E7FC5CF0F
:1034C00080919C0282FB222720F991E0922790FBB9
:1034D00082F990FB83F9B0CF80919D02982F90954F
:1034E00091708E7F892B90FB81F9AFCF0E94F61FE0
:1034F00080919C0287FB222720F991E0922790FB84
:1035000087F99ACF81E00E94562780919C02909182
:103510009D020E94D0260E94F61F80E001C081E03B
:10352000DF91CF910895CF93DF9386319C4541F58C
:10353000EB010E94E525982F8A8120911F0130918F
:103540002001882379F09A7A81E009F480E0809361
:103550001302911102C069E201C065E3C9010E9432
:103560009D270AC080911302811102C069E201C047
:1035700065E3C9010E949F270E94372680E001C0B1
:1035800081E0DF91CF910895909319028093180202
:103590000895E0911802F0911902309721F00190FE
:1035A000F081E02D099480E00895E0911802F091F7
:1035B0001902309721F00280F381E02D09940895DB
:1035C000E0911802F0911902309739F022E0DC0105
:1035D0002C930480F581E02D099408952091160222
:1035E000309117022817390771F0909317028093D2
:1035F0001602E0911802F0911902309721F006802E
:10360000F781E02D0994089520911402309115025C
:103610002817390771F09093150280931402E091F6
:103620001802F0911902309721F00084F185E02D05
:10363000099408950E943B28609325027093260206
:1036400080932702909328026093210270932202B4
:103650008093230290932402089585B7806885BFE4
:1036600085B7806885BF089581E008950C94341B68
:1036700008950C94381B0C94381B0C943B1B0C9431
:10368000381B0C943F1B0C94381B0E942D1B84EAA2
:1036900096E20E94A0280E94431B0C94411B0E94AA
:1036A000391B0C94381B0E9426280E94AA090E94EC
:1036B000BE150E9481130C943D1B9F92AF92BF9246
:1036C000CF92DF92EF92FF920F931F93CF93DF93EE
:1036D000CDB7DEB72A970FB6F894DEBF0FBECDBFC9
:1036E0000E94D00981110E941A1B8BE1A82E82E052
:1036F000B82E00E010E0902E802F0E947B09D82E7B
:10370000F501C1905F01C826B1F40F5F1F4F06306D
:10371000110589F78FEF89838A831B820E942F28E6
:103720008160782F9D838C8349815A816B818D8143
:103730000E94FD1B2FC08091900281FD0E94810993
:10374000E12CFF24F3948C2D8F21F1F00E94361B85
:10375000882399F0EE829F82DF2081E009F480E0E7
:1037600088870E942F288160782F9A8789874E81C9
:103770005F8168858A850E94FD1BF801E55EFD4F2B
:103780008081F826F08206C0E394FF0CF6E0EF1289
:10379000DACFBBCF0E94BC130E94FE0B0E94C91A55
:1037A00090911A028917B9F00E94C91A80931A02DF
:1037B0002A960FB6F894DEBF0FBECDBFDF91CF9132
:1037C0001F910F91FF90EF90DF90CF90BF90AF903F
:1037D0009F900C943B072A960FB6F894DEBF0FBE5D
:1037E000CDBFDF91CF911F910F91FF90EF90DF90B0
:1037F000CF90BF90AF909F900895DF92EF92FF928D
:103800000F931F93CF93DF93CDB7DEB72B970FB6F0
:10381000F894DEBF0FBECDBFF42E052F162FE72E76
:10382000D82E61110E940526FE01319686E0DF0147
:103830001D928A95E9F77E2D4F2D502F612F8D2DEA
:103840009E810E94AF222B960FB6F894DEBF0FBE6A
:10385000CDBFDF91CF911F910F91FF90EF90DF903F
:103860000895FC01808191810E9485250895CF9360
:10387000882309F4A4C0C82F8238C1F40E94C91A51
:1038800081FD9DC069E380911F01909120010E94FC
:103890009D270E9437262FEF81EE94E02150804033
:1038A0009040E1F700C0000069E319C0833801F5DA
:1038B0000E94C91A80FD83C063E580911F01909129
:1038C00020010E949D270E9437262FEF81EE94E071
:1038D000215080409040E1F700C0000063E58091F6
:1038E0001F01909120010E949F27CF910C943726B1
:1038F0008438C1F40E94C91A82FD61C067E48091D6
:103900001F01909120010E949D270E9437262FEFD2
:1039100081EE94E0215080409040E1F700C000002B
:1039200067E4DDCF8CEF8C0F813AD0F46C2F80915F
:103930001F01909120010E946727882349F06C2F76
:1039400080911F01909120010E949F270E9437269D
:103950006C2F80911F01909120010E949D27C5CF5F
:1039600080E28C0F883048F4C77081E001C0880F76
:10397000CA95EAF70E94E825B8CFEBE5EC0FE330F3
:1039800040F4F0E0EE53FE4F808190E0CF910C9434
:10399000EE1AE8E5EC0FE73150F4F0E0EE0FFF1F10
:1039A000EC56FE4F80819181CF910C94041BC03F57
:1039B00030F08C2F0E940E0BCF910C94E00BCF9126
:1039C0000895882309F464C0823879F40E94C91AE2
:1039D00081FF5EC069E380911F01909120010E94E8
:1039E0009D270E94372669E310C08338B1F40E94F6
:1039F000C91A80FF4DC063E580911F01909120019D
:103A00000E949D270E94372663E580911F019091B7
:103A100020010E949F270C943726843879F40E9455
:103A2000C91A82FF35C067E480911F01909120017F
:103A30000E949D270E94372667E4E7CF9CEF980FEE
:103A4000913A10F4682FE1CF90E2980F983050F43B
:103A5000877091E001C0990F8A95EAF7892F0E943B
:103A6000EE25D9CF9BE5980F933020F480E090E0CD
:103A70000C94EE1A98E5980F973120F480E090E0CE
:103A80000C94041B803F20F00E94690B0C94E00B07
:103A900008951F93CF93DF93182FEB010E94371CDB
:103AA000209741F08FE99FE00197F1F700C00000F7
:103AB0002197F6CF812FDF91CF911F910C94E11CBC
:103AC000893319F060E070E002C060E570E00C94AA
:103AD000491D882321F00E94E8250C94372608957B
:103AE000882321F00E94EE250C9437260895CF926A
:103AF000DF92EF92FF920F931F93CF93DF937C019E
:103B0000062FC72FFC01D281158112951F700E94CC
:103B1000BD25882399F0DD2389F08C2F807F8034A8
:103B200021F080E2800F883048F082E00E948726F2
:103B30000E94BD2591E0D82ED92601C0D12CCC2ED3
:103B4000C2948FE0C8228C2D90E0FC01E759FF4F12
:103B50000C9471308C2F807FCF70882311F0C29528
:103B6000C07FDD2399F0CC2309F48DC180E2800F62
:103B7000883010F0011104C08C2F0E94E82503C08A
:103B80008C2F0E94F8250E9437267DC1802F0E942D
:103B9000E11CCC2309F49CC180E2800F883010F036
:103BA000011104C08C2F0E94EE2503C08C2F0E94AF
:103BB000FE250E9437268CC18C2F807FCF708032EB
:103BC00011F0C295C07F002319F00130C9F022C066
:103BD000DD2371F0112341F0113031F40E941826D9
:103BE0008C2B0E94202674C10E9418268C2B1DC08D
:103BF000112319F0113009F46BC10E942D2625C044
:103C0000DD2321F0163008F063C10EC0153008F036
:103C10005FC11BC0DD2361F0112331F0F701858105
:103C200080FF31C18F7085838C2F0E94691D50C128
:103C3000112359F0093309F037C1FFEF27EE83E074
:103C4000F15020408040E1F72DC18C2F0E94701D63
:103C50003FC18C2F86958695837019F0813061F075
:103C600037C1DD2321F0802F9C2F937002C080E0AC
:103C700090E00E94EE1A34C1DD2321F0802F9C2FAA
:103C8000937002C080E090E00E94041B29C1802F45
:103C9000DD2319F00E940E0B02C00E94690B0E94E6
:103CA000E00B1EC18C2F837009F045C0D11114C1E7
:103CB000402F429546954770440F440F602F6F7018
:103CC000862F90E0A0E0B0E0042E04C0880F991F7A
:103CD000AA1FBB1F0A94D2F704FF10C00FE010E028
:103CE00020E030E004C0000F111F221F331F4A954F
:103CF000D2F7009510952095309503C000E010E0B4
:103D00009801C695C695C370BC01CD01602B712B7F
:103D1000822B932BC23049F058F4C13019F00E9425
:103D20000024DAC00E94EE23D7C00E941224D4C01F
:103D30000E94EC23D1C0DD2319F08C2F817001C0CB
:103D40008695882309F4C8C0402F42954695477050
:103D5000440F440F602F6F70862F90E0A0E0B0E01A
:103D6000042E04C0880F991FAA1FBB1F0A94D2F704
:103D700004FF10C00FE010E020E030E004C0000FAE
:103D8000111F221F331F4A95D2F7009510952095D9
:103D9000309503C000E010E09801C695C695C37049
:103DA000BC01CD01602B712B822B932BC23049F0CB
:103DB00058F4C13019F00E94C5248EC00E94B3246B
:103DC0008BC00E94D72488C00E94262485C0CF7053
:103DD000DD2339F08C2F0E944C24802F0E94691D16
:103DE0007BC0802F0E94701D8C2F0E946D2474C098
:103DF000023F01F128F4003F41F0013FA1F03FC034
:103E0000033FF9F0043F39F13AC0DD2341F01530AA
:103E100008F05EC08C2F8F710E94922459C016301A
:103E200008F056C0F7CFDD2339F08C2F8F710E9438
:103E30004C244EC0DD23C9F38C2F8F710E946D245A
:103E400047C0DD2329F08C2F8F710E94372440C09A
:103E50000E9432243DC0DD2349F0CF718C2F0E9497
:103E60004C2463E08C2F0E946C2632C081E00E94BB
:103E70008726123068F182E00E94872629C0DD2360
:103E800031F0112391F2802F0E94371C21C01123A1
:103E900099F2093349F49FEFE7EEF3E09150E040E7
:103EA000F040E1F700C00000802F0E94E11C10C02C
:103EB0004C2F4F70602FC7010E9444070E945D2362
:103EC0000FC04C2F4F70602FC7010E94470708C0DA
:103ED00088EF8C0D843020F40E94C91A0E943B07A1
:103EE000DD20C9F00E94B92580FD15C0F7011282BE
:103EF0000E94B3250E944C24C7010E94AC1F0E945F
:103F0000B325DF91CF911F910F91FF90EF90DF903C
:103F1000CF900C946D24DF91CF911F910F91FF9062
:103F2000EF90DF90CF9008950F931F93CF93DF937F
:103F3000EC01688179818A810E9490258C010E9420
:103F4000E9240E94DA23B801CE010E94771DDF9197
:103F5000CF911F910F910895CF93DF93EC0198813A
:103F600089812B813C81232B31F08F3F31F481E01B
:103F70009F3F19F403C081E001C080E080FD19C0BB
:103F8000CE010E94020681110CC00E94BD2588232B
:103F900081F08A81882369F082E0DF91CF910C94CF
:103FA0008726CE010E94941FCE01DF91CF910C9401
:103FB0007B05DF91CF91089580E090E00E94EE1A9A
:103FC00080E090E00E94041B0E9405260E941526B6
:103FD0000E9437260E94110D0C94E00B80911F0166
:103FE000909120010E94A1270C94DC1F0E94F525CE
:103FF0000C94EE1FE92FE295EF704E2F50E0FA017E
:104000003297EE30F105B0F4E758FF4F0C94713061
:10401000803F91F018F4883E68F40EC0843F51F45C
:104020000BC0883E48F0813F29F406C093FB8827E7
:1040300080F9089580E0089581E008950E94852523
:104040000E94FA1F0895CF93DF9300D000D01F92F3
:10405000CDB7DEB70F900F900F900F900F90DF91BC
:10406000CF910895CF93DF9300D000D000D0CDB78B
:10407000DEB726960FB6F894DEBF0FBECDBFDF9138
:10408000CF9108951F93CF93DF93C0912A0216E03A
:1040900080912B02C81799F0D0E01C9FF0011D9F62
:1040A000F00D1124E45DFD4F4081518162817381E7
:1040B000848195810E9432202196C770E9CFDF91DB
:1040C000CF911F91089540915C0250915D026091E3
:1040D0005E0270915F0280916002909161020C9487
:1040E00032200F931F93CF93DF93809161028295CB
:1040F0008F7009F05DC080915E02882309F458C07A
:1041000080912A0210912B0260915C0270915D02F5
:10411000C0915F02D091600291E06F3F09F090E0A2
:10412000292F06E0811709F443C0209721F07F3F33
:1041300021F030E003C031E001C0322F90E030FDCB
:1041400034C0089FF001099FF00D1124DF01A45D28
:10415000BD4F11963C911197371327C03C913613F0
:1041600024C012963C91129731111FC013964D91A5
:104170005C9114974C1B5D0B483C5105B0F4809149
:1041800061028F70806180936102EF5CFD4F8081DE
:104190008F70806180838CE592E00E94AC1FDF917C
:1041A000CF911F910F910C94422001968770BACF46
:1041B000DF91CF911F910F9108959F92AF92BF927F
:1041C000CF92DF92EF92FF920F931F93CF93DF93E3
:1041D000CDB7DEB761970FB6F894DEBF0FBECDBF87
:1041E0008C0185E0F801DE011D9601900D928A9503
:1041F000E1F7F80140815181E28090915C02609189
:104200005D0220915F02309160022115310531F08D
:104210006F3F31F481E09F3F19F403C081E001C09A
:1042200080E0F82FF1709F2E80FD46C1F801A38039
:10423000B4808CE5C82E82E0D82EF0905E02F501A5
:10424000E21BF30BFF2009F4DFC080916102E83C20
:10425000F10508F09BC0282F207F09F052C05613AB
:1042600013C0491311C0FE2CE1100EC08F70806185
:10427000809361020E946320C6010E94AC1F80915E
:104280006102F801858358C1AB2831F05F3F31F4FA
:1042900081E04F3F19F403C081E001C080E080FD60
:1042A00003C081E08E2502C080E090E0F82FF1701D
:1042B000FF2E80FF1CC080912A0220912B0236E045
:1042C000821709F417C190E0389FF001399FF00D73
:1042D0001124E45DFD4F6181561306C060814613D1
:1042E00003C06281E61203C001968770E9CFFE2CFD
:1042F000EE2009F421C18091610281608093610206
:104300005AC0561306C0491304C0E11002C0F80198
:104310009FC04D875E878D859E850E941E208823C5
:1043200079F1EE2069F120916102822F82958F70E0
:1043300090E0029774F080915C0290915D02988702
:104340008F831986BB86AA862C87CE0107960E948A
:10435000AC1F86E0F801ACE5B2E001900D928A95C1
:10436000E1F70E9471200E9463200DC0561729F1C9
:104370004D875E878D859E850E941E2081112CC0F1
:10438000C8010E94AC1FFF24F394D6C0282F207FC1
:1043900069F77A2DB98AA88A6E2D89890E9423200F
:1043A0008CE592E00E94AC1F86E0F60111928A959E
:1043B000E9F70E946320F12CBFC04913D9CFE11067
:1043C000D7CFF8018583C8010E94AC1F86E0F601B3
:1043D00011928A95E9F7B0C0EE2091F22091610226
:1043E000822F82958F7090E002970CF4B2CF80916B
:1043F0005C0290915D029A8389831B82BD82AC82AC
:104400002E83CE010196A3CFE83CF10508F047C00A
:10441000FE2CEE2009F4B4CF561330C049132EC041
:104420002091610220FD21C0822F82958F70482F3C
:1044300050E041155105C9F0F80125834F30510571
:1044400041F08F5F982F9295907F822F8F70892BEC
:104450008583C8010E94AC1F86E0F801ACE5B2E09C
:1044600001900D928A95E1F742C086E0F801ACE533
:10447000B2E001900D928A95E1F75EC04D875E87AC
:104480008D859E850E941E20811163CF80916102DF
:10449000816080936102C8010E94AC1F4DC07A2DDB
:1044A000B98AA88A6E2D89890E94232086E0F601A8
:1044B00011928A95E9F71BC0EE2009F461CF4D8770
:1044C0005E878D859E850E941E20F82E882309F424
:1044D00057CF86E0F801ACE5B2E001900D928A95E5
:1044E000E1F78CE592E00E94311C0E9471200E944D
:1044F000632022C04D875E878D859E850E9485251D
:10450000292F22952F70223028F49F7039F08111C5
:1045100005C00BC0243028F49F7049F4805E8830B9
:1045200020F0C8010E94AC1F9F2CF92C05C0F80197
:104530009581907F99F7F9CF8F2D61960FB6F894FA
:10454000DEBF0FBECDBFDF91CF911F910F91FF90C6
:10455000EF90DF90CF90BF90AF909F9008951F9302
:10456000CF93DF93CDB7DEB72C970FB6F894DEBFAD
:104570000FBECDBF4F83588769877A878B879C870B
:10458000CE0107960E94DD208823D1F09F81888587
:104590002A853B85232B31F08F3F31F481E09F3F0B
:1045A00019F403C081E001C080E080FD47C04F8165
:1045B000588569857A858B859C850E9432203EC00E
:1045C00086E0FE013796DE01119601900D928A95E4
:1045D000E1F7FF81E8856A857B856115710531F01A
:1045E000EF3F31F481E0FF3F19F403C081E001C0E7
:1045F00080E080FD23C020912B0230E0C9010196AC
:104600008770992740912A0250E084179507F1F1AD
:10461000F983EA837D836C8396E0929FD001939F18
:10462000B00D1124A45DBD4FFE01319601900D9295
:104630009A95E1F780932B020E94422016E0809128
:104640002A0290912B02891771F1189FC001112441
:10465000845D9D4F0E94DD20882329F1E0912A028C
:104660001E9FF0011124E45DFD4F40815181628164
:104670007381848195810E94322080912A0290E08A
:1046800001968770992780932A02D9CF0E94F61F3E
:1046900010922B0210922A02ECE5F2E086E0DF0194
:1046A0001D928A95E9F72C960FB6F894DEBF0FBEDF
:1046B000CDBFDF91CF911F910895EF92FF920F939D
:1046C0001F93CF93DF938C01892B09F46CC0F12CDD
:1046D000EE24E394E8012196F8018491843740F4B4
:1046E000843008F051C0813081F0823019F15BC014
:1046F000853709F444C0A8F19CE7980F903708F07B
:1047000052C08F770E94E11C41C00E5F1F4FFE0117
:10471000849190E2980F983050F48770FE2D01C07C
:10472000FF0F8A95EAF78F2F0E94082614C00E9477
:10473000371C2DC00E5F1F4FFE01849190E2980F31
:10474000983060F48770FE2D01C0FF0F8A95EAF75C
:104750008F2F0E940E260E94372619C00E94E11C4E
:1047600016C00E5F1F4FFE01C491CC2381F08FE96C
:104770009FE00197F1F700C00000C150F6CF0E5F37
:104780001F4FFE01F49003C00E94371C8E018F2D35
:10479000882309F49FCFEFE9FFE03197F1F700C0DC
:1047A00000008150F5CFDF91CF911F910F91FF90C5
:1047B000EF900895089508950C94DB230C94DC2366
:1047C0000E94DE2360937F027093800280938102B7
:1047D000909382020C94DC1F0C94E0230F931F93A0
:1047E00000917F021091800220918102309182021B
:1047F000602B712B822B932B1F910F910C94E02334
:104800000F931F9300917F021091800220918102EB
:104810003091820260237123822393231F910F9191
:104820000C94E0230F931F9300917F02109180025C
:10483000209181023091820260277127822793277D
:104840001F910F910C94E0230C94DB230E942424ED
:1048500060937B0270937C0280937D0290937E0232
:104860000C94DC1F60E070E0CB010C9426240F93C5
:104870001F9341E050E060E070E08A019B0104C0BA
:10488000000F111F221F331F8A95D2F7C901B801EB
:104890001F910F910C9426240F931F9341E050E039
:1048A00060E070E004C0440F551F661F771F8A95B3
:1048B000D2F780917B0290917C02A0917D02B09111
:1048C0007E028A019B01082B192B2A2B3B2BC90145
:1048D000B8011F910F910C9426240F931F9341E070
:1048E00050E060E070E004C0440F551F661F771F62
:1048F0008A95D2F7409550956095709580917B028E
:1049000090917C02A0917D02B0917E028A019B0170
:10491000082319232A233B23C901B8011F910F91B2
:104920000C9426240F931F9341E050E060E070E068
:1049300004C0440F551F661F771F8A95D2F78091D8
:104940007B0290917C02A0917D02B0917E028A014F
:104950009B01082719272A273B27C901B8011F9166
:104960000F910C9426240F931F9300917B021091BA
:104970007C0220917D0230917E02602B712B822B74
:10498000932B1F910F910C9426240F931F9300914A
:104990007B0210917C0220917D0230917E02602387
:1049A0007123822393231F910F910C9426240F933C
:1049B0001F9300917B0210917C0220917D02309127
:1049C0007E0260277127822793271F910F910C94F5
:1049D00026240895292F220F920F990F890FE82F6F
:1049E000E695E695E695877051E001C0550F8A95EA
:1049F000EAF785E0E89FF0011124EE59FD4F20E031
:104A000030E070E04081CB01022E02C09695879580
:104A10000A94E2F781708195842785238427819306
:104A20002F5F3F4F2530310569F70895292F220F59
:104A3000920F990F890F682F669566956695982F46
:104A4000977085E0689FB001112440E050E080E05D
:104A5000FB01E40FF51FEE59FD4F208130E0092ED8
:104A600002C0369527950A94E2F721703327042E69
:104A700001C0220F0A94EAF7822B4F5F5F4F453047
:104A8000510531F70895BF92CF92DF92EF92FF92D6
:104A90000F931F93CF93DF938C01C0907B02D09034
:104AA0007C02E0907D02F0907E0280917F029091E6
:104AB0008002A0918102B0918202C82AD92AEA2AF2
:104AC000FB2ACFE1D0E0D701C6010C2E04C0B69579
:104AD000A795979587950A94D2F780FD04C02197F2
:104AE00090F7B12C07C0BC2EB8018C2F0E94500744
:104AF0000197A9F38B2DDF91CF911F910F91FF901B
:104B0000EF90DF90CF90BF900895CF93DF93EC01AB
:104B10000E944325BE010E945007DF91CF91089566
:104B20001F93CF93DF93EB0190912902992321F0FA
:104B3000CB010E94852513C0882349F0CB010E9438
:104B40004325182F682FCE010E94EA2404C0CB0110
:104B50000E941625182FBE01812F0E945007DF9159
:104B6000CF911F91089580918302859585958595B4
:104B700008958091830287700895909183029770C1
:104B800081E009F480E0089590919D0292FB222734
:104B900020F9281751F080FB92F990939D028091A3
:104BA0009C0290919D020C94D026089580919D02C4
:104BB00082FB882780F991E089270C94C42581E045
:104BC0000C94C42580E00C94C42580918F02089534
:104BD00090918F02892B80938F02089580959091F8
:104BE0008F02892380938F02089510928F02089577
:104BF00090918E02892B80938E02089580959091DA
:104C00008E02892380938E02089510928E02089559
:104C100090918D02892B80938D02089580959091BB
:104C20008D02892380938D02089510928D0208953C
:104C300080918402089508950C941B260C941C26E0
:104C400090919D0292FD08C090918402981721F0E6
:104C5000809384020C941E260895809184028823F8
:104C600029F01092840280E00C941E260895E091B1
:104C70001F01F091200180918F028083E0911F013C
:104C8000F0912001908180918E02892B8083E091A8
:104C90001F01F0912001908180918D02892B8083EA
:104CA00080918402882381F0E0911F01F09120011E
:104CB0009081892B808380911F01909120010E9417
:104CC0005B2781110E942D2680911F019091200168
:104CD0000C94D51A0C941B2690919D0292FD10C045
:104CE00098E0899F90011124262B209383020E9433
:104CF0004C24809183028595859585950C946A2630
:104D00000C944C241092830280E00C946A2620912B
:104D100083028095822380938302982F977041F4B9
:104D200030E0482F082E000C550B2417350721F4CE
:104D300090919D0292FF07C08595859585950E946B
:104D40006D240C948226089580E008956FEF7FEF24
:104D500080E090E00C944A3180E090E00E9426319F
:104D600021E08A3E9E4F09F020E0822F089582E0E4
:104D700090E00C94183183E090E00C941831CF93BC
:104D800084E090E00E941831C82F82E290E00E94F7
:104D900018312C2F30E0A901582BCA01CF9108956A
:104DA000CF93C92F682F84E090E00E942C316C2FA4
:104DB00082E290E0CF910C942C31AB01BC018FE0EA
:104DC00090E00C943E31AB01BC0183E190E00C9487
:104DD0003E3160E070E0CB010C94E32660E070E0CF
:104DE000CB010E94DD260C94E9266AEE7EEF80E07E
:104DF00090E00E944A3160E082E090E00E942C3115
:104E000060E083E090E00E942C3110927F021092CB
:104E10008002109281021092820260E084E090E0B1
:104E20000E942C3160E082E290E00E942C3160E030
:104E300085E090E00E942C3160E086E090E00E94E6
:104E40002C316FEF87E090E00E942C3140E050E081
:104E5000BA0188E090E00E943E3160E08DE090E091
:104E60000E942C3140E050E0BA0188E190E00E94BD
:104E70003E3160E087E190E00E942C3140E050E05C
:104E8000BA018CE190E00E943E3160E070E080E287
:104E900090E00E944A3140E050E0BA0188E190E0A1
:104EA0000E943E310C94EE260C94F526682F8EE07D
:104EB00090E00C942C31FC01329697E080E0915008
:104EC00029F021912223D9F38F5FF9CF089566232A
:104ED00049F0FC01329608962191621729F0E817F3
:104EE000F907D1F780E0089581E008959C01FC0165
:104EF00032969FEF80E04191461789F09F3F19F469
:104F0000411101C0982F8F5F8630A9F79F3F39F07C
:104F1000F901E90FF11D97FDFA956283089508954F
:104F20009C012A5F3F4FFC014281461301C012825F
:104F3000019682179307B9F708950C9476270C947D
:104F40009027029626E0FC0111922A95E9F7089530
:104F500008950C94A8270C94A827CF930E94AB2700
:104F60000E94D0090E94A927C0E08C2F0E947B09D3
:104F7000811104C0CF5FC630C1F701C081E0CF917D
:104F800008950C94A8270C94C1278091C9028430FD
:104F900049F10E94C32780E00E943B0710929102D2
:104FA00020E488E190E00FB6F894A8958093600023
:104FB0000FBE2093600083B7817F846083BF83B777
:104FC000816083BF7894889583B78E7F83BF0FB647
:104FD000F894A89580916000886180936000109299
:104FE00060000FBE08950C94A8270E94F61F0E942F
:104FF000C91A0E943B070C94F3271F920F920FB619
:105000000F9211248F939F93AF93BF93809191023E
:10501000811113C08091C1029091C202A091C3027C
:10502000B091C4024196A11DB11D8093C10290931D
:10503000C202A093C302B093C402BF91AF919F91EB
:105040008F910F900FBE0F901F90189582E084BD36
:1050500093E095BD9AEF97BD80936E0008952FB7AA
:10506000F8948091C1029091C202A091C302B091C4
:10507000C4022FBF08952FB7F8946091C1027091B8
:10508000C2028091C3029091C4022FBF08959C0177
:105090004FB7F8948091C1029091C202A091C302CF
:1050A000B091C4024FBF821B930B089578941F9256
:1050B0000F920FB60F9211248F939F93AF93BF93CC
:1050C0008091C1029091C202A091C302B091C4022A
:1050D0000196A11DB11D8093C1029093C202A093BD
:1050E000C302B093C402BF91AF919F918F910F9073
:1050F0000FBE0F901F90189581E08093E00080E232
:105100008093D8001092C9008FE19EE40197F1F7D7
:1051100000C0000087E090EBDC018093D202909306
:10512000D302A093D402B093D5029CE088E10FB6DD
:10513000F894A895809360000FBE90936000FFCF15
:105140009093D5018093D401089580919A02089597
:10515000CF93DF9300D01F92CDB7DEB79091C902F5
:10516000943011F589837B836A839093E9008FEFF4
:105170009091E800815095FD06C095ED9A95F1F764
:1051800000008111F5CF8091E80085FF0DC040E05F
:1051900050E063E070E0CE0101960E94242B8091E4
:1051A000E8008E778093E8000F900F900F90DF91CA
:1051B000CF910895BC0184E00C94A828BC0183E041
:1051C0000C94A82824E02093E9002FEF3091E80008
:1051D000215035FD06C035ED3A95F1F7000021115B
:1051E000F5CF2091E80025FF0BC040E050E066E0DD
:1051F00070E00E94242B8091E8008E778093E80075
:105200000895CF93DF9321E02093E9002FEF3091B1
:10521000E800215035FD06C035ED3A95F1F7000064
:105220002111F5CF2091E80025FF14C0EC0140E0EA
:1052300050E068E070E00E94242B8091E8008E77B7
:105240008093E80088E0FE01A2E9B2E001900D92AF
:105250008A95E1F7DF91CF910895CF93603219F5E8
:105260002091C9022430F9F4C091E900CF70309147
:10527000EC00232F217030FD20E8C22B22E0209388
:10528000E9002091E80020FF0BC040E050E060E220
:1052900070E00E94242B8091E8008E778093E800D4
:1052A000CF70C093E900CF9108958091C802811119
:1052B00009C00E94002D0E945D2D8091E200846053
:1052C0008093E20008951092C80208950895089509
:1052D000089542E061EC81E00E94792C42E261ECA9
:1052E00084E00E94792C42E261EC82E00E94792CF9
:1052F00042E260EC83E00C94792C8091CB02833005
:1053000009F462C030F4813071F0823009F49BC03E
:1053100008958A3009F487C08B3009F46DC0893054
:1053200009F0A9C020C08091CA02813A09F0A3C047
:105330008091E800877F8093E8008091CE02909171
:10534000CF02892B21F468E082E992E003C060E09B
:1053500080E090E070E00E94BA2B8091E8008B77AB
:105360008093E80008958091CA02813209F083C0D9
:105370008091CE029091CF02009719F0029709F028
:105380007AC08091E800877F8093E8008091E800F0
:1053900082FD05C08091C9028111F8CF6CC02091B7
:1053A000F3008091F20090E0922B029729F4809113
:1053B000F1008B7F813021F48091F10080939A027B
:1053C0008091E8008B7753C08091CA02813A09F03E
:1053D00052C08091CE029091CF02892B09F04BC030
:1053E0008091E800877F8093E8008091E80080FF4B
:1053F000FCCF80912B0136C08091CA028132D9F551
:105400008091CE029091CF02892BA9F58091E8007E
:10541000877F8093E8000E94AE2C8091CC0280931D
:105420002B010C94F61F8091CA02813221F58091E4
:10543000E800877F8093E8000E94AE2C8091CD0227
:1054400080939B0208958091CA02813AA1F48091D1
:10545000E800877F8093E8008091E80080FFFCCF20
:1054600080919B028093F1008091E8008E77809379
:10547000E8000C94AE2C08951F93CF93DF93CDB723
:10548000DEB7A0970FB6F894DEBF0FBECDBF84B7CE
:10549000877F84BF0FB6F894A895809160008861DB
:1054A00080936000109260000FBE90E080E80FB61D
:1054B000F89480936100909361000FBE0E94451B99
:1054C0000E94002D0E945D2D8091E20084608093F7
:1054D000E20078940E94F22F0E94531B81E291E037
:1054E0000E94C41A13E08091C9028530A9F480910A
:1054F000C902853079F40E94C5278091C7028823AC
:10550000B1F30E94AD27882391F30E940E2B0E94D5
:10551000F61FEDCF0E94F5270E945D1B8091C90206
:10552000843009F51093E9008091E80082FF1BC0E8
:105530008091E80085FF0AC040E050E060E270E042
:10554000CE0101960E946F2B91E001C090E0809106
:10555000E8008B778093E800992329F060E2CE0180
:1055600001960E9463160E944F1BBDCF0C94B82A6F
:10557000292F332723303105C9F060F4213031055C
:1055800081F02230310509F041C08BE590E020E93F
:1055900038E040C021323105E1F02232310531F1ED
:1055A00035C082E190E02BEE38E034C0992781309D
:1055B000910549F028F0029749F5ECE6F8E005C0BE
:1055C000ECE8F8E002C0E0E8F8E0849190E09F01A8
:1055D00021C063307105D0F4660F771FFB01E253E1
:1055E000FE4F2081318189E090E014C06330710565
:1055F00068F4FB01EE0FFF1FE853FE4F208131815D
:10560000FB01EB53FE4F808190E004C080E090E00E
:1056100020E030E0FA0131832083089580E189BDE4
:1056200082E189BD09B400FEFDCF8091D8008F7D55
:105630008093D8008091E00082608093E0008091A8
:10564000E00081FDFCCF0895CF92DF92EF92FF92B0
:105650000F931F93CF93DF93EC018B017A010E948C
:10566000CD2C811133C0E114F10439F0F7018081B0
:105670009181081B190BC80FD91FC12CD12C011502
:10568000110519F18091E80085FD16C08091E800B0
:105690008E778093E800E114F10449F0F7018081EE
:1056A0009181C80ED91ED182C08285E00FC00E94B0
:1056B000CD2C882321F30AC089918093F1000150F9
:1056C0001109FFEFCF1ADF0ADACF80E0DF91CF9127
:1056D0001F910F91FF90EF90DF90CF900895CF92A0
:1056E000DF92EF92FF920F931F93CF93DF93EC0122
:1056F0008B017A010E94CD2C811133C0E114F10499
:1057000039F0F70180819181081B190BC80FD91F4F
:10571000C12CD12C0115110519F18091E80085FDEE
:1057200016C08091E8008B778093E800E114F104C3
:1057300049F0F70180819181C80ED91ED182C082C3
:1057400085E00FC00E94CD2C882321F30AC08091F0
:10575000F100899301501109FFEFCF1ADF0ADACF68
:1057600080E0DF91CF911F910F91FF90EF90DF903C
:10577000CF9008952091D0023091D102261737079B
:1057800048F06115710539F42091E8002E772093D7
:10579000E80001C0B901FC0120E06115710579F153
:1057A0008091C9028823F1F18530F1F18091E80000
:1057B00083FD3CC08091E80082FD2EC08091E8000E
:1057C00080FFEBCF2091F3008091F20090E0922BCC
:1057D0006115710551F08830910538F421912093BD
:1057E000F100615071090196F3CF21E0089709F0AB
:1057F00020E08091E8008E778093E800CECF2111E1
:10580000CFCF0AC08091C902882361F0853061F052
:105810008091E80083FD0AC08091E80082FFF2CF0A
:1058200080E0089582E0089583E0089581E008957E
:105830002091D0023091D1022617370748F0611528
:10584000710539F42091E8002E772093E80001C01B
:10585000B901FC0120E06115710591F18091C90247
:10586000882309F440C0853009F43FC08091E800E6
:1058700083FD3DC08091E80082FD2FC08091E8004B
:1058800080FFE9CF2091F3008091F20090E0922B0D
:105890006115710559F08830910540F424912093E9
:1058A000F1003196615071090196F2CF21E008971D
:1058B00009F020E08091E8008E778093E800CBCF5C
:1058C0002111CCCF0AC08091C902882361F08530B4
:1058D00061F08091E80083FD0AC08091E80082FFBA
:1058E000F2CF80E0089582E0089583E0089581E09A
:1058F0000895982F973068F59093E900981739F03C
:105900007091EC002091ED005091F00003C0242F25
:10591000762F50E021FD02C09F5FECCF3091EB006D
:105920003E7F3093EB003091ED003D7F3093ED00F2
:105930003091EB0031603093EB007093EC002093DA
:10594000ED005093F0002091EE0027FDE5CF80E0C0
:1059500008958F708093E90081E008958091CA02D4
:1059600087FF11C08091E80082FD05C08091C902C7
:105970008111F8CF11C08091E8008B770BC0809126
:10598000C902882349F08091E80080FFF8CF809118
:10599000E8008E778093E80008952091E40030912C
:1059A000E50095E64091EC00842F817040FF23C014
:1059B0008091E80080FD1DC08091C902882399F084
:1059C000853099F08091EB0085FD11C04091E40095
:1059D0005091E5002417350729F3915011F09A01F1
:1059E000E1CF84E0089582E0089583E0089581E0A6
:1059F000089580E008954091E80042FFDDCF0895CA
:105A00000E946E2D0E94762DE0EEF0E08081816094
:105A10008083E8EDF0E080818F77808319BCA7ED6B
:105A2000B0E08C918E7F8C9380818F7E80831092EA
:105A3000C80208950F931F93CF93DF930E946E2D9A
:105A40000E94762DC8EDD0E088818F778883888189
:105A50008068888388818F7D888319BC1092C902F1
:105A60001092C5021092C7021092C60200EE10E01A
:105A7000F80180818B7F808388818160888342E008
:105A800060E080E00E94792CE1EEF0E080818E7F82
:105A90008083E2EEF0E08081816080838081886095
:105AA0008083F80180818E7F8083888180618883F4
:105AB000DF91CF911F910F910895E8EDF0E0808183
:105AC0008F7E8083E7EDF0E080818160808384E0D9
:105AD00082BF81E08093C8020C941A2DE8EDF0E0BB
:105AE00080818E7F80831092E20008951092DA0008
:105AF0001092E10008951F920F920FB60F92112499
:105B00002F933F934F935F936F937F938F939F93C5
:105B1000AF93BF93EF93FF938091E10082FF0BC09F
:105B20008091E20082FF07C08091E1008B7F80932B
:105B3000E1000E94F12F8091DA0080FF1FC0809168
:105B4000D80080FF1BC08091DA008E7F8093DA003E
:105B50008091D90080FF0DC080E189BD82E189BDBF
:105B600009B400FEFDCF81E08093C9020E9455294F
:105B700005C019BC1092C9020E9463298091E100FE
:105B800080FF19C08091E20080FF15C08091E20083
:105B90008E7F8093E2008091E20080618093E2003A
:105BA0008091D80080628093D80019BC85E08093F2
:105BB000C9020E9467298091E10084FF30C0809172
:105BC000E20084FF2CC080E189BD82E189BD09B477
:105BD00000FEFDCF8091D8008F7D8093D80080910A
:105BE000E1008F7E8093E1008091E2008F7E8093C0
:105BF000E2008091E20081608093E2008091C50222
:105C0000882311F084E007C08091E30087FD02C083
:105C100081E001C083E08093C9020E9468298091DD
:105C2000E10083FF29C08091E20083FF25C08091BD
:105C3000E100877F8093E10082E08093C9021092A7
:105C4000C5028091E1008E7F8093E1008091E200A7
:105C50008E7F8093E2008091E20080618093E20079
:105C600042E060E080E00E94792C8091F000886042
:105C70008093F0000E946629FF91EF91BF91AF9150
:105C80009F918F917F916F915F914F913F912F9154
:105C90000F900FBE0F901F9018951F920F920FB686
:105CA0000F9211242F933F934F935F936F937F93A2
:105CB0008F939F93AF93BF93CF93DF93EF93FF9314
:105CC000C091E900CF708091EC00D82FD17080FD99
:105CD000D0E81092E9008091F000877F8093F00077
:105CE00078940E94912E1092E9008091F0008860D3
:105CF0008093F000CD2BCF70C093E900FF91EF911E
:105D0000DF91CF91BF91AF919F918F917F916F91D3
:105D10005F914F913F912F910F900FBE0F901F9069
:105D200018951F93CF93DF93CDB7DEB7AA970FB621
:105D3000F894DEBF0FBECDBFEAECF2E08091F10037
:105D4000819322E0E23DF207C9F70E947D2980910C
:105D5000E80083FF2EC18091CA029091CB02492FA7
:105D600050E04A30510508F024C1FA01E957FF4FCD
:105D70000C947130803821F0823809F01AC108C0C3
:105D80008091C6029091C702992389F082600FC06A
:105D90008091CE028F70873008F00BC18093E900AC
:105DA0008091EB0085FB882780F91092E9009091A3
:105DB000E800977F9093E8008093F1001092F10043
:105DC000D1C0282F2D7F09F0F4C0882319F082302C
:105DD00061F0EFC08091CC02813009F0EAC09330CD
:105DE00009F080E08093C7022EC08091CC0281111F
:105DF0002AC08091CE028F702FEF280F263008F036
